{
  "contractName": "CognitiveJobFactory",
  "abi": [
    {
      "constant": false,
      "inputs": [
        {
          "name": "_kernel",
          "type": "address"
        },
        {
          "name": "_dataset",
          "type": "address"
        },
        {
          "name": "_workersPool",
          "type": "address[]"
        },
        {
          "name": "_workersPool",
          "type": "address[]"
        }
      ],
      "name": "create",
      "outputs": [
        {
          "name": "o_cognitiveJob",
          "type": "address"
        }
      ],
      "payable": false,
      "stateMutability": "nonpayable",
      "type": "function"
    },
    {
      "inputs": [],
      "payable": false,
      "stateMutability": "view",
      "type": "function",
      "constant": true,
      "name": "owner",
      "outputs": [
        {
          "name": "",
          "type": "address"
        }
      ]
    },
    {
      "constant": false,
      "inputs": [
        {
          "name": "newOwner",
          "type": "address"
        }
      ],
      "name": "transferOwnership",
      "outputs": [],
      "payable": false,
      "stateMutability": "nonpayable",
      "type": "function"
    },
    {
      "inputs": [],
      "payable": false,
      "stateMutability": "nonpayable",
      "type": "constructor"
    },
    {
      "anonymous": false,
      "inputs": [
        {
          "indexed": true,
          "name": "previousOwner",
          "type": "address"
        },
        {
          "indexed": true,
          "name": "newOwner",
          "type": "address"
        }
      ],
      "name": "OwnershipTransferred",
      "type": "event"
    }
  ],
  "bytecode": "0x6060604052341561000f57600080fd5b336000806101000a81548173ffffffffffffffffffffffffffffffffffffffff021916908373ffffffffffffffffffffffffffffffffffffffff1602179055506142d08061005e6000396000f300606060405260043610610057576000357c0100000000000000000000000000000000000000000000000000000000900463ffffffff1680631c695d2b1461005c5780638da5cb5b14610108578063f2fde38b1461015d575b600080fd5b341561006757600080fd5b6100c6600480803573ffffffffffffffffffffffffffffffffffffffff1690602001909190803573ffffffffffffffffffffffffffffffffffffffff169060200190919080359060200190820180359060200191909192905050610196565b604051808273ffffffffffffffffffffffffffffffffffffffff1673ffffffffffffffffffffffffffffffffffffffff16815260200191505060405180910390f35b341561011357600080fd5b61011b610408565b604051808273ffffffffffffffffffffffffffffffffffffffff1673ffffffffffffffffffffffffffffffffffffffff16815260200191505060405180910390f35b341561016857600080fd5b610194600480803573ffffffffffffffffffffffffffffffffffffffff1690602001909190505061042d565b005b60008060009054906101000a900473ffffffffffffffffffffffffffffffffffffffff1673ffffffffffffffffffffffffffffffffffffffff163373ffffffffffffffffffffffffffffffffffffffff161415156101f357600080fd5b6000809054906101000a900473ffffffffffffffffffffffffffffffffffffffff1685858585610221610582565b808673ffffffffffffffffffffffffffffffffffffffff1673ffffffffffffffffffffffffffffffffffffffff1681526020018573ffffffffffffffffffffffffffffffffffffffff1673ffffffffffffffffffffffffffffffffffffffff1681526020018473ffffffffffffffffffffffffffffffffffffffff1673ffffffffffffffffffffffffffffffffffffffff16815260200180602001828103825284848281815260200192506020028082843782019150509650505050505050604051809103906000f08015156102f657600080fd5b9050600073ffffffffffffffffffffffffffffffffffffffff168173ffffffffffffffffffffffffffffffffffffffff161415151561033157fe5b8073ffffffffffffffffffffffffffffffffffffffff1663f2fde38b6000809054906101000a900473ffffffffffffffffffffffffffffffffffffffff166040518263ffffffff167c0100000000000000000000000000000000000000000000000000000000028152600401808273ffffffffffffffffffffffffffffffffffffffff1673ffffffffffffffffffffffffffffffffffffffff168152602001915050600060405180830381600087803b15156103ec57600080fd5b6102c65a03f115156103fd57600080fd5b505050949350505050565b6000809054906101000a900473ffffffffffffffffffffffffffffffffffffffff1681565b6000809054906101000a900473ffffffffffffffffffffffffffffffffffffffff1673ffffffffffffffffffffffffffffffffffffffff163373ffffffffffffffffffffffffffffffffffffffff1614151561048857600080fd5b600073ffffffffffffffffffffffffffffffffffffffff168173ffffffffffffffffffffffffffffffffffffffff16141515156104c457600080fd5b8073ffffffffffffffffffffffffffffffffffffffff166000809054906101000a900473ffffffffffffffffffffffffffffffffffffffff1673ffffffffffffffffffffffffffffffffffffffff167f8be0079c531659141344cd1fd0a4f28419497f9722a3daafe3b4186f6b6457e060405160405180910390a3806000806101000a81548173ffffffffffffffffffffffffffffffffffffffff021916908373ffffffffffffffffffffffffffffffffffffffff16021790555050565b604051613d11806200059483390190560060606040526000601260006101000a81548160ff021916908360ff16021790555034156200002c57600080fd5b60405162003d1138038062003d1183398101604052808051906020019091908051906020019091908051906020019091908051820191905050336000806101000a81548173ffffffffffffffffffffffffffffffffffffffff021916908373ffffffffffffffffffffffffffffffffffffffff1602179055508173ffffffffffffffffffffffffffffffffffffffff166387ea09616000604051602001526040518163ffffffff167c0100000000000000000000000000000000000000000000000000000000028152600401602060405180830381600087803b15156200011257600080fd5b6102c65a03f115156200012457600080fd5b50505060405180519050600d60146101000a81548160ff021916908360ff1602179055506000600d60149054906101000a900460ff1660ff161115156200016a57600080fd5b600d60149054906101000a900460ff1660ff168151101515156200018d57600080fd5b600073ffffffffffffffffffffffffffffffffffffffff168473ffffffffffffffffffffffffffffffffffffffff1614151515620001ca57600080fd5b600073ffffffffffffffffffffffffffffffffffffffff168373ffffffffffffffffffffffffffffffffffffffff16141515156200020757600080fd5b600073ffffffffffffffffffffffffffffffffffffffff168273ffffffffffffffffffffffffffffffffffffffff16141515156200024457600080fd5b83600b60006101000a81548173ffffffffffffffffffffffffffffffffffffffff021916908373ffffffffffffffffffffffffffffffffffffffff16021790555082600c60006101000a81548173ffffffffffffffffffffffffffffffffffffffff021916908373ffffffffffffffffffffffffffffffffffffffff16021790555081600d60006101000a81548173ffffffffffffffffffffffffffffffffffffffff021916908373ffffffffffffffffffffffffffffffffffffffff16021790555080600f90805190602001906200031f92919062000696565b506200033e620003486401000000000262002df4176401000000009004565b50505050620009a8565b600060096001019050602060405190810160405280600160ff1660ff168152508160008060ff1660ff1681526020019081526020016000209060016200039092919062000725565b506040805190810160405280600260ff1660ff168152602001600360ff1660ff16815250816000600160ff1660ff168152602001908152602001600020906002620003dd929190620007d3565b50606060405190810160405280600460ff1660ff168152602001600560ff1660ff168152602001600260ff1660ff16815250816000600360ff1660ff1681526020019081526020016000209060036200043892919062000881565b506040805190810160405280600760ff1660ff168152602001600660ff1660ff16815250816000600560ff1660ff16815260200190815260200160002090600262000485929190620007d3565b50620004a4620004c66401000000000262002f54176401000000009004565b6000600960000160016101000a81548160ff021916908360ff16021790555050565b6040805190810160405280601181526020017f5f696e697453746174654d616368696e65000000000000000000000000000000815250600015156008826040518082805190602001908083835b6020831015156200053a578051825260208201915060208101905060208303925062000513565b6001836020036101000a038019825116818451168082178552505050505050905001915050908152602001604051809103902060009054906101000a900460ff1615151415156200058a57600080fd5b620005aa60096200063364010000000002620030a6176401000000009004565b60016008826040518082805190602001908083835b602083101515620005e65780518252602082019150602081019050602083039250620005bf565b6001836020036101000a038019825116818451168082178552505050505050905001915050908152602001604051809103902060006101000a81548160ff02191690831515021790555050565b600015158160000160009054906101000a900460ff1615151415156200065857600080fd5b60018160000160016101000a81548160ff021916908360ff16021790555060018160000160006101000a81548160ff02191690831515021790555050565b82805482825590600052602060002090810192821562000712579160200282015b82811115620007115782518260006101000a81548173ffffffffffffffffffffffffffffffffffffffff021916908373ffffffffffffffffffffffffffffffffffffffff16021790555091602001919060010190620006b7565b5b5090506200072191906200092f565b5090565b82805482825590600052602060002090601f01602090048101928215620007c05791602002820160005b838211156200078f57835183826101000a81548160ff021916908360ff16021790555092602001926001016020816000010492830192600103026200074f565b8015620007be5782816101000a81549060ff02191690556001016020816000010492830192600103026200078f565b505b509050620007cf919062000975565b5090565b82805482825590600052602060002090601f016020900481019282156200086e5791602002820160005b838211156200083d57835183826101000a81548160ff021916908360ff1602179055509260200192600101602081600001049283019260010302620007fd565b80156200086c5782816101000a81549060ff02191690556001016020816000010492830192600103026200083d565b505b5090506200087d919062000975565b5090565b82805482825590600052602060002090601f016020900481019282156200091c5791602002820160005b83821115620008eb57835183826101000a81548160ff021916908360ff1602179055509260200192600101602081600001049283019260010302620008ab565b80156200091a5782816101000a81549060ff0219169055600101602081600001049283019260010302620008eb565b505b5090506200092b919062000975565b5090565b6200097291905b808211156200096e57600081816101000a81549073ffffffffffffffffffffffffffffffffffffffff02191690555060010162000936565b5090565b90565b620009a591905b80821115620009a157600081816101000a81549060ff0219169055506001016200097c565b5090565b90565b61335980620009b86000396000f300606060405260043610610180576000357c0100000000000000000000000000000000000000000000000000000000900463ffffffff168063026d49ea1461018557806302b728ab146101b45780630c3f6acf146102095780630fb03aad146102385780631590d658146102d45780631a0bc596146103035780631c72fad41461035857806321514ef3146103875780634804b4ba146103b65780634e6b42a8146103df578063577bd3361461040d578063589094001461043c5780635cb045db1461049f5780635e405967146104ce57806364d3414c146105315780636936087d146105565780638129fc1c1461057c57806383197ef0146105915780638da5cb5b146105a6578063b225be42146105fb578063c36b33b014610621578063cbd315ae14610650578063cc0e82c11461067f578063cfdf677e146106ae578063d4aae0c4146106dd578063d6ccdca314610732578063d94c69aa1461076d578063e06452d01461079b578063f2fde38b146107ca578063f5074f4114610803575b600080fd5b341561019057600080fd5b61019861083c565b604051808260ff1660ff16815260200191505060405180910390f35b34156101bf57600080fd5b6101c7610841565b604051808273ffffffffffffffffffffffffffffffffffffffff1673ffffffffffffffffffffffffffffffffffffffff16815260200191505060405180910390f35b341561021457600080fd5b61021c610867565b604051808260ff1660ff16815260200191505060405180910390f35b341561024357600080fd5b6102596004808035906020019091905050610881565b6040518080602001828103825283818151815260200191508051906020019080838360005b8381101561029957808201518184015260208101905061027e565b50505050905090810190601f1680156102c65780820380516001836020036101000a031916815260200191505b509250505060405180910390f35b34156102df57600080fd5b6102e761093d565b604051808260ff1660ff16815260200191505060405180910390f35b341561030e57600080fd5b610316610942565b604051808273ffffffffffffffffffffffffffffffffffffffff1673ffffffffffffffffffffffffffffffffffffffff16815260200191505060405180910390f35b341561036357600080fd5b61036b610968565b604051808260ff1660ff16815260200191505060405180910390f35b341561039257600080fd5b61039a61096d565b604051808260ff1660ff16815260200191505060405180910390f35b34156103c157600080fd5b6103c9610972565b6040518082815260200191505060405180910390f35b34156103ea57600080fd5b61040b6004808035906020019082018035906020019190919290505061097f565b005b341561041857600080fd5b610420610b43565b604051808260ff1660ff16815260200191505060405180910390f35b341561044757600080fd5b61045d6004808035906020019091905050610b56565b604051808273ffffffffffffffffffffffffffffffffffffffff1673ffffffffffffffffffffffffffffffffffffffff16815260200191505060405180910390f35b34156104aa57600080fd5b6104b2610b95565b604051808260ff1660ff16815260200191505060405180910390f35b34156104d957600080fd5b6104ef6004808035906020019091905050610b9a565b604051808273ffffffffffffffffffffffffffffffffffffffff1673ffffffffffffffffffffffffffffffffffffffff16815260200191505060405180910390f35b341561053c57600080fd5b61055460048080351515906020019091905050610bd9565b005b341561056157600080fd5b61057a600480803560ff16906020019091905050610d56565b005b341561058757600080fd5b61058f610e9d565b005b341561059c57600080fd5b6105a46113b4565b005b34156105b157600080fd5b6105b9611449565b604051808273ffffffffffffffffffffffffffffffffffffffff1673ffffffffffffffffffffffffffffffffffffffff16815260200191505060405180910390f35b341561060657600080fd5b61061f600480803560ff1690602001909190505061146e565b005b341561062c57600080fd5b610634611609565b604051808260ff1660ff16815260200191505060405180910390f35b341561065b57600080fd5b61066361160e565b604051808260ff1660ff16815260200191505060405180910390f35b341561068a57600080fd5b610692611613565b604051808260ff1660ff16815260200191505060405180910390f35b34156106b957600080fd5b6106c1611618565b604051808260ff1660ff16815260200191505060405180910390f35b34156106e857600080fd5b6106f061162b565b604051808273ffffffffffffffffffffffffffffffffffffffff1673ffffffffffffffffffffffffffffffffffffffff16815260200191505060405180910390f35b341561073d57600080fd5b6107536004808035906020019091905050611651565b604051808215151515815260200191505060405180910390f35b610799600480803573ffffffffffffffffffffffffffffffffffffffff16906020019091905050611690565b005b34156107a657600080fd5b6107ae611735565b604051808260ff1660ff16815260200191505060405180910390f35b34156107d557600080fd5b610801600480803573ffffffffffffffffffffffffffffffffffffffff1690602001909190505061173a565b005b341561080e57600080fd5b61083a600480803573ffffffffffffffffffffffffffffffffffffffff1690602001909190505061188f565b005b600681565b600d60009054906101000a900473ffffffffffffffffffffffffffffffffffffffff1681565b6000600960000160019054906101000a900460ff16905090565b60138181548110151561089057fe5b90600052602060002090016000915090508054600181600116156101000203166002900480601f0160208091040260200160405190810160405280929190818152602001828054600181600116156101000203166002900480156109355780601f1061090a57610100808354040283529160200191610935565b820191906000526020600020905b81548152906001019060200180831161091857829003601f168201915b505050505081565b600581565b600b60009054906101000a900473ffffffffffffffffffffffffffffffffffffffff1681565b600081565b600181565b6000600e80549050905090565b600080600061098c611903565b509050600073ffffffffffffffffffffffffffffffffffffffff168173ffffffffffffffffffffffffffffffffffffffff16141515156109cb57600080fd5b8073ffffffffffffffffffffffffffffffffffffffff163373ffffffffffffffffffffffffffffffffffffffff16141515610a0557600080fd5b8073ffffffffffffffffffffffffffffffffffffffff16638da5cb5b6000604051602001526040518163ffffffff167c0100000000000000000000000000000000000000000000000000000000028152600401602060405180830381600087803b1515610a7157600080fd5b6102c65a03f11515610a8257600080fd5b5050506040518051905073ffffffffffffffffffffffffffffffffffffffff163273ffffffffffffffffffffffffffffffffffffffff16141515610ac557600080fd5b610acd611903565b925092506001601183815481101515610ae257fe5b90600052602060002090602091828204019190066101000a81548160ff02191690831515021790555042601083815481101515610b1b57fe5b906000526020600020900181905550610b3261198c565b610b3c6007611bfa565b5050505050565b601260009054906101000a900460ff1681565b600e81815481101515610b6557fe5b90600052602060002090016000915054906101000a900473ffffffffffffffffffffffffffffffffffffffff1681565b600481565b600f81815481101515610ba957fe5b90600052602060002090016000915054906101000a900473ffffffffffffffffffffffffffffffffffffffff1681565b6000610be3611903565b509050600073ffffffffffffffffffffffffffffffffffffffff168173ffffffffffffffffffffffffffffffffffffffff1614151515610c2257600080fd5b8073ffffffffffffffffffffffffffffffffffffffff163373ffffffffffffffffffffffffffffffffffffffff16141515610c5c57600080fd5b8073ffffffffffffffffffffffffffffffffffffffff16638da5cb5b6000604051602001526040518163ffffffff167c0100000000000000000000000000000000000000000000000000000000028152600401602060405180830381600087803b1515610cc857600080fd5b6102c65a03f11515610cd957600080fd5b5050506040518051905073ffffffffffffffffffffffffffffffffffffffff163273ffffffffffffffffffffffffffffffffffffffff16141515610d1c57600080fd5b60018060ff16600960000160019054906101000a900460ff1660ff16141515610d4457600080fd5b610d518360006003611d8c565b505050565b6000610d60611903565b509050600073ffffffffffffffffffffffffffffffffffffffff168173ffffffffffffffffffffffffffffffffffffffff1614151515610d9f57600080fd5b8073ffffffffffffffffffffffffffffffffffffffff163373ffffffffffffffffffffffffffffffffffffffff16141515610dd957600080fd5b8073ffffffffffffffffffffffffffffffffffffffff16638da5cb5b6000604051602001526040518163ffffffff167c0100000000000000000000000000000000000000000000000000000000028152600401602060405180830381600087803b1515610e4557600080fd5b6102c65a03f11515610e5657600080fd5b5050506040518051905073ffffffffffffffffffffffffffffffffffffffff163273ffffffffffffffffffffffffffffffffffffffff16141515610e9957600080fd5b5050565b600080600b60009054906101000a900473ffffffffffffffffffffffffffffffffffffffff1673ffffffffffffffffffffffffffffffffffffffff163373ffffffffffffffffffffffffffffffffffffffff16141515610efc57600080fd5b60008060ff16600960000160019054906101000a900460ff1660ff16141515610f2457600080fd5b60016000600960000160019054906101000a900460ff169050610f51826009611f4a90919063ffffffff16565b600d60149054906101000a900460ff1660ff16604051805910610f715750595b9080825280602002602001820160405250600e9080519060200190610f97929190612a57565b50600d60149054906101000a900460ff1660ff16604051805910610fb85750595b908082528060200260200182016040525060109080519060200190610fde929190612ae1565b50600d60149054906101000a900460ff1660ff16604051805910610fff5750595b908082528060200260200182016040525060119080519060200190611025929190612b2e565b50600094505b600d60149054906101000a900460ff1660ff168560ff16101561123857600060118660ff1681548110151561105c57fe5b90600052602060002090602091828204019190066101000a81548160ff0219169083151502179055504260108660ff1681548110151561109857fe5b906000526020600020900181905550600f8560ff168154811015156110b957fe5b906000526020600020900160009054906101000a900473ffffffffffffffffffffffffffffffffffffffff16600e8660ff168154811015156110f757fe5b906000526020600020900160006101000a81548173ffffffffffffffffffffffffffffffffffffffff021916908373ffffffffffffffffffffffffffffffffffffffff160217905550600e8560ff1681548110151561115257fe5b906000526020600020900160009054906101000a900473ffffffffffffffffffffffffffffffffffffffff1673ffffffffffffffffffffffffffffffffffffffff1663897399ae306040518263ffffffff167c0100000000000000000000000000000000000000000000000000000000028152600401808273ffffffffffffffffffffffffffffffffffffffff1673ffffffffffffffffffffffffffffffffffffffff168152602001915050600060405180830381600087803b151561121757600080fd5b6102c65a03f1151561122857600080fd5b505050848060010195505061102b565b8460ff1693505b600f805490508461ffff1610156112fe57600f80548060010182816112649190612bd4565b91600052602060002090016000600f8761ffff1681548110151561128457fe5b906000526020600020900160009054906101000a900473ffffffffffffffffffffffffffffffffffffffff16909190916101000a81548173ffffffffffffffffffffffffffffffffffffffff021916908373ffffffffffffffffffffffffffffffffffffffff16021790555050838060010194505061123f565b7f7e0d09ae7160446fde9323338cdbe3e98cc2d5197108e8a3c5e037265288335d60405160405180910390a181600960000160016101000a81548160ff021916908360ff1602179055507fe8a97ea87e4388fa22d496b95a8ed5ced6717f49790318de2b928aaf37a021d881600960000160019054906101000a900460ff16604051808360ff1660ff1681526020018260ff1660ff1681526020019250505060405180910390a16113ad61201a565b5050505050565b6000809054906101000a900473ffffffffffffffffffffffffffffffffffffffff1673ffffffffffffffffffffffffffffffffffffffff163373ffffffffffffffffffffffffffffffffffffffff1614151561140f57600080fd5b6000809054906101000a900473ffffffffffffffffffffffffffffffffffffffff1673ffffffffffffffffffffffffffffffffffffffff16ff5b6000809054906101000a900473ffffffffffffffffffffffffffffffffffffffff1681565b6000611478611903565b509050600073ffffffffffffffffffffffffffffffffffffffff168173ffffffffffffffffffffffffffffffffffffffff16141515156114b757600080fd5b8073ffffffffffffffffffffffffffffffffffffffff163373ffffffffffffffffffffffffffffffffffffffff161415156114f157600080fd5b8073ffffffffffffffffffffffffffffffffffffffff16638da5cb5b6000604051602001526040518163ffffffff167c0100000000000000000000000000000000000000000000000000000000028152600401602060405180830381600087803b151561155d57600080fd5b6102c65a03f1151561156e57600080fd5b5050506040518051905073ffffffffffffffffffffffffffffffffffffffff163273ffffffffffffffffffffffffffffffffffffffff161415156115b157600080fd5b6002808111156115bd57fe5b8260028111156115c957fe5b14156115de576115d96004612329565b611605565b611604600060028111156115ee57fe5b8360028111156115fa57fe5b1460016005611d8c565b5b5050565b600281565b600381565b60ff81565b600d60149054906101000a900460ff1681565b600c60009054906101000a900473ffffffffffffffffffffffffffffffffffffffff1681565b60006001151560118381548110151561166657fe5b90600052602060002090602091828204019190069054906101000a900460ff161515149050919050565b6000600160ff16600960000160019054906101000a900460ff1660ff1614806116d15750600360ff16600960000160019054906101000a900460ff1660ff16145b806116f45750600560ff16600960000160019054906101000a900460ff1660ff16145b15156116ff57600080fd5b611708826123dd565b905061070860108281548110151561171c57fe5b9060005260206000209050505061173161198c565b5050565b600781565b6000809054906101000a900473ffffffffffffffffffffffffffffffffffffffff1673ffffffffffffffffffffffffffffffffffffffff163373ffffffffffffffffffffffffffffffffffffffff1614151561179557600080fd5b600073ffffffffffffffffffffffffffffffffffffffff168173ffffffffffffffffffffffffffffffffffffffff16141515156117d157600080fd5b8073ffffffffffffffffffffffffffffffffffffffff166000809054906101000a900473ffffffffffffffffffffffffffffffffffffffff1673ffffffffffffffffffffffffffffffffffffffff167f8be0079c531659141344cd1fd0a4f28419497f9722a3daafe3b4186f6b6457e060405160405180910390a3806000806101000a81548173ffffffffffffffffffffffffffffffffffffffff021916908373ffffffffffffffffffffffffffffffffffffffff16021790555050565b6000809054906101000a900473ffffffffffffffffffffffffffffffffffffffff1673ffffffffffffffffffffffffffffffffffffffff163373ffffffffffffffffffffffffffffffffffffffff161415156118ea57600080fd5b8073ffffffffffffffffffffffffffffffffffffffff16ff5b60008061190f336123dd565b9050600e8054905081111561194a5760007fffffffffffffffffffffffffffffffffffffffffffffffffffffffffffffffff91509150611988565b600e8181548110151561195957fe5b906000526020600020900160009054906101000a900473ffffffffffffffffffffffffffffffffffffffff1691505b9091565b6000806000600160ff16600960000160019054906101000a900460ff1660ff1614806119d05750600360ff16600960000160019054906101000a900460ff1660ff16145b806119f35750600560ff16600960000160019054906101000a900460ff1660ff16145b15156119fe57600080fd5b600092505b601080549050831015611bf557610708601084815481101515611a2257fe5b90600052602060002090015442031115611be857600e83815481101515611a4557fe5b906000526020600020900160009054906101000a900473ffffffffffffffffffffffffffffffffffffffff169150600160ff16600960000160019054906101000a900460ff1660ff161415611a9d5760009050611af8565b600360ff16600960000160019054906101000a900460ff1660ff161415611ac75760029050611af7565b600560ff16600960000160019054906101000a900460ff1660ff161415611af15760049050611af6565b600080fd5b5b5b600b60009054906101000a900473ffffffffffffffffffffffffffffffffffffffff1673ffffffffffffffffffffffffffffffffffffffff16635ef1777683836040518363ffffffff167c0100000000000000000000000000000000000000000000000000000000028152600401808373ffffffffffffffffffffffffffffffffffffffff1673ffffffffffffffffffffffffffffffffffffffff168152602001826004811115611ba557fe5b60ff16815260200192505050600060405180830381600087803b1515611bca57600080fd5b6102c65a03f11515611bdb57600080fd5b505050611be78361249f565b5b8280600101935050611a03565b505050565b600080600090505b601180549050811015611c5d5760011515601182815481101515611c2257fe5b90600052602060002090602091828204019190069054906101000a900460ff161515141515611c5057611d87565b8080600101915050611c02565b826000600960000160019054906101000a900460ff169050611c89826009611f4a90919063ffffffff16565b600093505b601080549050841015611d01576000601185815481101515611cac57fe5b90600052602060002090602091828204019190066101000a81548160ff02191690831515021790555042601085815481101515611ce557fe5b9060005260206000209001819055508380600101945050611c8e565b81600960000160016101000a81548160ff021916908360ff1602179055507fe8a97ea87e4388fa22d496b95a8ed5ced6717f49790318de2b928aaf37a021d881600960000160019054906101000a900460ff16604051808360ff1660ff1681526020018260ff1660ff1681526020019250505060405180910390a1611d8461201a565b50505b505050565b600080611d97611903565b91509150600073ffffffffffffffffffffffffffffffffffffffff168273ffffffffffffffffffffffffffffffffffffffff1614151515611dd757600080fd5b600015158515151415611ed857611ded8161249f565b600b60009054906101000a900473ffffffffffffffffffffffffffffffffffffffff1673ffffffffffffffffffffffffffffffffffffffff16635ef1777683866040518363ffffffff167c0100000000000000000000000000000000000000000000000000000000028152600401808373ffffffffffffffffffffffffffffffffffffffff1673ffffffffffffffffffffffffffffffffffffffff168152602001826004811115611e9a57fe5b60ff16815260200192505050600060405180830381600087803b1515611ebf57600080fd5b6102c65a03f11515611ed057600080fd5b505050611f43565b6001601182815481101515611ee957fe5b90600052602060002090602091828204019190066101000a81548160ff02191690831515021790555042601082815481101515611f2257fe5b906000526020600020900181905550611f3961198c565b611f4283611bfa565b5b5050505050565b600080600060ff8560000160019054906101000a900460ff1660ff1614151515611f7057fe5b600092508460010160008660000160019054906101000a900460ff1660ff1660ff1681526020019081526020016000209150600090505b8180549050811015612000578360ff168282815481101515611fc557fe5b90600052602060002090602091828204019190069054906101000a900460ff1660ff161415611ff357600192505b8080600101915050611fa7565b6001151583151514151561201357600080fd5b5050505050565b600260ff16612027610867565b60ff161415612069577f5f64b01e798e22b7b006309d50c085491c227a74e9cf11a922528b0d9a414de460405160405180910390a16120646127e6565b612327565b600360ff16612076610867565b60ff1614156120b0577f2d9c6af01e1c3857ef5720b6226a3b900b0db1a5a9430c53d8a35b4fccf2015560405160405180910390a1612326565b600460ff166120bd610867565b60ff1614156120ff577f75be0ccc76f667c80f1c9ab66fafe78bd732b900403eb3f0da135c085955deca60405160405180910390a16120fa6127e6565b612325565b600560ff1661210c610867565b60ff161415612146577f51273f7efcba23797f509c81f07b426c6b9cdbee92a6a40389a405d0152178c960405160405180910390a1612324565b600660ff16612153610867565b60ff161415612236577ff8d8e42e26bfacf74ecaff47cd43fa79d51c74d3a979d58521d12f369ad2bf7b6001604051808215151515815260200191505060405180910390a1600b60009054906101000a900473ffffffffffffffffffffffffffffffffffffffff1673ffffffffffffffffffffffffffffffffffffffff1663171317516040518163ffffffff167c0100000000000000000000000000000000000000000000000000000000028152600401600060405180830381600087803b151561221d57600080fd5b6102c65a03f1151561222e57600080fd5b505050612323565b600760ff16612243610867565b60ff161415612322577ff8d8e42e26bfacf74ecaff47cd43fa79d51c74d3a979d58521d12f369ad2bf7b6000604051808215151515815260200191505060405180910390a1600b60009054906101000a900473ffffffffffffffffffffffffffffffffffffffff1673ffffffffffffffffffffffffffffffffffffffff1663171317516040518163ffffffff167c0100000000000000000000000000000000000000000000000000000000028152600401600060405180830381600087803b151561230d57600080fd5b6102c65a03f1151561231e57600080fd5b5050505b5b5b5b5b5b565b806000600960000160019054906101000a900460ff169050612355826009611f4a90919063ffffffff16565b81600960000160016101000a81548160ff021916908360ff1602179055507fe8a97ea87e4388fa22d496b95a8ed5ced6717f49790318de2b928aaf37a021d881600960000160019054906101000a900460ff16604051808360ff1660ff1681526020018260ff1660ff1681526020019250505060405180910390a16123d861201a565b505050565b600080600090505b600e8054905081101561247557600e8181548110151561240157fe5b906000526020600020900160009054906101000a900473ffffffffffffffffffffffffffffffffffffffff1673ffffffffffffffffffffffffffffffffffffffff163373ffffffffffffffffffffffffffffffffffffffff16141561246857809150612499565b80806001019150506123e5565b7fffffffffffffffffffffffffffffffffffffffffffffffffffffffffffffffff91505b50919050565b6000600360056124bb828260096128389092919063ffffffff16565b5b6000600f8054905014156124d7576124d26128da565b6127e0565b600f6001600f80549050038154811015156124ee57fe5b906000526020600020900160009054906101000a900473ffffffffffffffffffffffffffffffffffffffff1692506001600f8054905003600f816125329190612c00565b508273ffffffffffffffffffffffffffffffffffffffff1663ae897c556000604051602001526040518163ffffffff167c0100000000000000000000000000000000000000000000000000000000028152600401602060405180830381600087803b151561259f57600080fd5b6102c65a03f115156125b057600080fd5b5050506040518051905060ff168373ffffffffffffffffffffffffffffffffffffffff16630c3f6acf6000604051602001526040518163ffffffff167c0100000000000000000000000000000000000000000000000000000000028152600401602060405180830381600087803b151561262957600080fd5b6102c65a03f1151561263a57600080fd5b5050506040518051905060ff16141515612653576124bc565b600060118581548110151561266457fe5b90600052602060002090602091828204019190066101000a81548160ff0219169083151502179055504260108581548110151561269d57fe5b90600052602060002090018190555082600e858154811015156126bc57fe5b906000526020600020900160006101000a81548173ffffffffffffffffffffffffffffffffffffffff021916908373ffffffffffffffffffffffffffffffffffffffff1602179055508273ffffffffffffffffffffffffffffffffffffffff1663897399ae306040518263ffffffff167c0100000000000000000000000000000000000000000000000000000000028152600401808273ffffffffffffffffffffffffffffffffffffffff1673ffffffffffffffffffffffffffffffffffffffff168152602001915050600060405180830381600087803b151561279f57600080fd5b6102c65a03f115156127b057600080fd5b5050507f7e0d09ae7160446fde9323338cdbe3e98cc2d5197108e8a3c5e037265288335d60405160405180910390a15b50505050565b6000600f816127f59190612c00565b506000600e816128059190612c00565b5060006013816128159190612c2c565b5060006011816128259190612c58565b5060006010816128359190612c92565b50565b6000612842612cbe565b600080925060408051908101604052808660ff1660ff1681526020018560ff1660ff168152509150600090505b60028110156128bf578560000160019054906101000a900460ff1660ff16828260028110151561289b57fe5b602002015160ff1614156128b257600192506128bf565b808060010191505061286f565b600115158315151415156128d257600080fd5b505050505050565b6000600160ff16600960000160019054906101000a900460ff1660ff16148061291b5750600360ff16600960000160019054906101000a900460ff1660ff16145b8061293e5750600560ff16600960000160019054906101000a900460ff1660ff16145b151561294957600080fd5b600090505b600e80549050811015612a1957600e8181548110151561296a57fe5b906000526020600020900160009054906101000a900473ffffffffffffffffffffffffffffffffffffffff1673ffffffffffffffffffffffffffffffffffffffff1663b07c74756040518163ffffffff167c0100000000000000000000000000000000000000000000000000000000028152600401600060405180830381600087803b15156129f857600080fd5b6102c65a03f11515612a0957600080fd5b505050808060010191505061294e565b600560ff16600960000160019054906101000a900460ff1660ff161415612a4957612a446006612329565b612a54565b612a536002612329565b5b50565b828054828255906000526020600020908101928215612ad0579160200282015b82811115612acf5782518260006101000a81548173ffffffffffffffffffffffffffffffffffffffff021916908373ffffffffffffffffffffffffffffffffffffffff16021790555091602001919060010190612a77565b5b509050612add9190612ce8565b5090565b828054828255906000526020600020908101928215612b1d579160200282015b82811115612b1c578251825591602001919060010190612b01565b5b509050612b2a9190612d2b565b5090565b82805482825590600052602060002090601f01602090048101928215612bc35791602002820160005b83821115612b9457835183826101000a81548160ff0219169083151502179055509260200192600101602081600001049283019260010302612b57565b8015612bc15782816101000a81549060ff0219169055600101602081600001049283019260010302612b94565b505b509050612bd09190612d50565b5090565b815481835581811511612bfb57818360005260206000209182019101612bfa9190612d2b565b5b505050565b815481835581811511612c2757818360005260206000209182019101612c269190612d2b565b5b505050565b815481835581811511612c5357818360005260206000209182019101612c529190612d80565b5b505050565b815481835581811511612c8d57601f016020900481601f01602090048360005260206000209182019101612c8c9190612d2b565b5b505050565b815481835581811511612cb957818360005260206000209182019101612cb89190612d2b565b5b505050565b60408051908101604052806002905b600060ff16815260200190600190039081612ccd5790505090565b612d2891905b80821115612d2457600081816101000a81549073ffffffffffffffffffffffffffffffffffffffff021916905550600101612cee565b5090565b90565b612d4d91905b80821115612d49576000816000905550600101612d31565b5090565b90565b612d7d91905b80821115612d7957600081816101000a81549060ff021916905550600101612d56565b5090565b90565b612da991905b80821115612da55760008181612d9c9190612dac565b50600101612d86565b5090565b90565b50805460018160011615610100020316600290046000825580601f10612dd25750612df1565b601f016020900490600052602060002090810190612df09190612d2b565b5b50565b600060096001019050602060405190810160405280600160ff1660ff168152508160008060ff1660ff168152602001908152602001600020906001612e3a929190613108565b506040805190810160405280600260ff1660ff168152602001600360ff1660ff16815250816000600160ff1660ff168152602001908152602001600020906002612e859291906131af565b50606060405190810160405280600460ff1660ff168152602001600560ff1660ff168152602001600260ff1660ff16815250816000600360ff1660ff168152602001908152602001600020906003612ede929190613256565b506040805190810160405280600760ff1660ff168152602001600660ff1660ff16815250816000600560ff1660ff168152602001908152602001600020906002612f299291906131af565b50612f32612f54565b6000600960000160016101000a81548160ff021916908360ff16021790555050565b6040805190810160405280601181526020017f5f696e697453746174654d616368696e65000000000000000000000000000000815250600015156008826040518082805190602001908083835b602083101515612fc65780518252602082019150602081019050602083039250612fa1565b6001836020036101000a038019825116818451168082178552505050505050905001915050908152602001604051809103902060009054906101000a900460ff16151514151561301557600080fd5b61301f60096130a6565b60016008826040518082805190602001908083835b6020831015156130595780518252602082019150602081019050602083039250613034565b6001836020036101000a038019825116818451168082178552505050505050905001915050908152602001604051809103902060006101000a81548160ff02191690831515021790555050565b600015158160000160009054906101000a900460ff1615151415156130ca57600080fd5b60018160000160016101000a81548160ff021916908360ff16021790555060018160000160006101000a81548160ff02191690831515021790555050565b82805482825590600052602060002090601f0160209004810192821561319e5791602002820160005b8382111561316f57835183826101000a81548160ff021916908360ff1602179055509260200192600101602081600001049283019260010302613131565b801561319c5782816101000a81549060ff021916905560010160208160000104928301926001030261316f565b505b5090506131ab91906132fd565b5090565b82805482825590600052602060002090601f016020900481019282156132455791602002820160005b8382111561321657835183826101000a81548160ff021916908360ff16021790555092602001926001016020816000010492830192600103026131d8565b80156132435782816101000a81549060ff0219169055600101602081600001049283019260010302613216565b505b50905061325291906132fd565b5090565b82805482825590600052602060002090601f016020900481019282156132ec5791602002820160005b838211156132bd57835183826101000a81548160ff021916908360ff160217905550926020019260010160208160000104928301926001030261327f565b80156132ea5782816101000a81549060ff02191690556001016020816000010492830192600103026132bd565b505b5090506132f991906132fd565b5090565b61332a91905b8082111561332657600081816101000a81549060ff021916905550600101613303565b5090565b905600a165627a7a723058204eae5f3d674394121eea13277b02cfa0099d2aea05b3598645a292614f5f0c6f0029a165627a7a723058206e1428962e21742bf664508013913e37c43bf80298498318be072e8c860fb8e80029",
  "source": "pragma solidity ^0.4.18;\n\nimport 'zeppelin-solidity/contracts/ownership/Ownable.sol';\nimport '../../jobs/CognitiveJob.sol';\nimport '../../entities/IDataEntity.sol';\nimport '../../entities/IDataset.sol';\nimport '../../entities/IKernel.sol';\nimport '../../nodes/IWorkerNode.sol';\nimport '../IPandora.sol';\n\ncontract CognitiveJobFactory is Ownable {\n    function CognitiveJobFactory() public { }\n\n    function create(\n        IKernel _kernel,\n        IDataset _dataset,\n        IWorkerNode[] _workersPool\n    )\n    onlyOwner\n    external\n    returns (CognitiveJob o_cognitiveJob) {\n        // Creating job\n        o_cognitiveJob = new CognitiveJob(IPandora(owner), _kernel, _dataset, _workersPool);\n\n        // Checking that it was created correctly\n        assert(o_cognitiveJob != CognitiveJob(0));\n\n        // Transferring ownership to the main Pandora contract (which owns this factory)\n        o_cognitiveJob.transferOwnership(owner);\n    }\n}\n",
  "sourcePath": "/Users/orlovsky/Repositories/pandora/pandora-solidity/contracts/pandora/factories/CognitiveJobFactory.sol",
  "compiler": {
    "name": "solc",
    "version": "0.4.18+commit.9cf6e910.Emscripten.clang"
  },
  "schemaVersion": "1.0.1",
  "updatedAt": "2017-12-13T18:09:34.172Z"
}