{
  "contractName": "CognitiveJob",
  "abi": [
    {
      "constant": true,
      "inputs": [],
      "name": "PartialResult",
      "outputs": [
        {
          "name": "",
          "type": "uint8"
        }
      ],
      "payable": false,
      "stateMutability": "view",
      "type": "function"
    },
    {
      "constant": true,
      "inputs": [],
      "name": "dataset",
      "outputs": [
        {
          "name": "",
          "type": "address"
        }
      ],
      "payable": false,
      "stateMutability": "view",
      "type": "function"
    },
    {
      "constant": true,
      "inputs": [],
      "name": "currentState",
      "outputs": [
        {
          "name": "",
          "type": "uint8"
        }
      ],
      "payable": false,
      "stateMutability": "view",
      "type": "function"
    },
    {
      "constant": true,
      "inputs": [
        {
          "name": "",
          "type": "uint256"
        }
      ],
      "name": "ipfsResults",
      "outputs": [
        {
          "name": "",
          "type": "bytes"
        }
      ],
      "payable": false,
      "stateMutability": "view",
      "type": "function"
    },
    {
      "constant": true,
      "inputs": [],
      "name": "Cognition",
      "outputs": [
        {
          "name": "",
          "type": "uint8"
        }
      ],
      "payable": false,
      "stateMutability": "view",
      "type": "function"
    },
    {
      "constant": true,
      "inputs": [],
      "name": "pandora",
      "outputs": [
        {
          "name": "",
          "type": "address"
        }
      ],
      "payable": false,
      "stateMutability": "view",
      "type": "function"
    },
    {
      "constant": true,
      "inputs": [],
      "name": "Uninitialized",
      "outputs": [
        {
          "name": "",
          "type": "uint8"
        }
      ],
      "payable": false,
      "stateMutability": "view",
      "type": "function"
    },
    {
      "constant": true,
      "inputs": [],
      "name": "GatheringWorkers",
      "outputs": [
        {
          "name": "",
          "type": "uint8"
        }
      ],
      "payable": false,
      "stateMutability": "view",
      "type": "function"
    },
    {
      "constant": true,
      "inputs": [],
      "name": "activeWorkersCount",
      "outputs": [
        {
          "name": "",
          "type": "uint256"
        }
      ],
      "payable": false,
      "stateMutability": "view",
      "type": "function"
    },
    {
      "constant": false,
      "inputs": [
        {
          "name": "_ipfsResults",
          "type": "bytes"
        }
      ],
      "name": "completeWork",
      "outputs": [],
      "payable": false,
      "stateMutability": "nonpayable",
      "type": "function"
    },
    {
      "constant": true,
      "inputs": [],
      "name": "progress",
      "outputs": [
        {
          "name": "",
          "type": "uint8"
        }
      ],
      "payable": false,
      "stateMutability": "view",
      "type": "function"
    },
    {
      "constant": true,
      "inputs": [
        {
          "name": "",
          "type": "uint256"
        }
      ],
      "name": "activeWorkers",
      "outputs": [
        {
          "name": "",
          "type": "address"
        }
      ],
      "payable": false,
      "stateMutability": "view",
      "type": "function"
    },
    {
      "constant": true,
      "inputs": [],
      "name": "InvalidData",
      "outputs": [
        {
          "name": "",
          "type": "uint8"
        }
      ],
      "payable": false,
      "stateMutability": "view",
      "type": "function"
    },
    {
      "constant": true,
      "inputs": [
        {
          "name": "",
          "type": "uint256"
        }
      ],
      "name": "workersPool",
      "outputs": [
        {
          "name": "",
          "type": "address"
        }
      ],
      "payable": false,
      "stateMutability": "view",
      "type": "function"
    },
    {
      "constant": false,
      "inputs": [
        {
          "name": "_acceptanceFlag",
          "type": "bool"
        }
      ],
      "name": "gatheringWorkersResponse",
      "outputs": [],
      "payable": false,
      "stateMutability": "nonpayable",
      "type": "function"
    },
    {
      "constant": false,
      "inputs": [
        {
          "name": "percent",
          "type": "uint8"
        }
      ],
      "name": "commitProgress",
      "outputs": [],
      "payable": false,
      "stateMutability": "nonpayable",
      "type": "function"
    },
    {
      "constant": false,
      "inputs": [],
      "name": "initialize",
      "outputs": [],
      "payable": false,
      "stateMutability": "nonpayable",
      "type": "function"
    },
    {
      "constant": false,
      "inputs": [],
      "name": "destroy",
      "outputs": [],
      "payable": false,
      "stateMutability": "nonpayable",
      "type": "function"
    },
    {
      "constant": true,
      "inputs": [],
      "name": "owner",
      "outputs": [
        {
          "name": "",
          "type": "address"
        }
      ],
      "payable": false,
      "stateMutability": "view",
      "type": "function"
    },
    {
      "constant": true,
      "inputs": [
        {
          "name": "no",
          "type": "uint256"
        }
      ],
      "name": "workerDidCompute",
      "outputs": [
        {
          "name": "",
          "type": "bool"
        }
      ],
      "payable": false,
      "stateMutability": "view",
      "type": "function"
    },
    {
      "constant": false,
      "inputs": [
        {
          "name": "_response",
          "type": "uint8"
        }
      ],
      "name": "dataValidationResponse",
      "outputs": [],
      "payable": false,
      "stateMutability": "nonpayable",
      "type": "function"
    },
    {
      "constant": true,
      "inputs": [],
      "name": "InsufficientWorkers",
      "outputs": [
        {
          "name": "",
          "type": "uint8"
        }
      ],
      "payable": false,
      "stateMutability": "view",
      "type": "function"
    },
    {
      "constant": true,
      "inputs": [],
      "name": "DataValidation",
      "outputs": [
        {
          "name": "",
          "type": "uint8"
        }
      ],
      "payable": false,
      "stateMutability": "view",
      "type": "function"
    },
    {
      "constant": true,
      "inputs": [],
      "name": "Destroyed",
      "outputs": [
        {
          "name": "",
          "type": "uint8"
        }
      ],
      "payable": false,
      "stateMutability": "view",
      "type": "function"
    },
    {
      "constant": true,
      "inputs": [],
      "name": "batches",
      "outputs": [
        {
          "name": "",
          "type": "uint256"
        }
      ],
      "payable": false,
      "stateMutability": "view",
      "type": "function"
    },
    {
      "constant": true,
      "inputs": [],
      "name": "kernel",
      "outputs": [
        {
          "name": "",
          "type": "address"
        }
      ],
      "payable": false,
      "stateMutability": "view",
      "type": "function"
    },
    {
      "constant": false,
      "inputs": [
        {
          "name": "_reportedWorker",
          "type": "address"
        }
      ],
      "name": "reportOfflineWorker",
      "outputs": [],
      "payable": true,
      "stateMutability": "payable",
      "type": "function"
    },
    {
      "constant": true,
      "inputs": [],
      "name": "Completed",
      "outputs": [
        {
          "name": "",
          "type": "uint8"
        }
      ],
      "payable": false,
      "stateMutability": "view",
      "type": "function"
    },
    {
      "constant": false,
      "inputs": [
        {
          "name": "newOwner",
          "type": "address"
        }
      ],
      "name": "transferOwnership",
      "outputs": [],
      "payable": false,
      "stateMutability": "nonpayable",
      "type": "function"
    },
    {
      "constant": false,
      "inputs": [
        {
          "name": "_recipient",
          "type": "address"
        }
      ],
      "name": "destroyAndSend",
      "outputs": [],
      "payable": false,
      "stateMutability": "nonpayable",
      "type": "function"
    },
    {
      "inputs": [
        {
          "name": "_pandora",
          "type": "address"
        },
        {
          "name": "_kernel",
          "type": "address"
        },
        {
          "name": "_dataset",
          "type": "address"
        },
        {
          "name": "_workersPool",
          "type": "address[]"
        }
      ],
      "payable": false,
      "stateMutability": "nonpayable",
      "type": "constructor"
    },
    {
      "anonymous": false,
      "inputs": [],
      "name": "WorkersUpdated",
      "type": "event"
    },
    {
      "anonymous": false,
      "inputs": [],
      "name": "WorkersNotFound",
      "type": "event"
    },
    {
      "anonymous": false,
      "inputs": [],
      "name": "DataValidationStarted",
      "type": "event"
    },
    {
      "anonymous": false,
      "inputs": [],
      "name": "DataValidationFailed",
      "type": "event"
    },
    {
      "anonymous": false,
      "inputs": [],
      "name": "CognitionStarted",
      "type": "event"
    },
    {
      "anonymous": false,
      "inputs": [
        {
          "indexed": false,
          "name": "precent",
          "type": "uint8"
        }
      ],
      "name": "CognitionProgressed",
      "type": "event"
    },
    {
      "anonymous": false,
      "inputs": [
        {
          "indexed": false,
          "name": "partialResult",
          "type": "bool"
        }
      ],
      "name": "CognitionCompleted",
      "type": "event"
    },
    {
      "anonymous": false,
      "inputs": [
        {
          "indexed": true,
          "name": "previousOwner",
          "type": "address"
        },
        {
          "indexed": true,
          "name": "newOwner",
          "type": "address"
        }
      ],
      "name": "OwnershipTransferred",
      "type": "event"
    }
  ],
  "bytecode": "0x60606040526000600b60006101000a81548160ff021916908360ff16021790555034156200002c57600080fd5b604051620038713803806200387183398101604052808051906020019091908051906020019091908051906020019091908051820191905050336000806101000a81548173ffffffffffffffffffffffffffffffffffffffff021916908373ffffffffffffffffffffffffffffffffffffffff1602179055508173ffffffffffffffffffffffffffffffffffffffff166387ea09616000604051602001526040518163ffffffff167c0100000000000000000000000000000000000000000000000000000000028152600401602060405180830381600087803b15156200011257600080fd5b6102c65a03f115156200012457600080fd5b5050506040518051905060ff1660068190555060006006541115156200014957600080fd5b6006548151101515156200015c57600080fd5b600073ffffffffffffffffffffffffffffffffffffffff168473ffffffffffffffffffffffffffffffffffffffff16141515156200019957600080fd5b600073ffffffffffffffffffffffffffffffffffffffff168373ffffffffffffffffffffffffffffffffffffffff1614151515620001d657600080fd5b600073ffffffffffffffffffffffffffffffffffffffff168273ffffffffffffffffffffffffffffffffffffffff16141515156200021357600080fd5b83600360006101000a81548173ffffffffffffffffffffffffffffffffffffffff021916908373ffffffffffffffffffffffffffffffffffffffff16021790555082600460006101000a81548173ffffffffffffffffffffffffffffffffffffffff021916908373ffffffffffffffffffffffffffffffffffffffff16021790555081600560006101000a81548173ffffffffffffffffffffffffffffffffffffffff021916908373ffffffffffffffffffffffffffffffffffffffff1602179055508060089080519060200190620002ee929190620004f9565b506200030d620003176401000000000262002c42176401000000009004565b505050506200080b565b6000600180019050602060405190810160405280600160ff1660ff168152508160008060ff1660ff1681526020019081526020016000209060016200035e92919062000588565b506040805190810160405280600260ff1660ff168152602001600360ff1660ff16815250816000600160ff1660ff168152602001908152602001600020906002620003ab92919062000636565b50606060405190810160405280600460ff1660ff168152602001600560ff1660ff168152602001600260ff1660ff16815250816000600360ff1660ff16815260200190815260200160002090600362000406929190620006e4565b506040805190810160405280600760ff1660ff168152602001600660ff1660ff16815250816000600560ff1660ff1681526020019081526020016000209060026200045392919062000636565b50620004746001620004966401000000000262002da3176401000000009004565b6000600160000160016101000a81548160ff021916908360ff16021790555050565b600015158160000160009054906101000a900460ff161515141515620004bb57600080fd5b60018160000160016101000a81548160ff021916908360ff16021790555060018160000160006101000a81548160ff02191690831515021790555050565b82805482825590600052602060002090810192821562000575579160200282015b82811115620005745782518260006101000a81548173ffffffffffffffffffffffffffffffffffffffff021916908373ffffffffffffffffffffffffffffffffffffffff160217905550916020019190600101906200051a565b5b50905062000584919062000792565b5090565b82805482825590600052602060002090601f01602090048101928215620006235791602002820160005b83821115620005f257835183826101000a81548160ff021916908360ff1602179055509260200192600101602081600001049283019260010302620005b2565b8015620006215782816101000a81549060ff0219169055600101602081600001049283019260010302620005f2565b505b509050620006329190620007d8565b5090565b82805482825590600052602060002090601f01602090048101928215620006d15791602002820160005b83821115620006a057835183826101000a81548160ff021916908360ff160217905550926020019260010160208160000104928301926001030262000660565b8015620006cf5782816101000a81549060ff0219169055600101602081600001049283019260010302620006a0565b505b509050620006e09190620007d8565b5090565b82805482825590600052602060002090601f016020900481019282156200077f5791602002820160005b838211156200074e57835183826101000a81548160ff021916908360ff16021790555092602001926001016020816000010492830192600103026200070e565b80156200077d5782816101000a81549060ff02191690556001016020816000010492830192600103026200074e565b505b5090506200078e9190620007d8565b5090565b620007d591905b80821115620007d157600081816101000a81549073ffffffffffffffffffffffffffffffffffffffff02191690555060010162000799565b5090565b90565b6200080891905b808211156200080457600081816101000a81549060ff021916905550600101620007df565b5090565b90565b613056806200081b6000396000f300606060405260043610610180576000357c0100000000000000000000000000000000000000000000000000000000900463ffffffff168063026d49ea1461018557806302b728ab146101b45780630c3f6acf146102095780630fb03aad146102385780631590d658146102d45780631a0bc596146103035780631c72fad41461035857806321514ef3146103875780634804b4ba146103b65780634e6b42a8146103df578063577bd3361461040d578063589094001461043c5780635cb045db1461049f5780635e405967146104ce57806364d3414c146105315780636936087d146105565780638129fc1c1461057c57806383197ef0146105915780638da5cb5b146105a6578063a54cd00c146105fb578063b225be4214610636578063c36b33b01461065c578063cbd315ae1461068b578063cc0e82c1146106ba578063cfdf677e146106e9578063d4aae0c414610712578063d94c69aa14610767578063e06452d014610795578063f2fde38b146107c4578063f5074f41146107fd575b600080fd5b341561019057600080fd5b610198610836565b604051808260ff1660ff16815260200191505060405180910390f35b34156101bf57600080fd5b6101c761083b565b604051808273ffffffffffffffffffffffffffffffffffffffff1673ffffffffffffffffffffffffffffffffffffffff16815260200191505060405180910390f35b341561021457600080fd5b61021c610861565b604051808260ff1660ff16815260200191505060405180910390f35b341561024357600080fd5b610259600480803590602001909190505061087b565b6040518080602001828103825283818151815260200191508051906020019080838360005b8381101561029957808201518184015260208101905061027e565b50505050905090810190601f1680156102c65780820380516001836020036101000a031916815260200191505b509250505060405180910390f35b34156102df57600080fd5b6102e7610937565b604051808260ff1660ff16815260200191505060405180910390f35b341561030e57600080fd5b61031661093c565b604051808273ffffffffffffffffffffffffffffffffffffffff1673ffffffffffffffffffffffffffffffffffffffff16815260200191505060405180910390f35b341561036357600080fd5b61036b610962565b604051808260ff1660ff16815260200191505060405180910390f35b341561039257600080fd5b61039a610967565b604051808260ff1660ff16815260200191505060405180910390f35b34156103c157600080fd5b6103c961096c565b6040518082815260200191505060405180910390f35b34156103ea57600080fd5b61040b60048080359060200190820180359060200191909192905050610979565b005b341561041857600080fd5b610420610b3d565b604051808260ff1660ff16815260200191505060405180910390f35b341561044757600080fd5b61045d6004808035906020019091905050610b50565b604051808273ffffffffffffffffffffffffffffffffffffffff1673ffffffffffffffffffffffffffffffffffffffff16815260200191505060405180910390f35b34156104aa57600080fd5b6104b2610b8f565b604051808260ff1660ff16815260200191505060405180910390f35b34156104d957600080fd5b6104ef6004808035906020019091905050610b94565b604051808273ffffffffffffffffffffffffffffffffffffffff1673ffffffffffffffffffffffffffffffffffffffff16815260200191505060405180910390f35b341561053c57600080fd5b61055460048080351515906020019091905050610bd3565b005b341561056157600080fd5b61057a600480803560ff16906020019091905050610d50565b005b341561058757600080fd5b61058f610e97565b005b341561059c57600080fd5b6105a46112f9565b005b34156105b157600080fd5b6105b961138e565b604051808273ffffffffffffffffffffffffffffffffffffffff1673ffffffffffffffffffffffffffffffffffffffff16815260200191505060405180910390f35b341561060657600080fd5b61061c60048080359060200190919050506113b3565b604051808215151515815260200191505060405180910390f35b341561064157600080fd5b61065a600480803560ff169060200190919050506113f2565b005b341561066757600080fd5b61066f61158d565b604051808260ff1660ff16815260200191505060405180910390f35b341561069657600080fd5b61069e611592565b604051808260ff1660ff16815260200191505060405180910390f35b34156106c557600080fd5b6106cd611597565b604051808260ff1660ff16815260200191505060405180910390f35b34156106f457600080fd5b6106fc61159c565b6040518082815260200191505060405180910390f35b341561071d57600080fd5b6107256115a2565b604051808273ffffffffffffffffffffffffffffffffffffffff1673ffffffffffffffffffffffffffffffffffffffff16815260200191505060405180910390f35b610793600480803573ffffffffffffffffffffffffffffffffffffffff169060200190919050506115c8565b005b34156107a057600080fd5b6107a861166d565b604051808260ff1660ff16815260200191505060405180910390f35b34156107cf57600080fd5b6107fb600480803573ffffffffffffffffffffffffffffffffffffffff16906020019091905050611672565b005b341561080857600080fd5b610834600480803573ffffffffffffffffffffffffffffffffffffffff169060200190919050506117c7565b005b600681565b600560009054906101000a900473ffffffffffffffffffffffffffffffffffffffff1681565b6000600160000160019054906101000a900460ff16905090565b600c8181548110151561088a57fe5b90600052602060002090016000915090508054600181600116156101000203166002900480601f01602080910402602001604051908101604052809291908181526020018280546001816001161561010002031660029004801561092f5780601f106109045761010080835404028352916020019161092f565b820191906000526020600020905b81548152906001019060200180831161091257829003601f168201915b505050505081565b600581565b600360009054906101000a900473ffffffffffffffffffffffffffffffffffffffff1681565b600081565b600181565b6000600780549050905090565b600080600061098661183b565b509050600073ffffffffffffffffffffffffffffffffffffffff168173ffffffffffffffffffffffffffffffffffffffff16141515156109c557600080fd5b8073ffffffffffffffffffffffffffffffffffffffff163373ffffffffffffffffffffffffffffffffffffffff161415156109ff57600080fd5b8073ffffffffffffffffffffffffffffffffffffffff16638da5cb5b6000604051602001526040518163ffffffff167c0100000000000000000000000000000000000000000000000000000000028152600401602060405180830381600087803b1515610a6b57600080fd5b6102c65a03f11515610a7c57600080fd5b5050506040518051905073ffffffffffffffffffffffffffffffffffffffff163273ffffffffffffffffffffffffffffffffffffffff16141515610abf57600080fd5b610ac761183b565b925092506001600a83815481101515610adc57fe5b90600052602060002090602091828204019190066101000a81548160ff02191690831515021790555042600983815481101515610b1557fe5b906000526020600020900181905550610b2c6118c4565b610b366007611b32565b5050505050565b600b60009054906101000a900460ff1681565b600781815481101515610b5f57fe5b90600052602060002090016000915054906101000a900473ffffffffffffffffffffffffffffffffffffffff1681565b600481565b600881815481101515610ba357fe5b90600052602060002090016000915054906101000a900473ffffffffffffffffffffffffffffffffffffffff1681565b6000610bdd61183b565b509050600073ffffffffffffffffffffffffffffffffffffffff168173ffffffffffffffffffffffffffffffffffffffff1614151515610c1c57600080fd5b8073ffffffffffffffffffffffffffffffffffffffff163373ffffffffffffffffffffffffffffffffffffffff16141515610c5657600080fd5b8073ffffffffffffffffffffffffffffffffffffffff16638da5cb5b6000604051602001526040518163ffffffff167c0100000000000000000000000000000000000000000000000000000000028152600401602060405180830381600087803b1515610cc257600080fd5b6102c65a03f11515610cd357600080fd5b5050506040518051905073ffffffffffffffffffffffffffffffffffffffff163273ffffffffffffffffffffffffffffffffffffffff16141515610d1657600080fd5b60018060ff16600160000160019054906101000a900460ff1660ff16141515610d3e57600080fd5b610d4b8360006003611c4f565b505050565b6000610d5a61183b565b509050600073ffffffffffffffffffffffffffffffffffffffff168173ffffffffffffffffffffffffffffffffffffffff1614151515610d9957600080fd5b8073ffffffffffffffffffffffffffffffffffffffff163373ffffffffffffffffffffffffffffffffffffffff16141515610dd357600080fd5b8073ffffffffffffffffffffffffffffffffffffffff16638da5cb5b6000604051602001526040518163ffffffff167c0100000000000000000000000000000000000000000000000000000000028152600401602060405180830381600087803b1515610e3f57600080fd5b6102c65a03f11515610e5057600080fd5b5050506040518051905073ffffffffffffffffffffffffffffffffffffffff163273ffffffffffffffffffffffffffffffffffffffff16141515610e9357600080fd5b5050565b600080600360009054906101000a900473ffffffffffffffffffffffffffffffffffffffff1673ffffffffffffffffffffffffffffffffffffffff163373ffffffffffffffffffffffffffffffffffffffff16141515610ef657600080fd5b60008060ff16600160000160019054906101000a900460ff1660ff16141515610f1e57600080fd5b6001610f34816001611e0d90919063ffffffff16565b600654604051805910610f445750595b908082528060200260200182016040525060079080519060200190610f6a9291906128a5565b50600654604051805910610f7b5750595b908082528060200260200182016040525060099080519060200190610fa192919061292f565b50600654604051805910610fb25750595b9080825280602002602001820160405250600a9080519060200190610fd892919061297c565b50600093505b6006548460ff1610156111db576000600a8560ff16815481101515610fff57fe5b90600052602060002090602091828204019190066101000a81548160ff0219169083151502179055504260098560ff1681548110151561103b57fe5b90600052602060002090018190555060088460ff1681548110151561105c57fe5b906000526020600020900160009054906101000a900473ffffffffffffffffffffffffffffffffffffffff1660078560ff1681548110151561109a57fe5b906000526020600020900160006101000a81548173ffffffffffffffffffffffffffffffffffffffff021916908373ffffffffffffffffffffffffffffffffffffffff16021790555060078460ff168154811015156110f557fe5b906000526020600020900160009054906101000a900473ffffffffffffffffffffffffffffffffffffffff1673ffffffffffffffffffffffffffffffffffffffff1663897399ae306040518263ffffffff167c0100000000000000000000000000000000000000000000000000000000028152600401808273ffffffffffffffffffffffffffffffffffffffff1673ffffffffffffffffffffffffffffffffffffffff168152602001915050600060405180830381600087803b15156111ba57600080fd5b6102c65a03f115156111cb57600080fd5b5050508380600101945050610fde565b8360ff1692505b6008805490508361ffff1610156112a157600880548060010182816112079190612a22565b9160005260206000209001600060088661ffff1681548110151561122757fe5b906000526020600020900160009054906101000a900473ffffffffffffffffffffffffffffffffffffffff16909190916101000a81548173ffffffffffffffffffffffffffffffffffffffff021916908373ffffffffffffffffffffffffffffffffffffffff1602179055505082806001019350506111e2565b7f7e0d09ae7160446fde9323338cdbe3e98cc2d5197108e8a3c5e037265288335d60405160405180910390a180600160000160016101000a81548160ff021916908360ff1602179055506112f3611edd565b50505050565b6000809054906101000a900473ffffffffffffffffffffffffffffffffffffffff1673ffffffffffffffffffffffffffffffffffffffff163373ffffffffffffffffffffffffffffffffffffffff1614151561135457600080fd5b6000809054906101000a900473ffffffffffffffffffffffffffffffffffffffff1673ffffffffffffffffffffffffffffffffffffffff16ff5b6000809054906101000a900473ffffffffffffffffffffffffffffffffffffffff1681565b600060011515600a838154811015156113c857fe5b90600052602060002090602091828204019190069054906101000a900460ff161515149050919050565b60006113fc61183b565b509050600073ffffffffffffffffffffffffffffffffffffffff168173ffffffffffffffffffffffffffffffffffffffff161415151561143b57600080fd5b8073ffffffffffffffffffffffffffffffffffffffff163373ffffffffffffffffffffffffffffffffffffffff1614151561147557600080fd5b8073ffffffffffffffffffffffffffffffffffffffff16638da5cb5b6000604051602001526040518163ffffffff167c0100000000000000000000000000000000000000000000000000000000028152600401602060405180830381600087803b15156114e157600080fd5b6102c65a03f115156114f257600080fd5b5050506040518051905073ffffffffffffffffffffffffffffffffffffffff163273ffffffffffffffffffffffffffffffffffffffff1614151561153557600080fd5b60028081111561154157fe5b82600281111561154d57fe5b14156115625761155d60046121ec565b611589565b6115886000600281111561157257fe5b83600281111561157e57fe5b1460016005611c4f565b5b5050565b600281565b600381565b60ff81565b60065481565b600460009054906101000a900473ffffffffffffffffffffffffffffffffffffffff1681565b6000600160ff16600160000160019054906101000a900460ff1660ff1614806116095750600360ff16600160000160019054906101000a900460ff1660ff16145b8061162c5750600560ff16600160000160019054906101000a900460ff1660ff16145b151561163757600080fd5b6116408261222b565b905061070860098281548110151561165457fe5b906000526020600020905050506116696118c4565b5050565b600781565b6000809054906101000a900473ffffffffffffffffffffffffffffffffffffffff1673ffffffffffffffffffffffffffffffffffffffff163373ffffffffffffffffffffffffffffffffffffffff161415156116cd57600080fd5b600073ffffffffffffffffffffffffffffffffffffffff168173ffffffffffffffffffffffffffffffffffffffff161415151561170957600080fd5b8073ffffffffffffffffffffffffffffffffffffffff166000809054906101000a900473ffffffffffffffffffffffffffffffffffffffff1673ffffffffffffffffffffffffffffffffffffffff167f8be0079c531659141344cd1fd0a4f28419497f9722a3daafe3b4186f6b6457e060405160405180910390a3806000806101000a81548173ffffffffffffffffffffffffffffffffffffffff021916908373ffffffffffffffffffffffffffffffffffffffff16021790555050565b6000809054906101000a900473ffffffffffffffffffffffffffffffffffffffff1673ffffffffffffffffffffffffffffffffffffffff163373ffffffffffffffffffffffffffffffffffffffff1614151561182257600080fd5b8073ffffffffffffffffffffffffffffffffffffffff16ff5b6000806118473361222b565b90506007805490508111156118825760007fffffffffffffffffffffffffffffffffffffffffffffffffffffffffffffffff915091506118c0565b60078181548110151561189157fe5b906000526020600020900160009054906101000a900473ffffffffffffffffffffffffffffffffffffffff1691505b9091565b6000806000600160ff16600160000160019054906101000a900460ff1660ff1614806119085750600360ff16600160000160019054906101000a900460ff1660ff16145b8061192b5750600560ff16600160000160019054906101000a900460ff1660ff16145b151561193657600080fd5b600092505b600980549050831015611b2d5761070860098481548110151561195a57fe5b90600052602060002090015442031115611b205760078381548110151561197d57fe5b906000526020600020900160009054906101000a900473ffffffffffffffffffffffffffffffffffffffff169150600160ff16600160000160019054906101000a900460ff1660ff1614156119d55760009050611a30565b600360ff16600160000160019054906101000a900460ff1660ff1614156119ff5760029050611a2f565b600560ff16600160000160019054906101000a900460ff1660ff161415611a295760049050611a2e565b600080fd5b5b5b600360009054906101000a900473ffffffffffffffffffffffffffffffffffffffff1673ffffffffffffffffffffffffffffffffffffffff16631d34729783836040518363ffffffff167c0100000000000000000000000000000000000000000000000000000000028152600401808373ffffffffffffffffffffffffffffffffffffffff1673ffffffffffffffffffffffffffffffffffffffff168152602001826004811115611add57fe5b60ff16815260200192505050600060405180830381600087803b1515611b0257600080fd5b6102c65a03f11515611b1357600080fd5b505050611b1f836122ed565b5b828060010193505061193b565b505050565b600080600090505b600a80549050811015611b955760011515600a82815481101515611b5a57fe5b90600052602060002090602091828204019190069054906101000a900460ff161515141515611b8857611c4a565b8080600101915050611b3a565b82611baa816001611e0d90919063ffffffff16565b600092505b600980549050831015611c22576000600a84815481101515611bcd57fe5b90600052602060002090602091828204019190066101000a81548160ff02191690831515021790555042600984815481101515611c0657fe5b9060005260206000209001819055508280600101935050611baf565b80600160000160016101000a81548160ff021916908360ff160217905550611c48611edd565b505b505050565b600080611c5a61183b565b91509150600073ffffffffffffffffffffffffffffffffffffffff168273ffffffffffffffffffffffffffffffffffffffff1614151515611c9a57600080fd5b600015158515151415611d9b57611cb0816122ed565b600360009054906101000a900473ffffffffffffffffffffffffffffffffffffffff1673ffffffffffffffffffffffffffffffffffffffff16631d34729783866040518363ffffffff167c0100000000000000000000000000000000000000000000000000000000028152600401808373ffffffffffffffffffffffffffffffffffffffff1673ffffffffffffffffffffffffffffffffffffffff168152602001826004811115611d5d57fe5b60ff16815260200192505050600060405180830381600087803b1515611d8257600080fd5b6102c65a03f11515611d9357600080fd5b505050611e06565b6001600a82815481101515611dac57fe5b90600052602060002090602091828204019190066101000a81548160ff02191690831515021790555042600982815481101515611de557fe5b906000526020600020900181905550611dfc6118c4565b611e0583611b32565b5b5050505050565b600080600060ff8560000160019054906101000a900460ff1660ff1614151515611e3357fe5b600092508460010160008660000160019054906101000a900460ff1660ff1660ff1681526020019081526020016000209150600090505b8180549050811015611ec3578360ff168282815481101515611e8857fe5b90600052602060002090602091828204019190069054906101000a900460ff1660ff161415611eb657600192505b8080600101915050611e6a565b60011515831515141515611ed657600080fd5b5050505050565b600260ff16611eea610861565b60ff161415611f2c577f5f64b01e798e22b7b006309d50c085491c227a74e9cf11a922528b0d9a414de460405160405180910390a1611f27612634565b6121ea565b600360ff16611f39610861565b60ff161415611f73577f2d9c6af01e1c3857ef5720b6226a3b900b0db1a5a9430c53d8a35b4fccf2015560405160405180910390a16121e9565b600460ff16611f80610861565b60ff161415611fc2577f75be0ccc76f667c80f1c9ab66fafe78bd732b900403eb3f0da135c085955deca60405160405180910390a1611fbd612634565b6121e8565b600560ff16611fcf610861565b60ff161415612009577f51273f7efcba23797f509c81f07b426c6b9cdbee92a6a40389a405d0152178c960405160405180910390a16121e7565b600660ff16612016610861565b60ff1614156120f9577ff8d8e42e26bfacf74ecaff47cd43fa79d51c74d3a979d58521d12f369ad2bf7b6001604051808215151515815260200191505060405180910390a1600360009054906101000a900473ffffffffffffffffffffffffffffffffffffffff1673ffffffffffffffffffffffffffffffffffffffff1663171317516040518163ffffffff167c0100000000000000000000000000000000000000000000000000000000028152600401600060405180830381600087803b15156120e057600080fd5b6102c65a03f115156120f157600080fd5b5050506121e6565b600760ff16612106610861565b60ff1614156121e5577ff8d8e42e26bfacf74ecaff47cd43fa79d51c74d3a979d58521d12f369ad2bf7b6000604051808215151515815260200191505060405180910390a1600360009054906101000a900473ffffffffffffffffffffffffffffffffffffffff1673ffffffffffffffffffffffffffffffffffffffff1663171317516040518163ffffffff167c0100000000000000000000000000000000000000000000000000000000028152600401600060405180830381600087803b15156121d057600080fd5b6102c65a03f115156121e157600080fd5b5050505b5b5b5b5b5b565b80612201816001611e0d90919063ffffffff16565b80600160000160016101000a81548160ff021916908360ff160217905550612227611edd565b5050565b600080600090505b6007805490508110156122c35760078181548110151561224f57fe5b906000526020600020900160009054906101000a900473ffffffffffffffffffffffffffffffffffffffff1673ffffffffffffffffffffffffffffffffffffffff163373ffffffffffffffffffffffffffffffffffffffff1614156122b6578091506122e7565b8080600101915050612233565b7fffffffffffffffffffffffffffffffffffffffffffffffffffffffffffffffff91505b50919050565b600060036005612309828260016126869092919063ffffffff16565b5b6000600880549050141561232557612320612728565b61262e565b600860016008805490500381548110151561233c57fe5b906000526020600020900160009054906101000a900473ffffffffffffffffffffffffffffffffffffffff1692506001600880549050036008816123809190612a4e565b508273ffffffffffffffffffffffffffffffffffffffff1663ae897c556000604051602001526040518163ffffffff167c0100000000000000000000000000000000000000000000000000000000028152600401602060405180830381600087803b15156123ed57600080fd5b6102c65a03f115156123fe57600080fd5b5050506040518051905060ff168373ffffffffffffffffffffffffffffffffffffffff16630c3f6acf6000604051602001526040518163ffffffff167c0100000000000000000000000000000000000000000000000000000000028152600401602060405180830381600087803b151561247757600080fd5b6102c65a03f1151561248857600080fd5b5050506040518051905060ff161415156124a15761230a565b6000600a858154811015156124b257fe5b90600052602060002090602091828204019190066101000a81548160ff021916908315150217905550426009858154811015156124eb57fe5b9060005260206000209001819055508260078581548110151561250a57fe5b906000526020600020900160006101000a81548173ffffffffffffffffffffffffffffffffffffffff021916908373ffffffffffffffffffffffffffffffffffffffff1602179055508273ffffffffffffffffffffffffffffffffffffffff1663897399ae306040518263ffffffff167c0100000000000000000000000000000000000000000000000000000000028152600401808273ffffffffffffffffffffffffffffffffffffffff1673ffffffffffffffffffffffffffffffffffffffff168152602001915050600060405180830381600087803b15156125ed57600080fd5b6102c65a03f115156125fe57600080fd5b5050507f7e0d09ae7160446fde9323338cdbe3e98cc2d5197108e8a3c5e037265288335d60405160405180910390a15b50505050565b60006008816126439190612a4e565b5060006007816126539190612a4e565b506000600c816126639190612a7a565b506000600a816126739190612aa6565b5060006009816126839190612ae0565b50565b6000612690612b0c565b600080925060408051908101604052808660ff1660ff1681526020018560ff1660ff168152509150600090505b600281101561270d578560000160019054906101000a900460ff1660ff1682826002811015156126e957fe5b602002015160ff161415612700576001925061270d565b80806001019150506126bd565b6001151583151514151561272057600080fd5b505050505050565b6000600160ff16600160000160019054906101000a900460ff1660ff1614806127695750600360ff16600160000160019054906101000a900460ff1660ff16145b8061278c5750600560ff16600160000160019054906101000a900460ff1660ff16145b151561279757600080fd5b600090505b600780549050811015612867576007818154811015156127b857fe5b906000526020600020900160009054906101000a900473ffffffffffffffffffffffffffffffffffffffff1673ffffffffffffffffffffffffffffffffffffffff1663b07c74756040518163ffffffff167c0100000000000000000000000000000000000000000000000000000000028152600401600060405180830381600087803b151561284657600080fd5b6102c65a03f1151561285757600080fd5b505050808060010191505061279c565b600560ff16600160000160019054906101000a900460ff1660ff1614156128975761289260066121ec565b6128a2565b6128a160026121ec565b5b50565b82805482825590600052602060002090810192821561291e579160200282015b8281111561291d5782518260006101000a81548173ffffffffffffffffffffffffffffffffffffffff021916908373ffffffffffffffffffffffffffffffffffffffff160217905550916020019190600101906128c5565b5b50905061292b9190612b36565b5090565b82805482825590600052602060002090810192821561296b579160200282015b8281111561296a57825182559160200191906001019061294f565b5b5090506129789190612b79565b5090565b82805482825590600052602060002090601f01602090048101928215612a115791602002820160005b838211156129e257835183826101000a81548160ff02191690831515021790555092602001926001016020816000010492830192600103026129a5565b8015612a0f5782816101000a81549060ff02191690556001016020816000010492830192600103026129e2565b505b509050612a1e9190612b9e565b5090565b815481835581811511612a4957818360005260206000209182019101612a489190612b79565b5b505050565b815481835581811511612a7557818360005260206000209182019101612a749190612b79565b5b505050565b815481835581811511612aa157818360005260206000209182019101612aa09190612bce565b5b505050565b815481835581811511612adb57601f016020900481601f01602090048360005260206000209182019101612ada9190612b79565b5b505050565b815481835581811511612b0757818360005260206000209182019101612b069190612b79565b5b505050565b60408051908101604052806002905b600060ff16815260200190600190039081612b1b5790505090565b612b7691905b80821115612b7257600081816101000a81549073ffffffffffffffffffffffffffffffffffffffff021916905550600101612b3c565b5090565b90565b612b9b91905b80821115612b97576000816000905550600101612b7f565b5090565b90565b612bcb91905b80821115612bc757600081816101000a81549060ff021916905550600101612ba4565b5090565b90565b612bf791905b80821115612bf35760008181612bea9190612bfa565b50600101612bd4565b5090565b90565b50805460018160011615610100020316600290046000825580601f10612c205750612c3f565b601f016020900490600052602060002090810190612c3e9190612b79565b5b50565b6000600180019050602060405190810160405280600160ff1660ff168152508160008060ff1660ff168152602001908152602001600020906001612c87929190612e05565b506040805190810160405280600260ff1660ff168152602001600360ff1660ff16815250816000600160ff1660ff168152602001908152602001600020906002612cd2929190612eac565b50606060405190810160405280600460ff1660ff168152602001600560ff1660ff168152602001600260ff1660ff16815250816000600360ff1660ff168152602001908152602001600020906003612d2b929190612f53565b506040805190810160405280600760ff1660ff168152602001600660ff1660ff16815250816000600560ff1660ff168152602001908152602001600020906002612d76929190612eac565b50612d816001612da3565b6000600160000160016101000a81548160ff021916908360ff16021790555050565b600015158160000160009054906101000a900460ff161515141515612dc757600080fd5b60018160000160016101000a81548160ff021916908360ff16021790555060018160000160006101000a81548160ff02191690831515021790555050565b82805482825590600052602060002090601f01602090048101928215612e9b5791602002820160005b83821115612e6c57835183826101000a81548160ff021916908360ff1602179055509260200192600101602081600001049283019260010302612e2e565b8015612e995782816101000a81549060ff0219169055600101602081600001049283019260010302612e6c565b505b509050612ea89190612ffa565b5090565b82805482825590600052602060002090601f01602090048101928215612f425791602002820160005b83821115612f1357835183826101000a81548160ff021916908360ff1602179055509260200192600101602081600001049283019260010302612ed5565b8015612f405782816101000a81549060ff0219169055600101602081600001049283019260010302612f13565b505b509050612f4f9190612ffa565b5090565b82805482825590600052602060002090601f01602090048101928215612fe95791602002820160005b83821115612fba57835183826101000a81548160ff021916908360ff1602179055509260200192600101602081600001049283019260010302612f7c565b8015612fe75782816101000a81549060ff0219169055600101602081600001049283019260010302612fba565b505b509050612ff69190612ffa565b5090565b61302791905b8082111561302357600081816101000a81549060ff021916905550600101613000565b5090565b905600a165627a7a723058201bc681c21b583dcde55f0ac22b9a2f89ad971b73113cd31d6e8d962552991b680029",
  "source": "pragma solidity ^0.4.15;\n\nimport 'zeppelin-solidity/contracts/lifecycle/Destructible.sol';\nimport './Kernel.sol';\nimport './Dataset.sol';\nimport './Pandora.sol';\nimport './WorkerNode.sol';\nimport {StateMachineLib as SM} from './libraries/StateMachineLib.sol';\n\n/*\n\n */\n\ncontract CognitiveJob is Destructible /* final */ {\n    /**\n     * ## State Machine implementation\n     */\n\n    using SM for SM.StateMachine;\n\n    // Since `destroyself()` zeroes values of all variables, we need the first state (corresponding to zero)\n    // to indicate that contract had being destroyed\n    uint8 public constant Destroyed = 0xFF;\n\n    // Reserved system state not participating in transition table. Since contract creation all variables are\n    // initialized to zero and contract state will be zero until it will be initialized with some definite state\n    uint8 public constant Uninitialized = 0;\n\n    uint8 public constant GatheringWorkers = 1;\n\n    uint8 public constant InsufficientWorkers = 2;\n\n    uint8 public constant DataValidation = 3;\n\n    uint8 public constant InvalidData = 4;\n\n    uint8 public constant Cognition = 5;\n\n    uint8 public constant PartialResult = 6;\n\n    uint8 public constant Completed = 7;\n\n    SM.StateMachine internal stateMachine;\n\n    function currentState() public constant returns (uint8) {\n        return stateMachine.currentState;\n    }\n\n    modifier transitionToState(\n        uint8 _newState\n    ) {\n        stateMachine.transitionToState(_newState);\n        _;\n        stateMachine.currentState = _newState;\n        _fireStateEvent();\n    }\n\n    modifier requireState(\n        uint8 _requiredState\n    ) {\n        require(stateMachine.currentState == _requiredState);\n        _;\n    }\n\n    modifier requireStates2(\n        uint8 _requiredState1,\n        uint8 _requiredState2\n    ) {\n        stateMachine.requireStates2(_requiredState1, _requiredState2);\n        _;\n    }\n\n    modifier requireActiveStates() {\n        require(stateMachine.currentState == GatheringWorkers ||\n                stateMachine.currentState == DataValidation ||\n                stateMachine.currentState == Cognition);\n        _;\n    }\n\n    function _initStateMachine() private {\n        var transitions = stateMachine.transitionTable;\n        transitions[Uninitialized] = [GatheringWorkers];\n        transitions[GatheringWorkers] = [InsufficientWorkers, DataValidation];\n        transitions[DataValidation] = [InvalidData, Cognition, InsufficientWorkers];\n        transitions[Cognition] = [Completed, PartialResult];\n        stateMachine.initStateMachine();\n        stateMachine.currentState = Uninitialized;\n    }\n\n    function _fireStateEvent() constant private {\n        if (currentState() == InsufficientWorkers) {\n            WorkersNotFound();\n            _cleanStorage();\n        } else if (currentState() == DataValidation) {\n            DataValidationStarted();\n        } else if (currentState() == InvalidData) {\n            DataValidationFailed();\n            _cleanStorage();\n        } else if (currentState() == Cognition) {\n            CognitionStarted();\n        } else if (currentState() == PartialResult) {\n            CognitionCompleted(true);\n            pandora.finishCognitiveJob();\n        } else if (currentState() == Completed) {\n            CognitionCompleted(false);\n            pandora.finishCognitiveJob();\n        }\n    }\n\n    /**\n     * ## Main functionality\n     */\n\n    uint internal constant WORKER_TIMEOUT = 30 minutes;\n\n    Pandora public pandora;\n    Kernel public kernel;\n    Dataset public dataset;\n    uint public batches;\n    WorkerNode[] public activeWorkers;\n    WorkerNode[] public workersPool;\n    uint[] internal responseTimestamps;\n    bool[] internal responseFlags;\n\n    uint8 public progress = 0;\n    bytes[] public ipfsResults;\n\n    event WorkersUpdated();\n\n    event WorkersNotFound();\n    event DataValidationStarted();\n    event DataValidationFailed();\n    event CognitionStarted();\n    event CognitionProgressed(uint8 precent);\n    event CognitionCompleted(bool partialResult);\n\n    function CognitiveJob(\n        Pandora _pandora,\n        Kernel _kernel,\n        Dataset _dataset,\n        WorkerNode[] _workersPool\n    ) {\n        batches = _dataset.batchesCount();\n        require(batches > 0);\n        require(_workersPool.length >= batches);\n        require(_pandora != address(0));\n        require(_kernel != address(0));\n        require(_dataset != address(0));\n\n        pandora = _pandora;\n        kernel = _kernel;\n        dataset = _dataset;\n        workersPool = _workersPool;\n\n        _initStateMachine();\n    }\n\n    modifier onlyPandora() {\n        require(msg.sender == address(pandora));\n        _;\n    }\n\n    modifier onlyActiveWorkers() {\n        var (workerNode,) = _getWorkerFromSender();\n        require(workerNode != WorkerNode(0));\n        require(msg.sender == address(workerNode));\n        require(tx.origin == workerNode.owner());\n        _;\n    }\n\n    modifier checkReadiness() {\n        for (uint256 no = 0; no < responseFlags.length; no++) {\n            if (responseFlags[no] != true) {\n                return;\n            }\n        }\n        _;\n    }\n\n    function _getWorkerIndex(WorkerNode _worker) private constant returns (uint256) {\n        for (uint256 index = 0; index < activeWorkers.length; index++) {\n            if (msg.sender == address(activeWorkers[index])) {\n                return index;\n            }\n        }\n        return uint256(-1);\n    }\n\n    function _getWorkerFromSender() private constant returns (WorkerNode o_workerNode, uint256 o_workerIndex) {\n        o_workerIndex = _getWorkerIndex(WorkerNode(msg.sender));\n        if (o_workerIndex > activeWorkers.length) {\n            return (WorkerNode(0), uint256(-1));\n        }\n        o_workerNode = activeWorkers[o_workerIndex];\n    }\n\n    function _replaceWorker(uint256 workerIndex) private requireStates2(DataValidation, Cognition) {\n        WorkerNode replacementWorker;\n        do {\n            if (workersPool.length == 0) {\n                _insufficientWorkers();\n                return;\n            }\n            replacementWorker = workersPool[workersPool.length - 1];\n            workersPool.length = workersPool.length - 1;\n        } while (replacementWorker.currentState() != replacementWorker.Idle());\n\n        responseFlags[workerIndex] = false; // no response is given from the new worker yet\n        responseTimestamps[workerIndex] = block.timestamp;\n        activeWorkers[workerIndex] = replacementWorker;\n        replacementWorker.assignJob(this);\n        WorkersUpdated();\n    }\n\n    function _insufficientWorkers() private requireActiveStates {\n        for (uint no = 0; no < activeWorkers.length; no++) {\n            activeWorkers[no].cancelJob();\n        }\n\n        if (stateMachine.currentState == Cognition) {\n            _transitionToState(PartialResult);\n        } else {\n            _transitionToState(InsufficientWorkers);\n        }\n    }\n\n    function _cleanStorage() private {\n        workersPool.length = 0;\n        activeWorkers.length = 0;\n        ipfsResults.length = 0;\n        responseFlags.length = 0;\n        responseTimestamps.length = 0;\n    }\n\n    function _trackOfflineWorkers() private requireActiveStates {\n        for (uint256 no = 0; no < responseTimestamps.length; no++) {\n            if (block.timestamp - responseTimestamps[no] > WORKER_TIMEOUT) {\n                WorkerNode guiltyWorker = activeWorkers[no];\n                Pandora.WorkersPenalties penalty;\n                if (stateMachine.currentState == GatheringWorkers) {\n                    penalty = Pandora.WorkersPenalties.OfflineWhileGathering;\n                } else if (stateMachine.currentState == DataValidation) {\n                    penalty = Pandora.WorkersPenalties.OfflineWhileDataValidation;\n                } else if (stateMachine.currentState == Cognition) {\n                    penalty = Pandora.WorkersPenalties.OfflineWhileCognition;\n                } else {\n                   revert(); // This should not happen due to requireActiveStates function modifier\n                }\n                pandora.penaltizeWorker(guiltyWorker, penalty);\n                _replaceWorker(no);\n            }\n        }\n    }\n\n    function _transitionToState(uint8 _newState) private transitionToState(_newState) {\n        // All actual work is performed by function modifier transitionToState\n    }\n\n    function _transitionIfReady(uint8 _newState) private checkReadiness transitionToState(_newState) {\n        for (uint256 no = 0; no < responseTimestamps.length; no++) {\n            responseFlags[no] = false;  // no response or update is given yet\n            responseTimestamps[no] = block.timestamp;\n        }\n    }\n\n    function _processWorkerResponse(bool _acceptanceFlag, Pandora.WorkersPenalties _penaltyForDecline, uint8 _nextState) private {\n        var (reportingWorker, workerIndex) = _getWorkerFromSender();\n        require(reportingWorker != WorkerNode(0));\n\n        if (_acceptanceFlag == false) {\n            _replaceWorker(workerIndex);\n            pandora.penaltizeWorker(reportingWorker, _penaltyForDecline);\n        } else {\n            responseFlags[workerIndex] = true;\n            responseTimestamps[workerIndex] = block.timestamp;\n            _trackOfflineWorkers();\n            _transitionIfReady(_nextState);\n        }\n    }\n\n    function initialize() external onlyPandora requireState(Uninitialized) transitionToState(GatheringWorkers) {\n        // Select initial worker\n        activeWorkers = new WorkerNode[](batches);\n        responseTimestamps = new uint[](batches);\n        responseFlags = new bool[](batches);\n        /// @fixme ipfsResults = new bytes[](batches);\n        for (uint8 batch = 0; batch < batches; batch++) {\n            responseFlags[batch] = false; // no response is given yet\n            responseTimestamps[batch] = block.timestamp;\n            activeWorkers[batch] = workersPool[batch];\n            activeWorkers[batch].assignJob(this);\n        }\n        for (uint16 pool = batch; pool < workersPool.length; pool++) {\n            workersPool.push(workersPool[pool]);\n        }\n\n        WorkersUpdated();\n    }\n\n    /// @dev Main entry point for\n    /// (Witnessing worker nodes went offline)[https://github.com/pandoraboxchain/techspecs/wiki/Witnessing-worker-nodes-going-offline]\n    /// workflow\n    function reportOfflineWorker(WorkerNode _reportedWorker) payable external requireActiveStates {\n        /// @todo accept deposit\n        uint256 reportedIndex = _getWorkerIndex(_reportedWorker);\n        if (block.timestamp - responseTimestamps[reportedIndex] > WORKER_TIMEOUT) {\n            /// @todo pay reward and return deposit\n        }\n        _trackOfflineWorkers();\n    }\n\n    function gatheringWorkersResponse(bool _acceptanceFlag) external onlyActiveWorkers requireState(GatheringWorkers) {\n        _processWorkerResponse(_acceptanceFlag, Pandora.WorkersPenalties.OfflineWhileGathering, DataValidation);\n    }\n\n    enum DataValidationResponse {\n        Accept, Decline, Invalid\n    }\n    function dataValidationResponse(DataValidationResponse _response) onlyActiveWorkers external {\n        /// @todo implement full (data arbitration alorithm)[https://github.com/pandoraboxchain/techspecs/wiki/Data-inconsistency-arbitration]\n        if (_response == DataValidationResponse.Invalid) {\n            _transitionToState(InvalidData);\n            return;\n        }\n        _processWorkerResponse(_response == DataValidationResponse.Accept, Pandora.WorkersPenalties.DeclinesJob, Cognition);\n    }\n\n    function commitProgress(uint8 percent) onlyActiveWorkers external {\n        /// @todo Implement tracking progress of cognitive work\n        //CognitionProgressed(percent);\n    }\n\n    function completeWork(bytes _ipfsResults) onlyActiveWorkers external {\n        var (reportingWorker, workerIndex) = _getWorkerFromSender();\n        /// @fixme ipfsResults[workerIndex] = _ipfsResults;\n        responseFlags[workerIndex] = true;\n        responseTimestamps[workerIndex] = block.timestamp;\n        _trackOfflineWorkers();\n        _transitionIfReady(Completed);\n    }\n\n    function activeWorkersCount() constant external returns(uint256) {\n        return activeWorkers.length;\n    }\n\n    function workerDidCompute(uint no) constant external returns(bool) {\n        return responseFlags[no] == true;\n    }\n}\n",
  "sourcePath": "/Users/orlovsky/Repositories/pandora/neuroether/contracts/CognitiveJob.sol",
  "compiler": {
    "name": "solc",
    "version": "0.4.18+commit.9cf6e910.Emscripten.clang"
  },
  "schemaVersion": "1.0.1",
  "updatedAt": "2017-12-11T13:57:57.731Z"
}