{
  "contractName": "CognitiveJobManager",
  "abi": [
    {
      "constant": true,
      "inputs": [
        {
          "name": "_job",
          "type": "address"
        }
      ],
      "name": "isActiveJob",
      "outputs": [
        {
          "name": "",
          "type": "bool"
        }
      ],
      "payable": false,
      "stateMutability": "view",
      "type": "function"
    },
    {
      "constant": true,
      "inputs": [],
      "name": "workerNodesCount",
      "outputs": [
        {
          "name": "",
          "type": "uint256"
        }
      ],
      "payable": false,
      "stateMutability": "view",
      "type": "function"
    },
    {
      "constant": true,
      "inputs": [],
      "name": "initialized",
      "outputs": [
        {
          "name": "",
          "type": "bool"
        }
      ],
      "payable": false,
      "stateMutability": "view",
      "type": "function"
    },
    {
      "constant": false,
      "inputs": [],
      "name": "finishCognitiveJob",
      "outputs": [],
      "payable": false,
      "stateMutability": "nonpayable",
      "type": "function"
    },
    {
      "constant": true,
      "inputs": [
        {
          "name": "",
          "type": "uint256"
        }
      ],
      "name": "workerNodes",
      "outputs": [
        {
          "name": "",
          "type": "address"
        }
      ],
      "payable": false,
      "stateMutability": "view",
      "type": "function"
    },
    {
      "constant": true,
      "inputs": [
        {
          "name": "",
          "type": "uint256"
        }
      ],
      "name": "activeJobs",
      "outputs": [
        {
          "name": "",
          "type": "address"
        }
      ],
      "payable": false,
      "stateMutability": "view",
      "type": "function"
    },
    {
      "constant": true,
      "inputs": [],
      "name": "cognitiveJobFactory",
      "outputs": [
        {
          "name": "",
          "type": "address"
        }
      ],
      "payable": false,
      "stateMutability": "view",
      "type": "function"
    },
    {
      "constant": true,
      "inputs": [],
      "name": "activeJobsCount",
      "outputs": [
        {
          "name": "",
          "type": "uint256"
        }
      ],
      "payable": false,
      "stateMutability": "view",
      "type": "function"
    },
    {
      "constant": true,
      "inputs": [
        {
          "name": "",
          "type": "address"
        }
      ],
      "name": "jobAddresses",
      "outputs": [
        {
          "name": "",
          "type": "uint16"
        }
      ],
      "payable": false,
      "stateMutability": "view",
      "type": "function"
    },
    {
      "constant": false,
      "inputs": [
        {
          "name": "_guiltyWorker",
          "type": "address"
        },
        {
          "name": "_reason",
          "type": "uint8"
        }
      ],
      "name": "penaltizeWorkerNode",
      "outputs": [],
      "payable": false,
      "stateMutability": "nonpayable",
      "type": "function"
    },
    {
      "constant": false,
      "inputs": [],
      "name": "initialize",
      "outputs": [],
      "payable": false,
      "stateMutability": "nonpayable",
      "type": "function"
    },
    {
      "constant": false,
      "inputs": [],
      "name": "createWorkerNode",
      "outputs": [
        {
          "name": "",
          "type": "address"
        }
      ],
      "payable": false,
      "stateMutability": "nonpayable",
      "type": "function"
    },
    {
      "constant": false,
      "inputs": [
        {
          "name": "_workerNode",
          "type": "address"
        }
      ],
      "name": "destroyWorkerNode",
      "outputs": [],
      "payable": false,
      "stateMutability": "nonpayable",
      "type": "function"
    },
    {
      "constant": false,
      "inputs": [
        {
          "name": "kernel",
          "type": "address"
        },
        {
          "name": "dataset",
          "type": "address"
        }
      ],
      "name": "createCognitiveJob",
      "outputs": [
        {
          "name": "o_cognitiveJob",
          "type": "address"
        }
      ],
      "payable": true,
      "stateMutability": "payable",
      "type": "function"
    },
    {
      "constant": true,
      "inputs": [],
      "name": "workerNodeFactory",
      "outputs": [
        {
          "name": "",
          "type": "address"
        }
      ],
      "payable": false,
      "stateMutability": "view",
      "type": "function"
    },
    {
      "constant": true,
      "inputs": [
        {
          "name": "",
          "type": "address"
        }
      ],
      "name": "workerAddresses",
      "outputs": [
        {
          "name": "",
          "type": "uint16"
        }
      ],
      "payable": false,
      "stateMutability": "view",
      "type": "function"
    },
    {
      "inputs": [
        {
          "name": "_jobFactory",
          "type": "address"
        },
        {
          "name": "_nodeFactory",
          "type": "address"
        },
        {
          "name": "_workerNodeOwners",
          "type": "address[3]"
        }
      ],
      "payable": false,
      "stateMutability": "nonpayable",
      "type": "constructor"
    },
    {
      "anonymous": false,
      "inputs": [
        {
          "indexed": false,
          "name": "cognitiveJob",
          "type": "address"
        }
      ],
      "name": "CognitiveJobCreated",
      "type": "event"
    },
    {
      "anonymous": false,
      "inputs": [
        {
          "indexed": false,
          "name": "workerNode",
          "type": "address"
        }
      ],
      "name": "WorkerNodeCreated",
      "type": "event"
    },
    {
      "anonymous": false,
      "inputs": [
        {
          "indexed": false,
          "name": "workerNode",
          "type": "address"
        }
      ],
      "name": "WorkerNodeDestroyed",
      "type": "event"
    }
  ],
  "bytecode": "0x606060405260008060006101000a81548160ff02191690831515021790555034156200002a57600080fd5b60405160a0806200266d833981016040528080519060200190919080519060200190915081816000806000806101000a81548160ff021916908315150217905550600360ff1660031415156200007c57fe5b600073ffffffffffffffffffffffffffffffffffffffff168373ffffffffffffffffffffffffffffffffffffffff1614151515620000b957600080fd5b82600660006101000a81548173ffffffffffffffffffffffffffffffffffffffff021916908373ffffffffffffffffffffffffffffffffffffffff160217905550600090505b60038160ff16108015620001195750600360ff168160ff16105b15620001fb57600073ffffffffffffffffffffffffffffffffffffffff16828260ff166003811015156200014957fe5b602002015173ffffffffffffffffffffffffffffffffffffffff16141515156200017257600080fd5b60098054806001018281620001889190620002e6565b91600052602060002090016000848460ff16600381101515620001a757fe5b6020020151909190916101000a81548173ffffffffffffffffffffffffffffffffffffffff021916908373ffffffffffffffffffffffffffffffffffffffff160217905550508080600101915050620000ff565b505050600073ffffffffffffffffffffffffffffffffffffffff168373ffffffffffffffffffffffffffffffffffffffff16141515156200023b57600080fd5b82600a60006101000a81548173ffffffffffffffffffffffffffffffffffffffff021916908373ffffffffffffffffffffffffffffffffffffffff1602179055506200028662000315565b604051809103906000f08015156200029d57600080fd5b600d60006101000a81548173ffffffffffffffffffffffffffffffffffffffff021916908373ffffffffffffffffffffffffffffffffffffffff1602179055505050506200034d565b81548183558181151162000310578183600052602060002091820191016200030f919062000325565b5b505050565b60405160f7806200257683390190565b6200034a91905b80821115620003465760008160009055506001016200032c565b5090565b90565b612219806200035d6000396000f3006060604052600436106100e6576000357c0100000000000000000000000000000000000000000000000000000000900463ffffffff1680630ba58574146100eb5780630e3b581f1461013c578063158ef93e1461016557806317131751146101925780631dc20af4146101a757806321b0908b1461020a57806336bad8281461026d5780635c2b37fa146102c25780635ecc2e44146102eb5780635ef17776146103405780638129fc1c1461038557806386b073321461039a578063ae1092ae146103ef578063f9bb6cfe14610428578063f9d84ade146104b5578063fdb5b8d41461050a575b600080fd5b34156100f657600080fd5b610122600480803573ffffffffffffffffffffffffffffffffffffffff1690602001909190505061055f565b604051808215151515815260200191505060405180910390f35b341561014757600080fd5b61014f61066e565b6040518082815260200191505060405180910390f35b341561017057600080fd5b61017861069c565b604051808215151515815260200191505060405180910390f35b341561019d57600080fd5b6101a56106ae565b005b34156101b257600080fd5b6101c86004808035906020019091905050610b6d565b604051808273ffffffffffffffffffffffffffffffffffffffff1673ffffffffffffffffffffffffffffffffffffffff16815260200191505060405180910390f35b341561021557600080fd5b61022b6004808035906020019091905050610bac565b604051808273ffffffffffffffffffffffffffffffffffffffff1673ffffffffffffffffffffffffffffffffffffffff16815260200191505060405180910390f35b341561027857600080fd5b610280610beb565b604051808273ffffffffffffffffffffffffffffffffffffffff1673ffffffffffffffffffffffffffffffffffffffff16815260200191505060405180910390f35b34156102cd57600080fd5b6102d5610c11565b6040518082815260200191505060405180910390f35b34156102f657600080fd5b610322600480803573ffffffffffffffffffffffffffffffffffffffff16906020019091905050610c3f565b604051808261ffff1661ffff16815260200191505060405180910390f35b341561034b57600080fd5b610383600480803573ffffffffffffffffffffffffffffffffffffffff1690602001909190803560ff16906020019091905050610c60565b005b341561039057600080fd5b610398610c85565b005b34156103a557600080fd5b6103ad610ca1565b604051808273ffffffffffffffffffffffffffffffffffffffff1673ffffffffffffffffffffffffffffffffffffffff16815260200191505060405180910390f35b34156103fa57600080fd5b610426600480803573ffffffffffffffffffffffffffffffffffffffff16906020019091905050611060565b005b610473600480803573ffffffffffffffffffffffffffffffffffffffff1690602001909190803573ffffffffffffffffffffffffffffffffffffffff16906020019091905050611567565b604051808273ffffffffffffffffffffffffffffffffffffffff1673ffffffffffffffffffffffffffffffffffffffff16815260200191505060405180910390f35b34156104c057600080fd5b6104c86120bd565b604051808273ffffffffffffffffffffffffffffffffffffffff1673ffffffffffffffffffffffffffffffffffffffff16815260200191505060405180910390f35b341561051557600080fd5b610541600480803573ffffffffffffffffffffffffffffffffffffffff169060200190919050506120e3565b604051808261ffff1661ffff16815260200191505060405180910390f35b6000806000600115156000809054906101000a900460ff16151514151561058557600080fd5b600b60008573ffffffffffffffffffffffffffffffffffffffff1673ffffffffffffffffffffffffffffffffffffffff16815260200190815260200160002060009054906101000a900461ffff16915060008261ffff1614156105eb5760009250610667565b818060019003925050600c8261ffff1681548110151561060757fe5b906000526020600020900160009054906101000a900473ffffffffffffffffffffffffffffffffffffffff1690508373ffffffffffffffffffffffffffffffffffffffff168173ffffffffffffffffffffffffffffffffffffffff161492505b5050919050565b6000600115156000809054906101000a900460ff16151514151561069157600080fd5b600780549050905090565b6000809054906101000a900460ff1681565b600080600080600115156000809054906101000a900460ff1615151415156106d557600080fd5b600b60003373ffffffffffffffffffffffffffffffffffffffff1673ffffffffffffffffffffffffffffffffffffffff16815260200190815260200160002060009054906101000a900461ffff16935060008461ffff161415151561073957600080fd5b838060019003945050600c8461ffff1681548110151561075557fe5b906000526020600020900160009054906101000a900473ffffffffffffffffffffffffffffffffffffffff1692503373ffffffffffffffffffffffffffffffffffffffff168373ffffffffffffffffffffffffffffffffffffffff161415156107bd57600080fd5b600091505b8273ffffffffffffffffffffffffffffffffffffffff16634804b4ba6000604051602001526040518163ffffffff167c0100000000000000000000000000000000000000000000000000000000028152600401602060405180830381600087803b151561082e57600080fd5b6102c65a03f1151561083f57600080fd5b50505060405180519050821015610a0457600115158373ffffffffffffffffffffffffffffffffffffffff1663d6ccdca3846000604051602001526040518263ffffffff167c010000000000000000000000000000000000000000000000000000000002815260040180828152602001915050602060405180830381600087803b15156108cb57600080fd5b6102c65a03f115156108dc57600080fd5b50505060405180519050151514156109f7578273ffffffffffffffffffffffffffffffffffffffff166358909400836000604051602001526040518263ffffffff167c010000000000000000000000000000000000000000000000000000000002815260040180828152602001915050602060405180830381600087803b151561096557600080fd5b6102c65a03f1151561097657600080fd5b5050506040518051905073ffffffffffffffffffffffffffffffffffffffff1663e5469d9f6040518163ffffffff167c0100000000000000000000000000000000000000000000000000000000028152600401600060405180830381600087803b15156109e257600080fd5b6102c65a03f115156109f357600080fd5b5050505b81806001019250506107c2565b600b60008473ffffffffffffffffffffffffffffffffffffffff1673ffffffffffffffffffffffffffffffffffffffff16815260200190815260200160002060006101000a81549061ffff0219169055600c6001600c8054905003815481101515610a6b57fe5b906000526020600020900160009054906101000a900473ffffffffffffffffffffffffffffffffffffffff16600c8561ffff16815481101515610aaa57fe5b906000526020600020900160006101000a81548173ffffffffffffffffffffffffffffffffffffffff021916908373ffffffffffffffffffffffffffffffffffffffff1602179055905060018401600b60008373ffffffffffffffffffffffffffffffffffffffff1673ffffffffffffffffffffffffffffffffffffffff16815260200190815260200160002060006101000a81548161ffff021916908361ffff160217905550600c805480919060019003610b669190612104565b5050505050565b600781815481101515610b7c57fe5b90600052602060002090016000915054906101000a900473ffffffffffffffffffffffffffffffffffffffff1681565b600c81815481101515610bbb57fe5b90600052602060002090016000915054906101000a900473ffffffffffffffffffffffffffffffffffffffff1681565b600a60009054906101000a900473ffffffffffffffffffffffffffffffffffffffff1681565b6000600115156000809054906101000a900460ff161515141515610c3457600080fd5b600c80549050905090565b600b6020528060005260406000206000915054906101000a900461ffff1681565b600115156000809054906101000a900460ff161515141515610c8157600080fd5b5050565b60016000806101000a81548160ff021916908315150217905550565b6000806000600115156000809054906101000a900460ff161515141515610cc757600080fd5b60008060009150600090505b6009805490508160ff16108015610cf05750600360ff168160ff16105b1561104d57600073ffffffffffffffffffffffffffffffffffffffff1660098260ff16815481101515610d1f57fe5b906000526020600020900160009054906101000a900473ffffffffffffffffffffffffffffffffffffffff1673ffffffffffffffffffffffffffffffffffffffff1614158015610dd7575060098160ff16815481101515610d7c57fe5b906000526020600020900160009054906101000a900473ffffffffffffffffffffffffffffffffffffffff1673ffffffffffffffffffffffffffffffffffffffff163373ffffffffffffffffffffffffffffffffffffffff16145b1561104057600191503393503273ffffffffffffffffffffffffffffffffffffffff163373ffffffffffffffffffffffffffffffffffffffff16141515610e1d57600080fd5b600d600780549050101515610e3157600080fd5b600660009054906101000a900473ffffffffffffffffffffffffffffffffffffffff1673ffffffffffffffffffffffffffffffffffffffff16639ed93318856000604051602001526040518263ffffffff167c0100000000000000000000000000000000000000000000000000000000028152600401808273ffffffffffffffffffffffffffffffffffffffff1673ffffffffffffffffffffffffffffffffffffffff168152602001915050602060405180830381600087803b1515610ef657600080fd5b6102c65a03f11515610f0757600080fd5b50505060405180519050925060078054806001018281610f279190612130565b9160005260206000209001600085909190916101000a81548173ffffffffffffffffffffffffffffffffffffffff021916908373ffffffffffffffffffffffffffffffffffffffff16021790555050600780549050600860008573ffffffffffffffffffffffffffffffffffffffff1673ffffffffffffffffffffffffffffffffffffffff16815260200190815260200160002060006101000a81548161ffff021916908361ffff1602179055507f093794466f44429afc8d8ec2c4c7f42c98d5db9b3db965ce46a31e7d4f7c29c883604051808273ffffffffffffffffffffffffffffffffffffffff1673ffffffffffffffffffffffffffffffffffffffff16815260200191505060405180910390a182945061104d565b8080600101915050610cd3565b81151561105957600080fd5b5050505090565b60008060008360003390508173ffffffffffffffffffffffffffffffffffffffff16638da5cb5b6000604051602001526040518163ffffffff167c0100000000000000000000000000000000000000000000000000000000028152600401602060405180830381600087803b15156110d757600080fd5b6102c65a03f115156110e857600080fd5b5050506040518051905073ffffffffffffffffffffffffffffffffffffffff168173ffffffffffffffffffffffffffffffffffffffff1614151561112b57600080fd5b6000600860008373ffffffffffffffffffffffffffffffffffffffff1673ffffffffffffffffffffffffffffffffffffffff16815260200190815260200160002060009054906101000a900461ffff1661ffff1611151561118b57600080fd5b600115156000809054906101000a900460ff1615151415156111ac57600080fd5b3394508573ffffffffffffffffffffffffffffffffffffffff1663ae897c556000604051602001526040518163ffffffff167c0100000000000000000000000000000000000000000000000000000000028152600401602060405180830381600087803b151561121b57600080fd5b6102c65a03f1151561122c57600080fd5b5050506040518051905060ff168673ffffffffffffffffffffffffffffffffffffffff16630c3f6acf6000604051602001526040518163ffffffff167c0100000000000000000000000000000000000000000000000000000000028152600401602060405180830381600087803b15156112a557600080fd5b6102c65a03f115156112b657600080fd5b5050506040518051905060ff161415156112cf57600080fd5b8573ffffffffffffffffffffffffffffffffffffffff166383197ef06040518163ffffffff167c0100000000000000000000000000000000000000000000000000000000028152600401600060405180830381600087803b151561133257600080fd5b6102c65a03f1151561134357600080fd5b5050506001600860008773ffffffffffffffffffffffffffffffffffffffff1673ffffffffffffffffffffffffffffffffffffffff16815260200190815260200160002060009054906101000a900461ffff16039350600860008673ffffffffffffffffffffffffffffffffffffffff1673ffffffffffffffffffffffffffffffffffffffff16815260200190815260200160002060006101000a81549061ffff0219169055600760016007805490500381548110151561140057fe5b906000526020600020900160009054906101000a900473ffffffffffffffffffffffffffffffffffffffff1660078561ffff1681548110151561143f57fe5b906000526020600020900160006101000a81548173ffffffffffffffffffffffffffffffffffffffff021916908373ffffffffffffffffffffffffffffffffffffffff1602179055925060018401600860008573ffffffffffffffffffffffffffffffffffffffff1673ffffffffffffffffffffffffffffffffffffffff16815260200190815260200160002060006101000a81548161ffff021916908361ffff16021790555060078054809190600190036114fb919061215c565b507f677f03e392472a48b617167ed4dbec758d26d8517257ec077bed2d27d192816486604051808273ffffffffffffffffffffffffffffffffffffffff1673ffffffffffffffffffffffffffffffffffffffff16815260200191505060405180910390a1505050505050565b6000806000611574612188565b600080600080611582612188565b600115156000809054906101000a900460ff1615151415156115a357600080fd5b8973ffffffffffffffffffffffffffffffffffffffff1663b1f8d9ba6000604051602001526040518163ffffffff167c0100000000000000000000000000000000000000000000000000000000028152600401602060405180830381600087803b151561160f57600080fd5b6102c65a03f1151561162057600080fd5b505050604051805190508b73ffffffffffffffffffffffffffffffffffffffff1663b1f8d9ba6000604051602001526040518163ffffffff167c0100000000000000000000000000000000000000000000000000000000028152600401602060405180830381600087803b151561169657600080fd5b6102c65a03f115156116a757600080fd5b505050604051805190501415156116bd57600080fd5b600d600c805490501015156116d157600080fd5b60009750600096505b60078054905087101561188b576007878154811015156116f657fe5b906000526020600020900160009054906101000a900473ffffffffffffffffffffffffffffffffffffffff1673ffffffffffffffffffffffffffffffffffffffff1663ae897c556000604051602001526040518163ffffffff167c0100000000000000000000000000000000000000000000000000000000028152600401602060405180830381600087803b151561178d57600080fd5b6102c65a03f1151561179e57600080fd5b5050506040518051905060ff166007888154811015156117ba57fe5b906000526020600020900160009054906101000a900473ffffffffffffffffffffffffffffffffffffffff1673ffffffffffffffffffffffffffffffffffffffff16630c3f6acf6000604051602001526040518163ffffffff167c0100000000000000000000000000000000000000000000000000000000028152600401602060405180830381600087803b151561185157600080fd5b6102c65a03f1151561186257600080fd5b5050506040518051905060ff16141561187e5787806001019850505b86806001019750506116da565b60008811151561189757fe5b876040518059106118a55750595b9080825280602002602001820160405250955060009450600096505b600780549050871015611af5576007878154811015156118dd57fe5b906000526020600020900160009054906101000a900473ffffffffffffffffffffffffffffffffffffffff1673ffffffffffffffffffffffffffffffffffffffff1663ae897c556000604051602001526040518163ffffffff167c0100000000000000000000000000000000000000000000000000000000028152600401602060405180830381600087803b151561197457600080fd5b6102c65a03f1151561198557600080fd5b5050506040518051905060ff166007888154811015156119a157fe5b906000526020600020900160009054906101000a900473ffffffffffffffffffffffffffffffffffffffff1673ffffffffffffffffffffffffffffffffffffffff16630c3f6acf6000604051602001526040518163ffffffff167c0100000000000000000000000000000000000000000000000000000000028152600401602060405180830381600087803b1515611a3857600080fd5b6102c65a03f11515611a4957600080fd5b5050506040518051905060ff161415611ae857600787815481101515611a6b57fe5b906000526020600020900160009054906101000a900473ffffffffffffffffffffffffffffffffffffffff168686806001019750815181101515611aab57fe5b9060200190602002019073ffffffffffffffffffffffffffffffffffffffff16908173ffffffffffffffffffffffffffffffffffffffff16815250505b86806001019750506118c1565b8785141515611b0057fe5b600093505b600a60ff1684101515611b1457fe5b600d60009054906101000a900473ffffffffffffffffffffffffffffffffffffffff1673ffffffffffffffffffffffffffffffffffffffff1663cd4b691487516000604051602001526040518263ffffffff167c010000000000000000000000000000000000000000000000000000000002815260040180828152602001915050602060405180830381600087803b1515611bae57600080fd5b6102c65a03f11515611bbf57600080fd5b5050506040518051905092508583815181101515611bd957fe5b90602001906020020151915083806001019450508173ffffffffffffffffffffffffffffffffffffffff1663ae897c556000604051602001526040518163ffffffff167c0100000000000000000000000000000000000000000000000000000000028152600401602060405180830381600087803b1515611c5957600080fd5b6102c65a03f11515611c6a57600080fd5b5050506040518051905060ff168273ffffffffffffffffffffffffffffffffffffffff16630c3f6acf6000604051602001526040518163ffffffff167c0100000000000000000000000000000000000000000000000000000000028152600401602060405180830381600087803b1515611ce357600080fd5b6102c65a03f11515611cf457600080fd5b5050506040518051905060ff16141515611d0d57611b05565b6001604051805910611d1c5750595b9080825280602002602001820160405250905081816000815181101515611d3f57fe5b9060200190602002019073ffffffffffffffffffffffffffffffffffffffff16908173ffffffffffffffffffffffffffffffffffffffff1681525050600a60009054906101000a900473ffffffffffffffffffffffffffffffffffffffff1673ffffffffffffffffffffffffffffffffffffffff16631c695d2b8c8c846000604051602001526040518463ffffffff167c0100000000000000000000000000000000000000000000000000000000028152600401808473ffffffffffffffffffffffffffffffffffffffff1673ffffffffffffffffffffffffffffffffffffffff1681526020018373ffffffffffffffffffffffffffffffffffffffff1673ffffffffffffffffffffffffffffffffffffffff16815260200180602001828103825283818151815260200191508051906020019060200280838360005b83811015611e97578082015181840152602081019050611e7c565b50505050905001945050505050602060405180830381600087803b1515611ebd57600080fd5b6102c65a03f11515611ece57600080fd5b505050604051805190509850600073ffffffffffffffffffffffffffffffffffffffff168973ffffffffffffffffffffffffffffffffffffffff1614151515611f1357fe5b600c8054806001018281611f27919061219c565b916000526020600020900160008b909190916101000a81548173ffffffffffffffffffffffffffffffffffffffff021916908373ffffffffffffffffffffffffffffffffffffffff16021790555050600c80549050600b60008b73ffffffffffffffffffffffffffffffffffffffff1673ffffffffffffffffffffffffffffffffffffffff16815260200190815260200160002060006101000a81548161ffff021916908361ffff1602179055507f641cfdf635dc3bb17e2aaf274165f56b16b64cd79e5ffa2f46c9a224f71ad93189604051808273ffffffffffffffffffffffffffffffffffffffff1673ffffffffffffffffffffffffffffffffffffffff16815260200191505060405180910390a18873ffffffffffffffffffffffffffffffffffffffff16638129fc1c6040518163ffffffff167c0100000000000000000000000000000000000000000000000000000000028152600401600060405180830381600087803b151561209b57600080fd5b6102c65a03f115156120ac57600080fd5b505050505050505050505092915050565b600660009054906101000a900473ffffffffffffffffffffffffffffffffffffffff1681565b60086020528060005260406000206000915054906101000a900461ffff1681565b81548183558181151161212b5781836000526020600020918201910161212a91906121c8565b5b505050565b8154818355818115116121575781836000526020600020918201910161215691906121c8565b5b505050565b8154818355818115116121835781836000526020600020918201910161218291906121c8565b5b505050565b602060405190810160405280600081525090565b8154818355818115116121c3578183600052602060002091820191016121c291906121c8565b5b505050565b6121ea91905b808211156121e65760008160009055506001016121ce565b5090565b905600a165627a7a72305820d705f1df97275398407e8f7cd8f3e004f66f9074e56ebdcbc669129d0f51e33a00296060604052341561000f57600080fd5b6000808190555060d3806100246000396000f300606060405260043610603f576000357c0100000000000000000000000000000000000000000000000000000000900463ffffffff168063cd4b6914146044575b600080fd5b3415604e57600080fd5b606260048080359060200190919050506078565b6040518082815260200191505060405180910390f35b600081600054101515608c57600080819055505b600054905060008081548092919060010191905055509190505600a165627a7a723058202abc6b8c4d3dc5d385b2c9f9397954c6096c7b2489b067d0388320fe64f394f00029",
  "source": "pragma solidity ^0.4.18;\n\nimport '../../lifecycle/Initializable.sol';\nimport '../lottery/RoundRobinLottery.sol';\nimport './ICognitiveJobManager.sol';\nimport './WorkerNodeManager.sol';\n\n/**\n * @title Pandora Smart Contract\n * @author \"Dr Maxim Orlovsky\" <orlovsky@pandora.foundation>\n *\n * @dev # Pandora Smart Contract\n *\n * Main & root contract implementing the first level of Pandora Boxchain consensus\n * See section [\"3.3. Proof of Cognitive Work (PoCW)\" in Pandora white paper](https://steemit.com/cryptocurrency/%40pandoraboxchain/world-decentralized-ai-on-blockchain-with-cognitive-mining-and-open-markets-for-data-and-algorithms-pandora-boxchain)\n * for more details.\n *\n * Contract token functionality is separated into a separate contract named PAN (after the name of the token)\n * and Pandora contracts just simply inherits PAN contract.\n */\n\ncontract CognitiveJobManager is Initializable, ICognitiveJobManager, WorkerNodeManager {\n\n    /*******************************************************************************************************************\n     * ## Storage\n     */\n\n    /// ### Public variables\n\n    /// @notice Reference to a factory used in creating CognitiveJob contracts\n    /// @dev Factories are used to reduce gas consumption by the main Pandora contract. Since Pandora needs to control\n    /// the code used to deploy Cognitive Jobs and Worker Nodes, it must embed all the byte code for the smart contract.\n    /// However this dramatically increases gas consumption for deploying Pandora contract itself. Thus, the\n    /// CognitiveJob smart contract is deployed by a special factory class `CognitiveJobFactory`, and a special workflow\n    /// is used to ensure uniqueness of the factories and the fact that their code source is coming from the same\n    /// address which have deployed the main Pandora contract. In particular, because of this Pandora is defined as an\n    /// `Ownable` contract and a special `initialize` function and `properlyInitialized` member variable is added.\n    CognitiveJobFactory public cognitiveJobFactory;\n\n    /// @dev Indexes (+1) of active (=running) cognitive jobs in `activeJobs` mapped from their creators\n    /// (owners of the corresponding cognitive job contracts). Zero values corresponds to no active job,\n    /// one  to the one with index 0 and so forth.\n    mapping(address => uint16) public jobAddresses;\n\n    /// @dev List of all active cognitive jobs\n    IComputingJob[] public activeJobs;\n\n    /// @dev Returns total count of active jobs\n    function activeJobsCount() onlyInitialized view public returns (uint256) {\n        return activeJobs.length;\n    }\n\n    /// ### Private and internal variables\n\n    /// @dev Limit for the amount of lottery cycles before reporting failure to start cognitive job.\n    /// Used in `createCognitiveJob`\n    uint8 constant private MAX_WORKER_LOTTERY_TRIES = 10;\n\n    /// @dev Contract implementing lottery interface for workers selection. Only internal usage\n    /// by `createCognitiveJob` function\n    ILotteryEngine internal workerLotteryEngine;\n\n    /*******************************************************************************************************************\n     * ## Events\n     */\n\n    /// @dev Event firing when a new cognitive job created\n    event CognitiveJobCreated(IComputingJob cognitiveJob);\n\n\n    /*******************************************************************************************************************\n     * ## Constructor and initialization\n     */\n\n    /// ### Constructor\n    /// @dev Constructor receives addresses for the owners of whitelisted worker nodes, which will be assigned an owners\n    /// of worker nodes contracts\n    function CognitiveJobManager (\n        CognitiveJobFactory _jobFactory, /// Factory class for creating CognitiveJob contracts\n        WorkerNodeFactory _nodeFactory, /// Factory class for creating WorkerNode contracts\n        // Constant literal for array size in function arguments not working yet\n        address[3/*=WORKERNODE_WHITELIST_SIZE*/]\n        _workerNodeOwners /// Worker node owners to be whitelisted by the contract\n    )\n    public\n    WorkerNodeManager(_nodeFactory, _workerNodeOwners) {\n\n        // Must ensure that the supplied factories are already created contracts\n        require(_jobFactory != address(0));\n\n        // Assign factories to storage variables\n        cognitiveJobFactory = _jobFactory;\n\n        // Initializing worker lottery engine\n        // In Pyrrha we use round robin algorithm to give our whitelisted nodes equal and consequential chances\n        workerLotteryEngine = new RoundRobinLottery();\n    }\n\n    /*******************************************************************************************************************\n     * ## Modifiers\n     */\n\n\n    /*******************************************************************************************************************\n     * ## Functions\n     */\n\n    /// ### Public and external\n\n    /// @notice Test whether the given `job` is registered as an active job by the main Pandora contract\n    /// @dev Used to test if some given job contract is a contract created by the Pandora and is listed by it as an\n    /// active contract\n    function isActiveJob(\n        IComputingJob _job /// Job contract to test\n    )\n    onlyInitialized\n    view\n    public\n    returns (\n        bool /// Testing result\n    ) {\n        // Getting the index of the job from the internal list\n        uint16 index = jobAddresses[_job];\n        // Testing if the job was present in the list\n        if (index == 0) {\n            return false;\n        }\n        // We must decrease the index since they are 1-based, not 0-based (0 corresponds to \"no contract\" due to\n        // Solidity specificity\n        index--;\n\n        // Retrieving the job contract from the index\n        IComputingJob job = activeJobs[index];\n        // Double-checking that the job at the index is the actual job being tested\n        return(job == _job);\n    }\n\n\n    /// @notice Creates and returns new cognitive job contract and starts actual cognitive work instantly\n    /// @dev Core function creating new cognitive job contract and returning it back to the caller\n    function createCognitiveJob(\n        IKernel kernel, /// Pre-initialized kernel data entity contract\n        IDataset dataset /// Pre-initialized dataset entity contract\n    )\n    external\n    payable\n    onlyInitialized\n    returns (\n        IComputingJob o_cognitiveJob /// Newly created cognitive jobs (starts automatically)\n    ) {\n        // Dimensions of the input data and neural network input layer must be equal\n        require(kernel.dataDim() == dataset.dataDim());\n\n        // The created job must fit into uint16 size\n        require(activeJobs.length < 2 ^ 16 - 1);\n\n        // Counting number of available worker nodes (in Idle state)\n        // Since Solidity does not supports dynamic in-memory arrays (yet), has to be done in two-staged way:\n        // first by counting array size and then by allocating and populating array itself\n        uint256 estimatedSize = 0;\n        for (uint256 no = 0; no < workerNodes.length; no++) {\n            if (workerNodes[no].currentState() == workerNodes[no].Idle()) {\n                estimatedSize++;\n            }\n        }\n        // There must be at least one free worker node\n        assert(estimatedSize > 0);\n\n        // Initializing in-memory array for idle node list and populating it with data\n        IWorkerNode[] memory idleWorkers = new IWorkerNode[](estimatedSize);\n        uint256 actualSize = 0;\n        for (no = 0; no < workerNodes.length; no++) {\n            if (workerNodes[no].currentState() == workerNodes[no].Idle()) {\n                idleWorkers[actualSize++] = workerNodes[no];\n            }\n        }\n        // Something really wrong happened with EVM if this assert fails\n        assert(actualSize == estimatedSize);\n\n        /// @todo Add payments\n\n        // Running lottery to select worker node to be assigned cognitive job contract\n        uint256 tryNo = 0;\n        uint256 randomNo;\n        IWorkerNode assignedWorker;\n        do {\n            assert(tryNo < MAX_WORKER_LOTTERY_TRIES);\n            randomNo = workerLotteryEngine.getRandom(idleWorkers.length);\n            assignedWorker = idleWorkers[randomNo];\n            tryNo++;\n        } while (assignedWorker.currentState() != assignedWorker.Idle());\n\n        IWorkerNode[] memory assignedWorkers = new IWorkerNode[](1);\n        assignedWorkers[0] = assignedWorker;\n        // Create cognitive job contract\n        o_cognitiveJob = cognitiveJobFactory.create(kernel, dataset, assignedWorkers);\n        assert(o_cognitiveJob != address(0));\n        // Save new contract to the storage\n        activeJobs.push(o_cognitiveJob);\n        jobAddresses[o_cognitiveJob] = uint16(activeJobs.length);\n\n        // Fire global event to notify the selected worker node\n        CognitiveJobCreated(o_cognitiveJob);\n        o_cognitiveJob.initialize();\n    }\n\n    /**\n     * @notice Can't be called by the user, for internal use only\n     * @dev Function must be called only by the master node running cognitive job. It completes the job, updates\n     * worker node back to `Idle` state (in smart contract) and removes job contract from the list of active contracts\n     */\n    function finishCognitiveJob(\n        // No arguments - cognitive job is taken from msg.sender\n    )\n    external\n    onlyInitialized {\n        uint16 index = jobAddresses[msg.sender];\n        require(index != 0);\n        index--;\n\n        IComputingJob job = activeJobs[index];\n        require(address(job) == msg.sender);\n\n        // @todo Kill the job contract\n\n        for (uint no = 0; no < job.activeWorkersCount(); no++) {\n            if (job.didWorkerCompute(no) == true) {\n                job.activeWorkers(no).increaseReputation();\n            }\n        }\n\n        // Remove cognitive job contract from the storage\n        delete jobAddresses[address(job)];\n        IComputingJob movedJob = activeJobs[index] = activeJobs[activeJobs.length - 1];\n        jobAddresses[movedJob] = index + 1;\n        activeJobs.length--;\n    }\n}\n",
  "sourcePath": "/Users/orlovsky/Repositories/pandora/pyrrha-consensus/contracts/pandora/managers/CognitiveJobManager.sol",
  "compiler": {
    "name": "solc",
    "version": "0.4.18+commit.9cf6e910.Emscripten.clang"
  },
  "schemaVersion": "1.0.1",
  "updatedAt": "2017-12-17T07:58:45.755Z"
}