{
  "contractName": "Initializable",
  "abi": [
    {
      "constant": true,
      "inputs": [],
      "name": "initialized",
      "outputs": [
        {
          "name": "",
          "type": "bool"
        }
      ],
      "payable": false,
      "stateMutability": "view",
      "type": "function"
    },
    {
      "constant": false,
      "inputs": [],
      "name": "initialize",
      "outputs": [],
      "payable": false,
      "stateMutability": "nonpayable",
      "type": "function"
    },
    {
      "inputs": [],
      "payable": false,
      "stateMutability": "nonpayable",
      "type": "constructor"
    }
  ],
  "bytecode": "0x606060405260008060006101000a81548160ff021916908315150217905550341561002957600080fd5b60008060006101000a81548160ff02191690831515021790555060e4806100516000396000f3006060604052600436106049576000357c0100000000000000000000000000000000000000000000000000000000900463ffffffff168063158ef93e14604e5780638129fc1c146078575b600080fd5b3415605857600080fd5b605e608a565b604051808215151515815260200191505060405180910390f35b3415608257600080fd5b6088609c565b005b6000809054906101000a900460ff1681565b60016000806101000a81548160ff0219169083151502179055505600a165627a7a72305820260cbfbf1997c2ad05b8ffb28b82c13ad0f985ec53e3aa32b80741b4c8b130820029",
  "source": "pragma solidity ^0.4.18;\n\n\ncontract Initializable {\n    bool public initialized = false;\n\n    function Initializable() public {\n        initialized = false;\n    }\n\n    function initialize() public {\n        initialized = true;\n    }\n\n    /// @dev Modifier ensures that the function can be called only after Pandora contract was properly initialized\n    /// (see `initialize` and `properlyInitialized`\n    modifier onlyInitialized() {\n        require(initialized == true);\n        _;\n    }\n}\n",
  "sourcePath": "/Users/orlovsky/Repositories/pandora/pyrrha-consensus/contracts/lifecycle/Initializable.sol",
  "compiler": {
    "name": "solc",
    "version": "0.4.18+commit.9cf6e910.Emscripten.clang"
  },
  "schemaVersion": "1.0.1",
  "updatedAt": "2018-01-07T00:45:32.315Z"
}