{
  "contractName": "Pandora",
  "abi": [
    {
      "constant": true,
      "inputs": [],
      "name": "name",
      "outputs": [
        {
          "name": "",
          "type": "string"
        }
      ],
      "payable": false,
      "stateMutability": "view",
      "type": "function"
    },
    {
      "constant": false,
      "inputs": [
        {
          "name": "_spender",
          "type": "address"
        },
        {
          "name": "_value",
          "type": "uint256"
        }
      ],
      "name": "approve",
      "outputs": [
        {
          "name": "",
          "type": "bool"
        }
      ],
      "payable": false,
      "stateMutability": "nonpayable",
      "type": "function"
    },
    {
      "constant": true,
      "inputs": [
        {
          "name": "_job",
          "type": "address"
        }
      ],
      "name": "isActiveJob",
      "outputs": [
        {
          "name": "",
          "type": "bool"
        }
      ],
      "payable": false,
      "stateMutability": "view",
      "type": "function"
    },
    {
      "constant": true,
      "inputs": [],
      "name": "workerNodesCount",
      "outputs": [
        {
          "name": "",
          "type": "uint256"
        }
      ],
      "payable": false,
      "stateMutability": "view",
      "type": "function"
    },
    {
      "constant": true,
      "inputs": [],
      "name": "initialized",
      "outputs": [
        {
          "name": "",
          "type": "bool"
        }
      ],
      "payable": false,
      "stateMutability": "view",
      "type": "function"
    },
    {
      "constant": false,
      "inputs": [],
      "name": "finishCognitiveJob",
      "outputs": [],
      "payable": false,
      "stateMutability": "nonpayable",
      "type": "function"
    },
    {
      "constant": true,
      "inputs": [],
      "name": "totalSupply",
      "outputs": [
        {
          "name": "",
          "type": "uint256"
        }
      ],
      "payable": false,
      "stateMutability": "view",
      "type": "function"
    },
    {
      "constant": true,
      "inputs": [
        {
          "name": "",
          "type": "uint256"
        }
      ],
      "name": "workerNodes",
      "outputs": [
        {
          "name": "",
          "type": "address"
        }
      ],
      "payable": false,
      "stateMutability": "view",
      "type": "function"
    },
    {
      "constant": true,
      "inputs": [
        {
          "name": "",
          "type": "uint256"
        }
      ],
      "name": "activeJobs",
      "outputs": [
        {
          "name": "",
          "type": "address"
        }
      ],
      "payable": false,
      "stateMutability": "view",
      "type": "function"
    },
    {
      "constant": false,
      "inputs": [
        {
          "name": "_from",
          "type": "address"
        },
        {
          "name": "_to",
          "type": "address"
        },
        {
          "name": "_value",
          "type": "uint256"
        }
      ],
      "name": "transferFrom",
      "outputs": [
        {
          "name": "",
          "type": "bool"
        }
      ],
      "payable": false,
      "stateMutability": "nonpayable",
      "type": "function"
    },
    {
      "constant": true,
      "inputs": [],
      "name": "INITIAL_SUPPLY",
      "outputs": [
        {
          "name": "",
          "type": "uint256"
        }
      ],
      "payable": false,
      "stateMutability": "view",
      "type": "function"
    },
    {
      "constant": true,
      "inputs": [],
      "name": "decimals",
      "outputs": [
        {
          "name": "",
          "type": "uint256"
        }
      ],
      "payable": false,
      "stateMutability": "view",
      "type": "function"
    },
    {
      "constant": true,
      "inputs": [],
      "name": "cognitiveJobFactory",
      "outputs": [
        {
          "name": "",
          "type": "address"
        }
      ],
      "payable": false,
      "stateMutability": "view",
      "type": "function"
    },
    {
      "constant": true,
      "inputs": [],
      "name": "activeJobsCount",
      "outputs": [
        {
          "name": "",
          "type": "uint256"
        }
      ],
      "payable": false,
      "stateMutability": "view",
      "type": "function"
    },
    {
      "constant": true,
      "inputs": [
        {
          "name": "",
          "type": "address"
        }
      ],
      "name": "jobAddresses",
      "outputs": [
        {
          "name": "",
          "type": "uint16"
        }
      ],
      "payable": false,
      "stateMutability": "view",
      "type": "function"
    },
    {
      "constant": false,
      "inputs": [
        {
          "name": "_guiltyWorker",
          "type": "address"
        },
        {
          "name": "_reason",
          "type": "uint8"
        }
      ],
      "name": "penaltizeWorkerNode",
      "outputs": [],
      "payable": false,
      "stateMutability": "nonpayable",
      "type": "function"
    },
    {
      "constant": false,
      "inputs": [
        {
          "name": "_spender",
          "type": "address"
        },
        {
          "name": "_subtractedValue",
          "type": "uint256"
        }
      ],
      "name": "decreaseApproval",
      "outputs": [
        {
          "name": "",
          "type": "bool"
        }
      ],
      "payable": false,
      "stateMutability": "nonpayable",
      "type": "function"
    },
    {
      "constant": true,
      "inputs": [
        {
          "name": "_owner",
          "type": "address"
        }
      ],
      "name": "balanceOf",
      "outputs": [
        {
          "name": "balance",
          "type": "uint256"
        }
      ],
      "payable": false,
      "stateMutability": "view",
      "type": "function"
    },
    {
      "constant": false,
      "inputs": [],
      "name": "createWorkerNode",
      "outputs": [
        {
          "name": "",
          "type": "address"
        }
      ],
      "payable": false,
      "stateMutability": "nonpayable",
      "type": "function"
    },
    {
      "constant": true,
      "inputs": [],
      "name": "owner",
      "outputs": [
        {
          "name": "",
          "type": "address"
        }
      ],
      "payable": false,
      "stateMutability": "view",
      "type": "function"
    },
    {
      "constant": true,
      "inputs": [],
      "name": "symbol",
      "outputs": [
        {
          "name": "",
          "type": "string"
        }
      ],
      "payable": false,
      "stateMutability": "view",
      "type": "function"
    },
    {
      "constant": false,
      "inputs": [
        {
          "name": "_to",
          "type": "address"
        },
        {
          "name": "_value",
          "type": "uint256"
        }
      ],
      "name": "transfer",
      "outputs": [
        {
          "name": "",
          "type": "bool"
        }
      ],
      "payable": false,
      "stateMutability": "nonpayable",
      "type": "function"
    },
    {
      "constant": false,
      "inputs": [
        {
          "name": "_workerNode",
          "type": "address"
        }
      ],
      "name": "destroyWorkerNode",
      "outputs": [],
      "payable": false,
      "stateMutability": "nonpayable",
      "type": "function"
    },
    {
      "constant": false,
      "inputs": [
        {
          "name": "_spender",
          "type": "address"
        },
        {
          "name": "_addedValue",
          "type": "uint256"
        }
      ],
      "name": "increaseApproval",
      "outputs": [
        {
          "name": "",
          "type": "bool"
        }
      ],
      "payable": false,
      "stateMutability": "nonpayable",
      "type": "function"
    },
    {
      "constant": true,
      "inputs": [
        {
          "name": "_owner",
          "type": "address"
        },
        {
          "name": "_spender",
          "type": "address"
        }
      ],
      "name": "allowance",
      "outputs": [
        {
          "name": "",
          "type": "uint256"
        }
      ],
      "payable": false,
      "stateMutability": "view",
      "type": "function"
    },
    {
      "constant": false,
      "inputs": [
        {
          "name": "newOwner",
          "type": "address"
        }
      ],
      "name": "transferOwnership",
      "outputs": [],
      "payable": false,
      "stateMutability": "nonpayable",
      "type": "function"
    },
    {
      "constant": false,
      "inputs": [
        {
          "name": "kernel",
          "type": "address"
        },
        {
          "name": "dataset",
          "type": "address"
        }
      ],
      "name": "createCognitiveJob",
      "outputs": [
        {
          "name": "o_cognitiveJob",
          "type": "address"
        }
      ],
      "payable": true,
      "stateMutability": "payable",
      "type": "function"
    },
    {
      "constant": true,
      "inputs": [],
      "name": "workerNodeFactory",
      "outputs": [
        {
          "name": "",
          "type": "address"
        }
      ],
      "payable": false,
      "stateMutability": "view",
      "type": "function"
    },
    {
      "constant": true,
      "inputs": [
        {
          "name": "",
          "type": "address"
        }
      ],
      "name": "workerAddresses",
      "outputs": [
        {
          "name": "",
          "type": "uint16"
        }
      ],
      "payable": false,
      "stateMutability": "view",
      "type": "function"
    },
    {
      "inputs": [
        {
          "name": "_jobFactory",
          "type": "address"
        },
        {
          "name": "_nodeFactory",
          "type": "address"
        },
        {
          "name": "_workerNodeOwners",
          "type": "address[3]"
        }
      ],
      "payable": false,
      "stateMutability": "nonpayable",
      "type": "constructor"
    },
    {
      "anonymous": false,
      "inputs": [
        {
          "indexed": false,
          "name": "cognitiveJob",
          "type": "address"
        }
      ],
      "name": "CognitiveJobCreated",
      "type": "event"
    },
    {
      "anonymous": false,
      "inputs": [
        {
          "indexed": false,
          "name": "workerNode",
          "type": "address"
        }
      ],
      "name": "WorkerNodeCreated",
      "type": "event"
    },
    {
      "anonymous": false,
      "inputs": [
        {
          "indexed": false,
          "name": "workerNode",
          "type": "address"
        }
      ],
      "name": "WorkerNodeDestroyed",
      "type": "event"
    },
    {
      "anonymous": false,
      "inputs": [
        {
          "indexed": true,
          "name": "previousOwner",
          "type": "address"
        },
        {
          "indexed": true,
          "name": "newOwner",
          "type": "address"
        }
      ],
      "name": "OwnershipTransferred",
      "type": "event"
    },
    {
      "anonymous": false,
      "inputs": [
        {
          "indexed": true,
          "name": "owner",
          "type": "address"
        },
        {
          "indexed": true,
          "name": "spender",
          "type": "address"
        },
        {
          "indexed": false,
          "name": "value",
          "type": "uint256"
        }
      ],
      "name": "Approval",
      "type": "event"
    },
    {
      "anonymous": false,
      "inputs": [
        {
          "indexed": true,
          "name": "from",
          "type": "address"
        },
        {
          "indexed": true,
          "name": "to",
          "type": "address"
        },
        {
          "indexed": false,
          "name": "value",
          "type": "uint256"
        }
      ],
      "name": "Transfer",
      "type": "event"
    },
    {
      "constant": false,
      "inputs": [],
      "name": "initialize",
      "outputs": [],
      "payable": false,
      "stateMutability": "nonpayable",
      "type": "function"
    }
  ],
  "bytecode": "0x60606040526000600360146101000a81548160ff02191690831515021790555034156200002b57600080fd5b60405160a08062003e528339810160405280805190602001909190805190602001909150828282818160006601c6bf526340006000819055506601c6bf52634000600160003373ffffffffffffffffffffffffffffffffffffffff1673ffffffffffffffffffffffffffffffffffffffff1681526020019081526020016000208190555033600360006101000a81548173ffffffffffffffffffffffffffffffffffffffff021916908373ffffffffffffffffffffffffffffffffffffffff1602179055506000600360146101000a81548160ff021916908315150217905550600360ff1660031415156200011c57fe5b600073ffffffffffffffffffffffffffffffffffffffff168373ffffffffffffffffffffffffffffffffffffffff16141515156200015957600080fd5b82600b60006101000a81548173ffffffffffffffffffffffffffffffffffffffff021916908373ffffffffffffffffffffffffffffffffffffffff160217905550600090505b60038160ff16108015620001b95750600360ff168160ff16105b156200029b57600073ffffffffffffffffffffffffffffffffffffffff16828260ff16600381101515620001e957fe5b602002015173ffffffffffffffffffffffffffffffffffffffff16141515156200021257600080fd5b600e805480600101828162000228919062000389565b91600052602060002090016000848460ff166003811015156200024757fe5b6020020151909190916101000a81548173ffffffffffffffffffffffffffffffffffffffff021916908373ffffffffffffffffffffffffffffffffffffffff1602179055505080806001019150506200019f565b505050600073ffffffffffffffffffffffffffffffffffffffff168373ffffffffffffffffffffffffffffffffffffffff1614151515620002db57600080fd5b82600f60006101000a81548173ffffffffffffffffffffffffffffffffffffffff021916908373ffffffffffffffffffffffffffffffffffffffff16021790555062000326620003b8565b604051809103906000f08015156200033d57600080fd5b601260006101000a81548173ffffffffffffffffffffffffffffffffffffffff021916908373ffffffffffffffffffffffffffffffffffffffff160217905550505050505050620003f0565b815481835581811511620003b357818360005260206000209182019101620003b29190620003c8565b5b505050565b60405160f78062003d5b83390190565b620003ed91905b80821115620003e9576000816000905550600101620003cf565b5090565b90565b61395b80620004006000396000f300606060405260043610610180576000357c0100000000000000000000000000000000000000000000000000000000900463ffffffff16806306fdde0314610185578063095ea7b3146102135780630ba585741461026d5780630e3b581f146102be578063158ef93e146102e7578063171317511461031457806318160ddd146103295780631dc20af41461035257806321b0908b146103b557806323b872dd146104185780632ff2e9dc14610491578063313ce567146104ba57806336bad828146104e35780635c2b37fa146105385780635ecc2e44146105615780635ef17776146105b657806366188463146105fb57806370a08231146106555780638129fc1c146106a257806386b07332146106b75780638da5cb5b1461070c57806395d89b4114610761578063a9059cbb146107ef578063ae1092ae14610849578063d73dd62314610882578063dd62ed3e146108dc578063f2fde38b14610948578063f9bb6cfe14610981578063f9d84ade14610a0e578063fdb5b8d414610a63575b600080fd5b341561019057600080fd5b610198610ab8565b6040518080602001828103825283818151815260200191508051906020019080838360005b838110156101d85780820151818401526020810190506101bd565b50505050905090810190601f1680156102055780820380516001836020036101000a031916815260200191505b509250505060405180910390f35b341561021e57600080fd5b610253600480803573ffffffffffffffffffffffffffffffffffffffff16906020019091908035906020019091905050610af1565b604051808215151515815260200191505060405180910390f35b341561027857600080fd5b6102a4600480803573ffffffffffffffffffffffffffffffffffffffff16906020019091905050610be3565b604051808215151515815260200191505060405180910390f35b34156102c957600080fd5b6102d1610cf3565b6040518082815260200191505060405180910390f35b34156102f257600080fd5b6102fa610d22565b604051808215151515815260200191505060405180910390f35b341561031f57600080fd5b610327610d35565b005b341561033457600080fd5b61033c6111f5565b6040518082815260200191505060405180910390f35b341561035d57600080fd5b61037360048080359060200190919050506111fb565b604051808273ffffffffffffffffffffffffffffffffffffffff1673ffffffffffffffffffffffffffffffffffffffff16815260200191505060405180910390f35b34156103c057600080fd5b6103d6600480803590602001909190505061123a565b604051808273ffffffffffffffffffffffffffffffffffffffff1673ffffffffffffffffffffffffffffffffffffffff16815260200191505060405180910390f35b341561042357600080fd5b610477600480803573ffffffffffffffffffffffffffffffffffffffff1690602001909190803573ffffffffffffffffffffffffffffffffffffffff16906020019091908035906020019091905050611279565b604051808215151515815260200191505060405180910390f35b341561049c57600080fd5b6104a4611638565b6040518082815260200191505060405180910390f35b34156104c557600080fd5b6104cd611643565b6040518082815260200191505060405180910390f35b34156104ee57600080fd5b6104f6611648565b604051808273ffffffffffffffffffffffffffffffffffffffff1673ffffffffffffffffffffffffffffffffffffffff16815260200191505060405180910390f35b341561054357600080fd5b61054b61166e565b6040518082815260200191505060405180910390f35b341561056c57600080fd5b610598600480803573ffffffffffffffffffffffffffffffffffffffff1690602001909190505061169d565b604051808261ffff1661ffff16815260200191505060405180910390f35b34156105c157600080fd5b6105f9600480803573ffffffffffffffffffffffffffffffffffffffff1690602001909190803560ff169060200190919050506116be565b005b341561060657600080fd5b61063b600480803573ffffffffffffffffffffffffffffffffffffffff169060200190919080359060200190919050506116e4565b604051808215151515815260200191505060405180910390f35b341561066057600080fd5b61068c600480803573ffffffffffffffffffffffffffffffffffffffff16906020019091905050611975565b6040518082815260200191505060405180910390f35b34156106ad57600080fd5b6106b56119be565b005b34156106c257600080fd5b6106ca611d2e565b604051808273ffffffffffffffffffffffffffffffffffffffff1673ffffffffffffffffffffffffffffffffffffffff16815260200191505060405180910390f35b341561071757600080fd5b61071f6120ee565b604051808273ffffffffffffffffffffffffffffffffffffffff1673ffffffffffffffffffffffffffffffffffffffff16815260200191505060405180910390f35b341561076c57600080fd5b610774612114565b6040518080602001828103825283818151815260200191508051906020019080838360005b838110156107b4578082015181840152602081019050610799565b50505050905090810190601f1680156107e15780820380516001836020036101000a031916815260200191505b509250505060405180910390f35b34156107fa57600080fd5b61082f600480803573ffffffffffffffffffffffffffffffffffffffff1690602001909190803590602001909190505061214d565b604051808215151515815260200191505060405180910390f35b341561085457600080fd5b610880600480803573ffffffffffffffffffffffffffffffffffffffff16906020019091905050612371565b005b341561088d57600080fd5b6108c2600480803573ffffffffffffffffffffffffffffffffffffffff16906020019091908035906020019091905050612879565b604051808215151515815260200191505060405180910390f35b34156108e757600080fd5b610932600480803573ffffffffffffffffffffffffffffffffffffffff1690602001909190803573ffffffffffffffffffffffffffffffffffffffff16906020019091905050612a75565b6040518082815260200191505060405180910390f35b341561095357600080fd5b61097f600480803573ffffffffffffffffffffffffffffffffffffffff16906020019091905050612afc565b005b6109cc600480803573ffffffffffffffffffffffffffffffffffffffff1690602001909190803573ffffffffffffffffffffffffffffffffffffffff16906020019091905050612c54565b604051808273ffffffffffffffffffffffffffffffffffffffff1673ffffffffffffffffffffffffffffffffffffffff16815260200191505060405180910390f35b3415610a1957600080fd5b610a216137ab565b604051808273ffffffffffffffffffffffffffffffffffffffff1673ffffffffffffffffffffffffffffffffffffffff16815260200191505060405180910390f35b3415610a6e57600080fd5b610a9a600480803573ffffffffffffffffffffffffffffffffffffffff169060200190919050506137d1565b604051808261ffff1661ffff16815260200191505060405180910390f35b6040805190810160405280600781526020017f50616e646f72610000000000000000000000000000000000000000000000000081525081565b600081600260003373ffffffffffffffffffffffffffffffffffffffff1673ffffffffffffffffffffffffffffffffffffffff16815260200190815260200160002060008573ffffffffffffffffffffffffffffffffffffffff1673ffffffffffffffffffffffffffffffffffffffff168152602001908152602001600020819055508273ffffffffffffffffffffffffffffffffffffffff163373ffffffffffffffffffffffffffffffffffffffff167f8c5be1e5ebec7d5bd14f71427d1e84f3dd0314c0f7b2291e5b200ac8c7c3b925846040518082815260200191505060405180910390a36001905092915050565b600080600060011515600360149054906101000a900460ff161515141515610c0a57600080fd5b601060008573ffffffffffffffffffffffffffffffffffffffff1673ffffffffffffffffffffffffffffffffffffffff16815260200190815260200160002060009054906101000a900461ffff16915060008261ffff161415610c705760009250610cec565b81806001900392505060118261ffff16815481101515610c8c57fe5b906000526020600020900160009054906101000a900473ffffffffffffffffffffffffffffffffffffffff1690508373ffffffffffffffffffffffffffffffffffffffff168173ffffffffffffffffffffffffffffffffffffffff161492505b5050919050565b600060011515600360149054906101000a900460ff161515141515610d1757600080fd5b600c80549050905090565b600360149054906101000a900460ff1681565b60008060008060011515600360149054906101000a900460ff161515141515610d5d57600080fd5b601060003373ffffffffffffffffffffffffffffffffffffffff1673ffffffffffffffffffffffffffffffffffffffff16815260200190815260200160002060009054906101000a900461ffff16935060008461ffff1614151515610dc157600080fd5b83806001900394505060118461ffff16815481101515610ddd57fe5b906000526020600020900160009054906101000a900473ffffffffffffffffffffffffffffffffffffffff1692503373ffffffffffffffffffffffffffffffffffffffff168373ffffffffffffffffffffffffffffffffffffffff16141515610e4557600080fd5b600091505b8273ffffffffffffffffffffffffffffffffffffffff16634804b4ba6000604051602001526040518163ffffffff167c0100000000000000000000000000000000000000000000000000000000028152600401602060405180830381600087803b1515610eb657600080fd5b6102c65a03f11515610ec757600080fd5b5050506040518051905082101561108c57600115158373ffffffffffffffffffffffffffffffffffffffff1663d6ccdca3846000604051602001526040518263ffffffff167c010000000000000000000000000000000000000000000000000000000002815260040180828152602001915050602060405180830381600087803b1515610f5357600080fd5b6102c65a03f11515610f6457600080fd5b505050604051805190501515141561107f578273ffffffffffffffffffffffffffffffffffffffff166358909400836000604051602001526040518263ffffffff167c010000000000000000000000000000000000000000000000000000000002815260040180828152602001915050602060405180830381600087803b1515610fed57600080fd5b6102c65a03f11515610ffe57600080fd5b5050506040518051905073ffffffffffffffffffffffffffffffffffffffff1663e5469d9f6040518163ffffffff167c0100000000000000000000000000000000000000000000000000000000028152600401600060405180830381600087803b151561106a57600080fd5b6102c65a03f1151561107b57600080fd5b5050505b8180600101925050610e4a565b601060008473ffffffffffffffffffffffffffffffffffffffff1673ffffffffffffffffffffffffffffffffffffffff16815260200190815260200160002060006101000a81549061ffff021916905560116001601180549050038154811015156110f357fe5b906000526020600020900160009054906101000a900473ffffffffffffffffffffffffffffffffffffffff1660118561ffff1681548110151561113257fe5b906000526020600020900160006101000a81548173ffffffffffffffffffffffffffffffffffffffff021916908373ffffffffffffffffffffffffffffffffffffffff1602179055905060018401601060008373ffffffffffffffffffffffffffffffffffffffff1673ffffffffffffffffffffffffffffffffffffffff16815260200190815260200160002060006101000a81548161ffff021916908361ffff16021790555060118054809190600190036111ee9190613846565b5050505050565b60005481565b600c8181548110151561120a57fe5b90600052602060002090016000915054906101000a900473ffffffffffffffffffffffffffffffffffffffff1681565b60118181548110151561124957fe5b90600052602060002090016000915054906101000a900473ffffffffffffffffffffffffffffffffffffffff1681565b60008073ffffffffffffffffffffffffffffffffffffffff168373ffffffffffffffffffffffffffffffffffffffff16141515156112b657600080fd5b600160008573ffffffffffffffffffffffffffffffffffffffff1673ffffffffffffffffffffffffffffffffffffffff16815260200190815260200160002054821115151561130457600080fd5b600260008573ffffffffffffffffffffffffffffffffffffffff1673ffffffffffffffffffffffffffffffffffffffff16815260200190815260200160002060003373ffffffffffffffffffffffffffffffffffffffff1673ffffffffffffffffffffffffffffffffffffffff16815260200190815260200160002054821115151561138f57600080fd5b6113e182600160008773ffffffffffffffffffffffffffffffffffffffff1673ffffffffffffffffffffffffffffffffffffffff168152602001908152602001600020546137f290919063ffffffff16565b600160008673ffffffffffffffffffffffffffffffffffffffff1673ffffffffffffffffffffffffffffffffffffffff1681526020019081526020016000208190555061147682600160008673ffffffffffffffffffffffffffffffffffffffff1673ffffffffffffffffffffffffffffffffffffffff1681526020019081526020016000205461380b90919063ffffffff16565b600160008573ffffffffffffffffffffffffffffffffffffffff1673ffffffffffffffffffffffffffffffffffffffff1681526020019081526020016000208190555061154882600260008773ffffffffffffffffffffffffffffffffffffffff1673ffffffffffffffffffffffffffffffffffffffff16815260200190815260200160002060003373ffffffffffffffffffffffffffffffffffffffff1673ffffffffffffffffffffffffffffffffffffffff168152602001908152602001600020546137f290919063ffffffff16565b600260008673ffffffffffffffffffffffffffffffffffffffff1673ffffffffffffffffffffffffffffffffffffffff16815260200190815260200160002060003373ffffffffffffffffffffffffffffffffffffffff1673ffffffffffffffffffffffffffffffffffffffff168152602001908152602001600020819055508273ffffffffffffffffffffffffffffffffffffffff168473ffffffffffffffffffffffffffffffffffffffff167fddf252ad1be2c89b69c2b068fc378daa952ba7f163c4a11628f55a4df523b3ef846040518082815260200191505060405180910390a3600190509392505050565b6601c6bf5263400081565b601281565b600f60009054906101000a900473ffffffffffffffffffffffffffffffffffffffff1681565b600060011515600360149054906101000a900460ff16151514151561169257600080fd5b601180549050905090565b60106020528060005260406000206000915054906101000a900461ffff1681565b60011515600360149054906101000a900460ff1615151415156116e057600080fd5b5050565b600080600260003373ffffffffffffffffffffffffffffffffffffffff1673ffffffffffffffffffffffffffffffffffffffff16815260200190815260200160002060008573ffffffffffffffffffffffffffffffffffffffff1673ffffffffffffffffffffffffffffffffffffffff168152602001908152602001600020549050808311156117f5576000600260003373ffffffffffffffffffffffffffffffffffffffff1673ffffffffffffffffffffffffffffffffffffffff16815260200190815260200160002060008673ffffffffffffffffffffffffffffffffffffffff1673ffffffffffffffffffffffffffffffffffffffff16815260200190815260200160002081905550611889565b61180883826137f290919063ffffffff16565b600260003373ffffffffffffffffffffffffffffffffffffffff1673ffffffffffffffffffffffffffffffffffffffff16815260200190815260200160002060008673ffffffffffffffffffffffffffffffffffffffff1673ffffffffffffffffffffffffffffffffffffffff168152602001908152602001600020819055505b8373ffffffffffffffffffffffffffffffffffffffff163373ffffffffffffffffffffffffffffffffffffffff167f8c5be1e5ebec7d5bd14f71427d1e84f3dd0314c0f7b2291e5b200ac8c7c3b925600260003373ffffffffffffffffffffffffffffffffffffffff1673ffffffffffffffffffffffffffffffffffffffff16815260200190815260200160002060008873ffffffffffffffffffffffffffffffffffffffff1673ffffffffffffffffffffffffffffffffffffffff168152602001908152602001600020546040518082815260200191505060405180910390a3600191505092915050565b6000600160008373ffffffffffffffffffffffffffffffffffffffff1673ffffffffffffffffffffffffffffffffffffffff168152602001908152602001600020549050919050565b600360009054906101000a900473ffffffffffffffffffffffffffffffffffffffff1673ffffffffffffffffffffffffffffffffffffffff163373ffffffffffffffffffffffffffffffffffffffff16141515611a1a57600080fd5b6040805190810160405280600a81526020017f696e697469616c697a650000000000000000000000000000000000000000000081525060001515600a826040518082805190602001908083835b602083101515611a8c5780518252602082019150602081019050602083039250611a67565b6001836020036101000a038019825116818451168082178552505050505050905001915050908152602001604051809103902060009054906101000a900460ff161515141515611adb57600080fd5b3073ffffffffffffffffffffffffffffffffffffffff16600b60009054906101000a900473ffffffffffffffffffffffffffffffffffffffff1673ffffffffffffffffffffffffffffffffffffffff16638da5cb5b6000604051602001526040518163ffffffff167c0100000000000000000000000000000000000000000000000000000000028152600401602060405180830381600087803b1515611b8057600080fd5b6102c65a03f11515611b9157600080fd5b5050506040518051905073ffffffffffffffffffffffffffffffffffffffff16141515611bbd57600080fd5b3073ffffffffffffffffffffffffffffffffffffffff16600f60009054906101000a900473ffffffffffffffffffffffffffffffffffffffff1673ffffffffffffffffffffffffffffffffffffffff16638da5cb5b6000604051602001526040518163ffffffff167c0100000000000000000000000000000000000000000000000000000000028152600401602060405180830381600087803b1515611c6257600080fd5b6102c65a03f11515611c7357600080fd5b5050506040518051905073ffffffffffffffffffffffffffffffffffffffff16141515611c9f57600080fd5b611ca7613829565b6001600a826040518082805190602001908083835b602083101515611ce15780518252602082019150602081019050602083039250611cbc565b6001836020036101000a038019825116818451168082178552505050505050905001915050908152602001604051809103902060006101000a81548160ff02191690831515021790555050565b600080600060011515600360149054906101000a900460ff161515141515611d5557600080fd5b60008060009150600090505b600e805490508160ff16108015611d7e5750600360ff168160ff16105b156120db57600073ffffffffffffffffffffffffffffffffffffffff16600e8260ff16815481101515611dad57fe5b906000526020600020900160009054906101000a900473ffffffffffffffffffffffffffffffffffffffff1673ffffffffffffffffffffffffffffffffffffffff1614158015611e655750600e8160ff16815481101515611e0a57fe5b906000526020600020900160009054906101000a900473ffffffffffffffffffffffffffffffffffffffff1673ffffffffffffffffffffffffffffffffffffffff163373ffffffffffffffffffffffffffffffffffffffff16145b156120ce57600191503393503273ffffffffffffffffffffffffffffffffffffffff163373ffffffffffffffffffffffffffffffffffffffff16141515611eab57600080fd5b600d600c80549050101515611ebf57600080fd5b600b60009054906101000a900473ffffffffffffffffffffffffffffffffffffffff1673ffffffffffffffffffffffffffffffffffffffff16639ed93318856000604051602001526040518263ffffffff167c0100000000000000000000000000000000000000000000000000000000028152600401808273ffffffffffffffffffffffffffffffffffffffff1673ffffffffffffffffffffffffffffffffffffffff168152602001915050602060405180830381600087803b1515611f8457600080fd5b6102c65a03f11515611f9557600080fd5b505050604051805190509250600c8054806001018281611fb59190613872565b9160005260206000209001600085909190916101000a81548173ffffffffffffffffffffffffffffffffffffffff021916908373ffffffffffffffffffffffffffffffffffffffff16021790555050600c80549050600d60008573ffffffffffffffffffffffffffffffffffffffff1673ffffffffffffffffffffffffffffffffffffffff16815260200190815260200160002060006101000a81548161ffff021916908361ffff1602179055507f093794466f44429afc8d8ec2c4c7f42c98d5db9b3db965ce46a31e7d4f7c29c883604051808273ffffffffffffffffffffffffffffffffffffffff1673ffffffffffffffffffffffffffffffffffffffff16815260200191505060405180910390a18294506120db565b8080600101915050611d61565b8115156120e757600080fd5b5050505090565b600360009054906101000a900473ffffffffffffffffffffffffffffffffffffffff1681565b6040805190810160405280600381526020017f50414e000000000000000000000000000000000000000000000000000000000081525081565b60008073ffffffffffffffffffffffffffffffffffffffff168373ffffffffffffffffffffffffffffffffffffffff161415151561218a57600080fd5b600160003373ffffffffffffffffffffffffffffffffffffffff1673ffffffffffffffffffffffffffffffffffffffff1681526020019081526020016000205482111515156121d857600080fd5b61222a82600160003373ffffffffffffffffffffffffffffffffffffffff1673ffffffffffffffffffffffffffffffffffffffff168152602001908152602001600020546137f290919063ffffffff16565b600160003373ffffffffffffffffffffffffffffffffffffffff1673ffffffffffffffffffffffffffffffffffffffff168152602001908152602001600020819055506122bf82600160008673ffffffffffffffffffffffffffffffffffffffff1673ffffffffffffffffffffffffffffffffffffffff1681526020019081526020016000205461380b90919063ffffffff16565b600160008573ffffffffffffffffffffffffffffffffffffffff1673ffffffffffffffffffffffffffffffffffffffff168152602001908152602001600020819055508273ffffffffffffffffffffffffffffffffffffffff163373ffffffffffffffffffffffffffffffffffffffff167fddf252ad1be2c89b69c2b068fc378daa952ba7f163c4a11628f55a4df523b3ef846040518082815260200191505060405180910390a36001905092915050565b60008060008360003390508173ffffffffffffffffffffffffffffffffffffffff16638da5cb5b6000604051602001526040518163ffffffff167c0100000000000000000000000000000000000000000000000000000000028152600401602060405180830381600087803b15156123e857600080fd5b6102c65a03f115156123f957600080fd5b5050506040518051905073ffffffffffffffffffffffffffffffffffffffff168173ffffffffffffffffffffffffffffffffffffffff1614151561243c57600080fd5b6000600d60008373ffffffffffffffffffffffffffffffffffffffff1673ffffffffffffffffffffffffffffffffffffffff16815260200190815260200160002060009054906101000a900461ffff1661ffff1611151561249c57600080fd5b60011515600360149054906101000a900460ff1615151415156124be57600080fd5b3394508573ffffffffffffffffffffffffffffffffffffffff1663ae897c556000604051602001526040518163ffffffff167c0100000000000000000000000000000000000000000000000000000000028152600401602060405180830381600087803b151561252d57600080fd5b6102c65a03f1151561253e57600080fd5b5050506040518051905060ff168673ffffffffffffffffffffffffffffffffffffffff16630c3f6acf6000604051602001526040518163ffffffff167c0100000000000000000000000000000000000000000000000000000000028152600401602060405180830381600087803b15156125b757600080fd5b6102c65a03f115156125c857600080fd5b5050506040518051905060ff161415156125e157600080fd5b8573ffffffffffffffffffffffffffffffffffffffff166383197ef06040518163ffffffff167c0100000000000000000000000000000000000000000000000000000000028152600401600060405180830381600087803b151561264457600080fd5b6102c65a03f1151561265557600080fd5b5050506001600d60008773ffffffffffffffffffffffffffffffffffffffff1673ffffffffffffffffffffffffffffffffffffffff16815260200190815260200160002060009054906101000a900461ffff16039350600d60008673ffffffffffffffffffffffffffffffffffffffff1673ffffffffffffffffffffffffffffffffffffffff16815260200190815260200160002060006101000a81549061ffff0219169055600c6001600c805490500381548110151561271257fe5b906000526020600020900160009054906101000a900473ffffffffffffffffffffffffffffffffffffffff16600c8561ffff1681548110151561275157fe5b906000526020600020900160006101000a81548173ffffffffffffffffffffffffffffffffffffffff021916908373ffffffffffffffffffffffffffffffffffffffff1602179055925060018401600d60008573ffffffffffffffffffffffffffffffffffffffff1673ffffffffffffffffffffffffffffffffffffffff16815260200190815260200160002060006101000a81548161ffff021916908361ffff160217905550600c80548091906001900361280d919061389e565b507f677f03e392472a48b617167ed4dbec758d26d8517257ec077bed2d27d192816486604051808273ffffffffffffffffffffffffffffffffffffffff1673ffffffffffffffffffffffffffffffffffffffff16815260200191505060405180910390a1505050505050565b600061290a82600260003373ffffffffffffffffffffffffffffffffffffffff1673ffffffffffffffffffffffffffffffffffffffff16815260200190815260200160002060008673ffffffffffffffffffffffffffffffffffffffff1673ffffffffffffffffffffffffffffffffffffffff1681526020019081526020016000205461380b90919063ffffffff16565b600260003373ffffffffffffffffffffffffffffffffffffffff1673ffffffffffffffffffffffffffffffffffffffff16815260200190815260200160002060008573ffffffffffffffffffffffffffffffffffffffff1673ffffffffffffffffffffffffffffffffffffffff168152602001908152602001600020819055508273ffffffffffffffffffffffffffffffffffffffff163373ffffffffffffffffffffffffffffffffffffffff167f8c5be1e5ebec7d5bd14f71427d1e84f3dd0314c0f7b2291e5b200ac8c7c3b925600260003373ffffffffffffffffffffffffffffffffffffffff1673ffffffffffffffffffffffffffffffffffffffff16815260200190815260200160002060008773ffffffffffffffffffffffffffffffffffffffff1673ffffffffffffffffffffffffffffffffffffffff168152602001908152602001600020546040518082815260200191505060405180910390a36001905092915050565b6000600260008473ffffffffffffffffffffffffffffffffffffffff1673ffffffffffffffffffffffffffffffffffffffff16815260200190815260200160002060008373ffffffffffffffffffffffffffffffffffffffff1673ffffffffffffffffffffffffffffffffffffffff16815260200190815260200160002054905092915050565b600360009054906101000a900473ffffffffffffffffffffffffffffffffffffffff1673ffffffffffffffffffffffffffffffffffffffff163373ffffffffffffffffffffffffffffffffffffffff16141515612b5857600080fd5b600073ffffffffffffffffffffffffffffffffffffffff168173ffffffffffffffffffffffffffffffffffffffff1614151515612b9457600080fd5b8073ffffffffffffffffffffffffffffffffffffffff16600360009054906101000a900473ffffffffffffffffffffffffffffffffffffffff1673ffffffffffffffffffffffffffffffffffffffff167f8be0079c531659141344cd1fd0a4f28419497f9722a3daafe3b4186f6b6457e060405160405180910390a380600360006101000a81548173ffffffffffffffffffffffffffffffffffffffff021916908373ffffffffffffffffffffffffffffffffffffffff16021790555050565b6000806000612c616138ca565b600080600080612c6f6138ca565b60011515600360149054906101000a900460ff161515141515612c9157600080fd5b8973ffffffffffffffffffffffffffffffffffffffff1663b1f8d9ba6000604051602001526040518163ffffffff167c0100000000000000000000000000000000000000000000000000000000028152600401602060405180830381600087803b1515612cfd57600080fd5b6102c65a03f11515612d0e57600080fd5b505050604051805190508b73ffffffffffffffffffffffffffffffffffffffff1663b1f8d9ba6000604051602001526040518163ffffffff167c0100000000000000000000000000000000000000000000000000000000028152600401602060405180830381600087803b1515612d8457600080fd5b6102c65a03f11515612d9557600080fd5b50505060405180519050141515612dab57600080fd5b600d601180549050101515612dbf57600080fd5b60009750600096505b600c80549050871015612f7957600c87815481101515612de457fe5b906000526020600020900160009054906101000a900473ffffffffffffffffffffffffffffffffffffffff1673ffffffffffffffffffffffffffffffffffffffff1663ae897c556000604051602001526040518163ffffffff167c0100000000000000000000000000000000000000000000000000000000028152600401602060405180830381600087803b1515612e7b57600080fd5b6102c65a03f11515612e8c57600080fd5b5050506040518051905060ff16600c88815481101515612ea857fe5b906000526020600020900160009054906101000a900473ffffffffffffffffffffffffffffffffffffffff1673ffffffffffffffffffffffffffffffffffffffff16630c3f6acf6000604051602001526040518163ffffffff167c0100000000000000000000000000000000000000000000000000000000028152600401602060405180830381600087803b1515612f3f57600080fd5b6102c65a03f11515612f5057600080fd5b5050506040518051905060ff161415612f6c5787806001019850505b8680600101975050612dc8565b600088111515612f8557fe5b87604051805910612f935750595b9080825280602002602001820160405250955060009450600096505b600c805490508710156131e357600c87815481101515612fcb57fe5b906000526020600020900160009054906101000a900473ffffffffffffffffffffffffffffffffffffffff1673ffffffffffffffffffffffffffffffffffffffff1663ae897c556000604051602001526040518163ffffffff167c0100000000000000000000000000000000000000000000000000000000028152600401602060405180830381600087803b151561306257600080fd5b6102c65a03f1151561307357600080fd5b5050506040518051905060ff16600c8881548110151561308f57fe5b906000526020600020900160009054906101000a900473ffffffffffffffffffffffffffffffffffffffff1673ffffffffffffffffffffffffffffffffffffffff16630c3f6acf6000604051602001526040518163ffffffff167c0100000000000000000000000000000000000000000000000000000000028152600401602060405180830381600087803b151561312657600080fd5b6102c65a03f1151561313757600080fd5b5050506040518051905060ff1614156131d657600c8781548110151561315957fe5b906000526020600020900160009054906101000a900473ffffffffffffffffffffffffffffffffffffffff16868680600101975081518110151561319957fe5b9060200190602002019073ffffffffffffffffffffffffffffffffffffffff16908173ffffffffffffffffffffffffffffffffffffffff16815250505b8680600101975050612faf565b87851415156131ee57fe5b600093505b600a60ff168410151561320257fe5b601260009054906101000a900473ffffffffffffffffffffffffffffffffffffffff1673ffffffffffffffffffffffffffffffffffffffff1663cd4b691487516000604051602001526040518263ffffffff167c010000000000000000000000000000000000000000000000000000000002815260040180828152602001915050602060405180830381600087803b151561329c57600080fd5b6102c65a03f115156132ad57600080fd5b50505060405180519050925085838151811015156132c757fe5b90602001906020020151915083806001019450508173ffffffffffffffffffffffffffffffffffffffff1663ae897c556000604051602001526040518163ffffffff167c0100000000000000000000000000000000000000000000000000000000028152600401602060405180830381600087803b151561334757600080fd5b6102c65a03f1151561335857600080fd5b5050506040518051905060ff168273ffffffffffffffffffffffffffffffffffffffff16630c3f6acf6000604051602001526040518163ffffffff167c0100000000000000000000000000000000000000000000000000000000028152600401602060405180830381600087803b15156133d157600080fd5b6102c65a03f115156133e257600080fd5b5050506040518051905060ff161415156133fb576131f3565b600160405180591061340a5750595b908082528060200260200182016040525090508181600081518110151561342d57fe5b9060200190602002019073ffffffffffffffffffffffffffffffffffffffff16908173ffffffffffffffffffffffffffffffffffffffff1681525050600f60009054906101000a900473ffffffffffffffffffffffffffffffffffffffff1673ffffffffffffffffffffffffffffffffffffffff16631c695d2b8c8c846000604051602001526040518463ffffffff167c0100000000000000000000000000000000000000000000000000000000028152600401808473ffffffffffffffffffffffffffffffffffffffff1673ffffffffffffffffffffffffffffffffffffffff1681526020018373ffffffffffffffffffffffffffffffffffffffff1673ffffffffffffffffffffffffffffffffffffffff16815260200180602001828103825283818151815260200191508051906020019060200280838360005b8381101561358557808201518184015260208101905061356a565b50505050905001945050505050602060405180830381600087803b15156135ab57600080fd5b6102c65a03f115156135bc57600080fd5b505050604051805190509850600073ffffffffffffffffffffffffffffffffffffffff168973ffffffffffffffffffffffffffffffffffffffff161415151561360157fe5b6011805480600101828161361591906138de565b916000526020600020900160008b909190916101000a81548173ffffffffffffffffffffffffffffffffffffffff021916908373ffffffffffffffffffffffffffffffffffffffff16021790555050601180549050601060008b73ffffffffffffffffffffffffffffffffffffffff1673ffffffffffffffffffffffffffffffffffffffff16815260200190815260200160002060006101000a81548161ffff021916908361ffff1602179055507f641cfdf635dc3bb17e2aaf274165f56b16b64cd79e5ffa2f46c9a224f71ad93189604051808273ffffffffffffffffffffffffffffffffffffffff1673ffffffffffffffffffffffffffffffffffffffff16815260200191505060405180910390a18873ffffffffffffffffffffffffffffffffffffffff16638129fc1c6040518163ffffffff167c0100000000000000000000000000000000000000000000000000000000028152600401600060405180830381600087803b151561378957600080fd5b6102c65a03f1151561379a57600080fd5b505050505050505050505092915050565b600b60009054906101000a900473ffffffffffffffffffffffffffffffffffffffff1681565b600d6020528060005260406000206000915054906101000a900461ffff1681565b600082821115151561380057fe5b818303905092915050565b600080828401905083811015151561381f57fe5b8091505092915050565b6001600360146101000a81548160ff021916908315150217905550565b81548183558181151161386d5781836000526020600020918201910161386c919061390a565b5b505050565b81548183558181151161389957818360005260206000209182019101613898919061390a565b5b505050565b8154818355818115116138c5578183600052602060002091820191016138c4919061390a565b5b505050565b602060405190810160405280600081525090565b81548183558181151161390557818360005260206000209182019101613904919061390a565b5b505050565b61392c91905b80821115613928576000816000905550600101613910565b5090565b905600a165627a7a72305820098b9182049b5895efc1c58613cfb123c8e7e3b49cbb500c3bf1912aef19483600296060604052341561000f57600080fd5b6000808190555060d3806100246000396000f300606060405260043610603f576000357c0100000000000000000000000000000000000000000000000000000000900463ffffffff168063cd4b6914146044575b600080fd5b3415604e57600080fd5b606260048080359060200190919050506078565b6040518082815260200191505060405180910390f35b600081600054101515608c57600080819055505b600054905060008081548092919060010191905055509190505600a165627a7a7230582086afc26fc6765e4dfc7959733180138c2332626ba8d0f29013572d2fbf7a2a4c0029",
  "source": "pragma solidity ^0.4.18;\n\nimport '../lifecycle/OnlyOnce.sol';\nimport '../nodes/IWorkerNode.sol';\nimport '../entities/IDataEntity.sol';\nimport './factories/CognitiveJobFactory.sol';\nimport './factories/WorkerNodeFactory.sol';\nimport './managers/CognitiveJobManager.sol';\nimport './lottery/RoundRobinLottery.sol';\n\nimport './IPandora.sol';\n\n/**\n * @title Pandora Smart Contract\n * @author \"Dr Maxim Orlovsky\" <orlovsky@pandora.foundation>\n *\n * @dev # Pandora Smart Contract\n *\n * Main & root contract implementing the first level of Pandora Boxchain consensus\n * See section [\"3.3. Proof of Cognitive Work (PoCW)\" in Pandora white paper](https://steemit.com/cryptocurrency/%40pandoraboxchain/world-decentralized-ai-on-blockchain-with-cognitive-mining-and-open-markets-for-data-and-algorithms-pandora-boxchain)\n * for more details.\n *\n * Contract token functionality is separated into a separate contract named PAN (after the name of the token)\n * and Pandora contracts just simply inherits PAN contract.\n */\n\ncontract Pandora is IPandora, OnlyOnce, CognitiveJobManager /* final */ {\n\n    /*******************************************************************************************************************\n     * ## Storage\n     */\n\n    /// ### Public variables\n\n\n    /*******************************************************************************************************************\n     * ## Events\n     */\n\n\n    /*******************************************************************************************************************\n     * ## Constructor and initialization\n     */\n\n    /// ### Constructor\n    /// @dev Constructor receives addresses for the owners of whitelisted worker nodes, which will be assigned an owners\n    /// of worker nodes contracts\n    function Pandora (\n        CognitiveJobFactory _jobFactory, /// Factory class for creating CognitiveJob contracts\n        WorkerNodeFactory _nodeFactory, /// Factory class for creating WorkerNode contracts\n        // Constant literal for array size in function arguments not working yet\n        address[3/*=WORKERNODE_WHITELIST_SIZE*/]\n            _workerNodeOwners /// Worker node owners to be whitelisted by the contract\n    )\n    public\n    CognitiveJobManager(_jobFactory, _nodeFactory, _workerNodeOwners)\n    // Ensure that the contract is still uninitialized and `initialize` function be called to check the proper\n    // setup of class factories\n    Initializable() {\n    }\n\n    /// ### Initialization\n    /// @notice Function that checks the proper setup of class factories. May be called only once and only by Pandora\n    /// contract owner.\n    /// @dev Function that checks the proper setup of class factories. May be called only once and only by Pandora\n    /// contract owner.\n    function initialize()\n    public\n    onlyOwner\n    onlyOnce('initialize') {\n        // Checks that the factory contracts creator has assigned Pandora as an owner of the factory contracts:\n        // an important security measure preventing \"Parity-style\" contract bugs\n        require(workerNodeFactory.owner() == address(this));\n        require(cognitiveJobFactory.owner() == address(this));\n\n        Initializable.initialize();\n    }\n\n    /*******************************************************************************************************************\n     * ## Modifiers\n     */\n\n\n    /*******************************************************************************************************************\n     * ## Functions\n     */\n\n    /// ### Public and external\n\n}\n",
  "sourcePath": "/Users/orlovsky/Repositories/pandora/pyrrha-consensus/contracts/pandora/Pandora.sol",
  "compiler": {
    "name": "solc",
    "version": "0.4.19+commit.c4cbbb05.Emscripten.clang"
  },
  "schemaVersion": "1.0.1",
  "updatedAt": "2018-02-19T11:22:09.660Z"
}