{
  "contractName": "RoundRobinLottery",
  "abi": [
    {
      "constant": true,
      "inputs": [
        {
          "name": "_max",
          "type": "uint256"
        }
      ],
      "name": "getRandom",
      "outputs": [
        {
          "name": "o_result",
          "type": "uint256"
        }
      ],
      "payable": false,
      "stateMutability": "view",
      "type": "function"
    },
    {
      "inputs": [],
      "payable": false,
      "stateMutability": "nonpayable",
      "type": "constructor"
    }
  ],
  "bytecode": "0x6060604052341561000f57600080fd5b6000808190555060d3806100246000396000f300606060405260043610603f576000357c0100000000000000000000000000000000000000000000000000000000900463ffffffff168063cd4b6914146044575b600080fd5b3415604e57600080fd5b606260048080359060200190919050506078565b6040518082815260200191505060405180910390f35b600081600054101515608c57600080819055505b600054905060008081548092919060010191905055509190505600a165627a7a72305820f7d882fd39a98574c0278182260ec9a0e2c96402a256100a514705992902944c0029",
  "source": "pragma solidity ^0.4.0;\n\nimport './LotteryEngine.sol';\n\ncontract RoundRobinLottery is LotteryEngine {\n\n    uint256 internal m_lastValue;\n\n    function RoundRobinLottery() {\n        m_lastValue = 0;\n    }\n\n    function getRandom(uint256 _max) public constant returns (uint256 o_result) {\n        if (m_lastValue >= _max) {\n            m_lastValue = 0;\n        }\n        o_result = m_lastValue;\n        m_lastValue++;\n    }\n}\n",
  "sourcePath": "/Users/orlovsky/Repositories/pandora/neuroether/contracts/lottery/RoundRobinLottery.sol",
  "compiler": {
    "name": "solc",
    "version": "0.4.18+commit.9cf6e910.Emscripten.clang"
  },
  "schemaVersion": "1.0.1",
  "updatedAt": "2017-12-11T13:57:57.313Z"
}