{
  "contractName": "WorkerNodeFactory",
  "abi": [
    {
      "constant": true,
      "inputs": [],
      "name": "owner",
      "outputs": [
        {
          "name": "",
          "type": "address"
        }
      ],
      "payable": false,
      "stateMutability": "view",
      "type": "function"
    },
    {
      "constant": false,
      "inputs": [
        {
          "name": "_nodeOwner",
          "type": "address"
        }
      ],
      "name": "create",
      "outputs": [
        {
          "name": "o_workerNode",
          "type": "address"
        }
      ],
      "payable": false,
      "stateMutability": "nonpayable",
      "type": "function"
    },
    {
      "constant": false,
      "inputs": [
        {
          "name": "newOwner",
          "type": "address"
        }
      ],
      "name": "transferOwnership",
      "outputs": [],
      "payable": false,
      "stateMutability": "nonpayable",
      "type": "function"
    },
    {
      "inputs": [],
      "payable": false,
      "stateMutability": "nonpayable",
      "type": "constructor"
    },
    {
      "anonymous": false,
      "inputs": [
        {
          "indexed": true,
          "name": "previousOwner",
          "type": "address"
        },
        {
          "indexed": true,
          "name": "newOwner",
          "type": "address"
        }
      ],
      "name": "OwnershipTransferred",
      "type": "event"
    }
  ],
  "bytecode": "0x6060604052341561000f57600080fd5b336000806101000a81548173ffffffffffffffffffffffffffffffffffffffff021916908373ffffffffffffffffffffffffffffffffffffffff160217905550613e558061005e6000396000f300606060405260043610610057576000357c0100000000000000000000000000000000000000000000000000000000900463ffffffff1680638da5cb5b1461005c5780639ed93318146100b1578063f2fde38b1461012a575b600080fd5b341561006757600080fd5b61006f610163565b604051808273ffffffffffffffffffffffffffffffffffffffff1673ffffffffffffffffffffffffffffffffffffffff16815260200191505060405180910390f35b34156100bc57600080fd5b6100e8600480803573ffffffffffffffffffffffffffffffffffffffff16906020019091905050610188565b604051808273ffffffffffffffffffffffffffffffffffffffff1673ffffffffffffffffffffffffffffffffffffffff16815260200191505060405180910390f35b341561013557600080fd5b610161600480803573ffffffffffffffffffffffffffffffffffffffff16906020019091905050610349565b005b6000809054906101000a900473ffffffffffffffffffffffffffffffffffffffff1681565b60008060009054906101000a900473ffffffffffffffffffffffffffffffffffffffff1673ffffffffffffffffffffffffffffffffffffffff163373ffffffffffffffffffffffffffffffffffffffff161415156101e557600080fd5b6000809054906101000a900473ffffffffffffffffffffffffffffffffffffffff1661020f61049e565b808273ffffffffffffffffffffffffffffffffffffffff1673ffffffffffffffffffffffffffffffffffffffff168152602001915050604051809103906000f080151561025b57600080fd5b9050600073ffffffffffffffffffffffffffffffffffffffff168173ffffffffffffffffffffffffffffffffffffffff161415151561029657fe5b8073ffffffffffffffffffffffffffffffffffffffff1663f2fde38b836040518263ffffffff167c0100000000000000000000000000000000000000000000000000000000028152600401808273ffffffffffffffffffffffffffffffffffffffff1673ffffffffffffffffffffffffffffffffffffffff168152602001915050600060405180830381600087803b151561033057600080fd5b6102c65a03f1151561034157600080fd5b505050919050565b6000809054906101000a900473ffffffffffffffffffffffffffffffffffffffff1673ffffffffffffffffffffffffffffffffffffffff163373ffffffffffffffffffffffffffffffffffffffff161415156103a457600080fd5b600073ffffffffffffffffffffffffffffffffffffffff168173ffffffffffffffffffffffffffffffffffffffff16141515156103e057600080fd5b8073ffffffffffffffffffffffffffffffffffffffff166000809054906101000a900473ffffffffffffffffffffffffffffffffffffffff1673ffffffffffffffffffffffffffffffffffffffff167f8be0079c531659141344cd1fd0a4f28419497f9722a3daafe3b4186f6b6457e060405160405180910390a3806000806101000a81548173ffffffffffffffffffffffffffffffffffffffff021916908373ffffffffffffffffffffffffffffffffffffffff16021790555050565b60405161397b806104af833901905600606060405234156200001057600080fd5b6040516020806200397b83398101604052808051906020019091905050336000806101000a81548173ffffffffffffffffffffffffffffffffffffffff021916908373ffffffffffffffffffffffffffffffffffffffff160217905550600073ffffffffffffffffffffffffffffffffffffffff168173ffffffffffffffffffffffffffffffffffffffff1614151515620000aa57600080fd5b80600360006101000a81548173ffffffffffffffffffffffffffffffffffffffff021916908373ffffffffffffffffffffffffffffffffffffffff16021790555060006005819055506000600460006101000a81548173ffffffffffffffffffffffffffffffffffffffff021916908373ffffffffffffffffffffffffffffffffffffffff160217905550620001536200015a6401000000000262002a53176401000000009004565b5062000847565b6000600180019050606060405190810160405280600260ff1660ff168152602001600160ff1660ff168152602001600860ff1660ff168152508160008060ff1660ff168152602001908152602001600020906003620001bb9291906200055c565b506040805190810160405280600860ff1660ff168152602001600260ff1660ff16815250816000600160ff1660ff168152602001908152602001600020906002620002089291906200060a565b50608060405190810160405280600160ff1660ff168152602001600860ff1660ff168152602001600960ff1660ff168152602001600360ff1660ff16815250816000600260ff1660ff16815260200190815260200160002090600462000270929190620006b8565b50608060405190810160405280600160ff1660ff168152602001600860ff1660ff168152602001600960ff1660ff168152602001600460ff1660ff16815250816000600360ff1660ff168152602001908152602001600020906004620002d8929190620006b8565b5060a060405190810160405280600560ff1660ff168152602001600160ff1660ff168152602001600960ff1660ff168152602001600860ff1660ff168152602001600260ff1660ff16815250816000600460ff1660ff1681526020019081526020016000209060056200034d92919062000766565b506040805190810160405280600860ff1660ff168152602001600260ff1660ff16815250816000600960ff1660ff1681526020019081526020016000209060026200039a9291906200060a565b50606060405190810160405280600260ff1660ff168152602001600960ff1660ff168152602001600660ff1660ff16815250816000600560ff1660ff168152602001908152602001600020906003620003f59291906200055c565b5060a060405190810160405280600760ff1660ff168152602001600160ff1660ff168152602001600960ff1660ff168152602001600860ff1660ff168152602001600260ff1660ff16815250816000600660ff1660ff1681526020019081526020016000209060056200046a92919062000766565b506040805190810160405280600960ff1660ff168152602001600260ff1660ff16815250816000600760ff1660ff168152602001908152602001600020906002620004b79291906200060a565b50620004d86001620004f96401000000000262002dca176401000000009004565b60018060000160016101000a81548160ff021916908360ff16021790555050565b600015158160000160009054906101000a900460ff1615151415156200051e57600080fd5b60018160000160016101000a81548160ff021916908360ff16021790555060018160000160006101000a81548160ff02191690831515021790555050565b82805482825590600052602060002090601f01602090048101928215620005f75791602002820160005b83821115620005c657835183826101000a81548160ff021916908360ff160217905550926020019260010160208160000104928301926001030262000586565b8015620005f55782816101000a81549060ff0219169055600101602081600001049283019260010302620005c6565b505b50905062000606919062000814565b5090565b82805482825590600052602060002090601f01602090048101928215620006a55791602002820160005b838211156200067457835183826101000a81548160ff021916908360ff160217905550926020019260010160208160000104928301926001030262000634565b8015620006a35782816101000a81549060ff021916905560010160208160000104928301926001030262000674565b505b509050620006b4919062000814565b5090565b82805482825590600052602060002090601f01602090048101928215620007535791602002820160005b838211156200072257835183826101000a81548160ff021916908360ff1602179055509260200192600101602081600001049283019260010302620006e2565b8015620007515782816101000a81549060ff021916905560010160208160000104928301926001030262000722565b505b50905062000762919062000814565b5090565b82805482825590600052602060002090601f01602090048101928215620008015791602002820160005b83821115620007d057835183826101000a81548160ff021916908360ff160217905550926020019260010160208160000104928301926001030262000790565b8015620007ff5782816101000a81549060ff0219169055600101602081600001049283019260010302620007d0565b505b50905062000810919062000814565b5090565b6200084491905b808211156200084057600081816101000a81549060ff0219169055506001016200081b565b5090565b90565b61312480620008576000396000f3006060604052600436106101c2576000357c0100000000000000000000000000000000000000000000000000000000900463ffffffff16806306401ff4146101c75780630c3f6acf146101dc5780631a0bc5961461020b5780631a6b2eb1146102605780631c72fad4146102755780631d53dbed146102a45780633b976974146102d357806347850cce14610302578063481deb4e146103175780635200e79e14610345578063597c0b7c1461035a5780635e903db01461036f5780635fd8c7101461038457806374de5bde14610399578063753899e9146103c857806377c6cc38146103dd578063822bb4d1146103f257806383197ef014610421578063897399ae146104365780638da5cb5b1461046f5780638daeaa40146104c45780638dd172a2146105195780638f8004cf14610548578063a73de1ec1461055d578063ae897c5514610572578063b07c7475146105a1578063c162bef5146105b6578063c52164c6146105cb578063c80ce25d146105f4578063cc0e82c114610623578063df12e6c314610652578063e5469d9f14610667578063f1bc94d21461067c578063f2361410146106ab578063f2fde38b146106da578063f5074f4114610713575b600080fd5b34156101d257600080fd5b6101da61074c565b005b34156101e757600080fd5b6101ef610821565b604051808260ff1660ff16815260200191505060405180910390f35b341561021657600080fd5b61021e61083b565b604051808273ffffffffffffffffffffffffffffffffffffffff1673ffffffffffffffffffffffffffffffffffffffff16815260200191505060405180910390f35b341561026b57600080fd5b610273610861565b005b341561028057600080fd5b610288610a47565b604051808260ff1660ff16815260200191505060405180910390f35b34156102af57600080fd5b6102b7610a4c565b604051808260ff1660ff16815260200191505060405180910390f35b34156102de57600080fd5b6102e6610a51565b604051808260ff1660ff16815260200191505060405180910390f35b341561030d57600080fd5b610315610a56565b005b341561032257600080fd5b61034360048080359060200190820180359060200191909192905050610c3c565b005b341561035057600080fd5b610358610e2f565b005b341561036557600080fd5b61036d610ffa565b005b341561037a57600080fd5b6103826111c5565b005b341561038f57600080fd5b6103976113ab565b005b34156103a457600080fd5b6103ac61149c565b604051808260ff1660ff16815260200191505060405180910390f35b34156103d357600080fd5b6103db6114a1565b005b34156103e857600080fd5b6103f0611576565b005b34156103fd57600080fd5b61040561164b565b604051808260ff1660ff16815260200191505060405180910390f35b341561042c57600080fd5b610434611650565b005b341561044157600080fd5b61046d600480803573ffffffffffffffffffffffffffffffffffffffff169060200190919050506116e5565b005b341561047a57600080fd5b610482611a5a565b604051808273ffffffffffffffffffffffffffffffffffffffff1673ffffffffffffffffffffffffffffffffffffffff16815260200191505060405180910390f35b34156104cf57600080fd5b6104d7611a7f565b604051808273ffffffffffffffffffffffffffffffffffffffff1673ffffffffffffffffffffffffffffffffffffffff16815260200191505060405180910390f35b341561052457600080fd5b61052c611aa5565b604051808260ff1660ff16815260200191505060405180910390f35b341561055357600080fd5b61055b611aaa565b005b341561056857600080fd5b610570611ca0565b005b341561057d57600080fd5b610585611eb2565b604051808260ff1660ff16815260200191505060405180910390f35b34156105ac57600080fd5b6105b4611eb7565b005b34156105c157600080fd5b6105c96120b4565b005b34156105d657600080fd5b6105de612290565b6040518082815260200191505060405180910390f35b34156105ff57600080fd5b610607612296565b604051808260ff1660ff16815260200191505060405180910390f35b341561062e57600080fd5b61063661229b565b604051808260ff1660ff16815260200191505060405180910390f35b341561065d57600080fd5b6106656122a0565b005b341561067257600080fd5b61067a61247c565b005b341561068757600080fd5b61068f61254a565b604051808260ff1660ff16815260200191505060405180910390f35b34156106b657600080fd5b6106be61254f565b604051808260ff1660ff16815260200191505060405180910390f35b34156106e557600080fd5b610711600480803573ffffffffffffffffffffffffffffffffffffffff16906020019091905050612554565b005b341561071e57600080fd5b61074a600480803573ffffffffffffffffffffffffffffffffffffffff169060200190919050506126a9565b005b60068060ff16600160000160019054906101000a900460ff1660ff1614151561077457600080fd5b60076000600160000160019054906101000a900460ff1690506107a182600161271d90919063ffffffff16565b81600160000160016101000a81548160ff021916908360ff1602179055507fe8a97ea87e4388fa22d496b95a8ed5ced6717f49790318de2b928aaf37a021d881600160000160019054906101000a900460ff16604051808360ff1660ff1681526020018260ff1660ff1681526020019250505060405180910390a1505050565b6000600160000160019054906101000a900460ff16905090565b600360009054906101000a900473ffffffffffffffffffffffffffffffffffffffff1681565b60058060ff16600160000160019054906101000a900460ff1660ff1614151561088957600080fd5b60026000600160000160019054906101000a900460ff1690506108b682600161271d90919063ffffffff16565b600073ffffffffffffffffffffffffffffffffffffffff16600460009054906101000a900473ffffffffffffffffffffffffffffffffffffffff1673ffffffffffffffffffffffffffffffffffffffff161415151561091457600080fd5b600460009054906101000a900473ffffffffffffffffffffffffffffffffffffffff1673ffffffffffffffffffffffffffffffffffffffff1663b225be4260016040518263ffffffff167c01000000000000000000000000000000000000000000000000000000000281526004018082600281111561098f57fe5b60ff168152602001915050600060405180830381600087803b15156109b357600080fd5b6102c65a03f115156109c457600080fd5b50505081600160000160016101000a81548160ff021916908360ff1602179055507fe8a97ea87e4388fa22d496b95a8ed5ced6717f49790318de2b928aaf37a021d881600160000160019054906101000a900460ff16604051808360ff1660ff1681526020018260ff1660ff1681526020019250505060405180910390a1505050565b600081565b600781565b600681565b60058060ff16600160000160019054906101000a900460ff1660ff16141515610a7e57600080fd5b60026000600160000160019054906101000a900460ff169050610aab82600161271d90919063ffffffff16565b600073ffffffffffffffffffffffffffffffffffffffff16600460009054906101000a900473ffffffffffffffffffffffffffffffffffffffff1673ffffffffffffffffffffffffffffffffffffffff1614151515610b0957600080fd5b600460009054906101000a900473ffffffffffffffffffffffffffffffffffffffff1673ffffffffffffffffffffffffffffffffffffffff1663b225be4260026040518263ffffffff167c010000000000000000000000000000000000000000000000000000000002815260040180826002811115610b8457fe5b60ff168152602001915050600060405180830381600087803b1515610ba857600080fd5b6102c65a03f11515610bb957600080fd5b50505081600160000160016101000a81548160ff021916908360ff1602179055507fe8a97ea87e4388fa22d496b95a8ed5ced6717f49790318de2b928aaf37a021d881600160000160019054906101000a900460ff16604051808360ff1660ff1681526020018260ff1660ff1681526020019250505060405180910390a1505050565b60078060ff16600160000160019054906101000a900460ff1660ff16141515610c6457600080fd5b60026000600160000160019054906101000a900460ff169050610c9182600161271d90919063ffffffff16565b600073ffffffffffffffffffffffffffffffffffffffff16600460009054906101000a900473ffffffffffffffffffffffffffffffffffffffff1673ffffffffffffffffffffffffffffffffffffffff1614151515610cef57600080fd5b600460009054906101000a900473ffffffffffffffffffffffffffffffffffffffff1673ffffffffffffffffffffffffffffffffffffffff16634e6b42a886866040518363ffffffff167c01000000000000000000000000000000000000000000000000000000000281526004018080602001828103825284848281815260200192508082843782019150509350505050600060405180830381600087803b1515610d9957600080fd5b6102c65a03f11515610daa57600080fd5b50505081600160000160016101000a81548160ff021916908360ff1602179055507fe8a97ea87e4388fa22d496b95a8ed5ced6717f49790318de2b928aaf37a021d881600160000160019054906101000a900460ff16604051808360ff1660ff1681526020018260ff1660ff1681526020019250505060405180910390a15050505050565b600073ffffffffffffffffffffffffffffffffffffffff16600360009054906101000a900473ffffffffffffffffffffffffffffffffffffffff1673ffffffffffffffffffffffffffffffffffffffff1614151515610e8d57600080fd5b600360009054906101000a900473ffffffffffffffffffffffffffffffffffffffff1673ffffffffffffffffffffffffffffffffffffffff163373ffffffffffffffffffffffffffffffffffffffff16141515610ee957600080fd5b60096000600160000160019054906101000a900460ff169050610f168260016127ed90919063ffffffff16565b7fe8a97ea87e4388fa22d496b95a8ed5ced6717f49790318de2b928aaf37a021d881600160000160019054906101000a900460ff16604051808360ff1660ff1681526020018260ff1660ff1681526020019250505060405180910390a1600060058190555080600160000160016101000a81548160ff021916908360ff1602179055507fe8a97ea87e4388fa22d496b95a8ed5ced6717f49790318de2b928aaf37a021d882600160000160019054906101000a900460ff16604051808360ff1660ff1681526020018260ff1660ff1681526020019250505060405180910390a15050565b600073ffffffffffffffffffffffffffffffffffffffff16600360009054906101000a900473ffffffffffffffffffffffffffffffffffffffff1673ffffffffffffffffffffffffffffffffffffffff161415151561105857600080fd5b600360009054906101000a900473ffffffffffffffffffffffffffffffffffffffff1673ffffffffffffffffffffffffffffffffffffffff163373ffffffffffffffffffffffffffffffffffffffff161415156110b457600080fd5b60096000600160000160019054906101000a900460ff1690506110e18260016127ed90919063ffffffff16565b7fe8a97ea87e4388fa22d496b95a8ed5ced6717f49790318de2b928aaf37a021d881600160000160019054906101000a900460ff16604051808360ff1660ff1681526020018260ff1660ff1681526020019250505060405180910390a1600060058190555080600160000160016101000a81548160ff021916908360ff1602179055507fe8a97ea87e4388fa22d496b95a8ed5ced6717f49790318de2b928aaf37a021d882600160000160019054906101000a900460ff16604051808360ff1660ff1681526020018260ff1660ff1681526020019250505060405180910390a15050565b60058060ff16600160000160019054906101000a900460ff1660ff161415156111ed57600080fd5b60066000600160000160019054906101000a900460ff16905061121a82600161271d90919063ffffffff16565b600073ffffffffffffffffffffffffffffffffffffffff16600460009054906101000a900473ffffffffffffffffffffffffffffffffffffffff1673ffffffffffffffffffffffffffffffffffffffff161415151561127857600080fd5b600460009054906101000a900473ffffffffffffffffffffffffffffffffffffffff1673ffffffffffffffffffffffffffffffffffffffff1663b225be4260006040518263ffffffff167c0100000000000000000000000000000000000000000000000000000000028152600401808260028111156112f357fe5b60ff168152602001915050600060405180830381600087803b151561131757600080fd5b6102c65a03f1151561132857600080fd5b50505081600160000160016101000a81548160ff021916908360ff1602179055507fe8a97ea87e4388fa22d496b95a8ed5ced6717f49790318de2b928aaf37a021d881600160000160019054906101000a900460ff16604051808360ff1660ff1681526020018260ff1660ff1681526020019250505060405180910390a1505050565b6000809054906101000a900473ffffffffffffffffffffffffffffffffffffffff1673ffffffffffffffffffffffffffffffffffffffff163373ffffffffffffffffffffffffffffffffffffffff1614151561140657600080fd5b60026001611420828260016129879092919063ffffffff16565b6000809054906101000a900473ffffffffffffffffffffffffffffffffffffffff1673ffffffffffffffffffffffffffffffffffffffff166108fc3073ffffffffffffffffffffffffffffffffffffffff16319081150290604051600060405180830381858888f19350505050151561149857600080fd5b5050565b600581565b60018060ff16600160000160019054906101000a900460ff1660ff161415156114c957600080fd5b60026000600160000160019054906101000a900460ff1690506114f682600161271d90919063ffffffff16565b81600160000160016101000a81548160ff021916908360ff1602179055507fe8a97ea87e4388fa22d496b95a8ed5ced6717f49790318de2b928aaf37a021d881600160000160019054906101000a900460ff16604051808360ff1660ff1681526020018260ff1660ff1681526020019250505060405180910390a1505050565b60048060ff16600160000160019054906101000a900460ff1660ff1614151561159e57600080fd5b60056000600160000160019054906101000a900460ff1690506115cb82600161271d90919063ffffffff16565b81600160000160016101000a81548160ff021916908360ff1602179055507fe8a97ea87e4388fa22d496b95a8ed5ced6717f49790318de2b928aaf37a021d881600160000160019054906101000a900460ff16604051808360ff1660ff1681526020018260ff1660ff1681526020019250505060405180910390a1505050565b600181565b6000809054906101000a900473ffffffffffffffffffffffffffffffffffffffff1673ffffffffffffffffffffffffffffffffffffffff163373ffffffffffffffffffffffffffffffffffffffff161415156116ab57600080fd5b6000809054906101000a900473ffffffffffffffffffffffffffffffffffffffff1673ffffffffffffffffffffffffffffffffffffffff16ff5b60008073ffffffffffffffffffffffffffffffffffffffff16600360009054906101000a900473ffffffffffffffffffffffffffffffffffffffff1673ffffffffffffffffffffffffffffffffffffffff161415151561174457600080fd5b3390508073ffffffffffffffffffffffffffffffffffffffff16631a0bc5966000604051602001526040518163ffffffff167c0100000000000000000000000000000000000000000000000000000000028152600401602060405180830381600087803b15156117b357600080fd5b6102c65a03f115156117c457600080fd5b5050506040518051905073ffffffffffffffffffffffffffffffffffffffff16600360009054906101000a900473ffffffffffffffffffffffffffffffffffffffff1673ffffffffffffffffffffffffffffffffffffffff1614151561182957600080fd5b8073ffffffffffffffffffffffffffffffffffffffff16600360009054906101000a900473ffffffffffffffffffffffffffffffffffffffff1673ffffffffffffffffffffffffffffffffffffffff1663fcf4dd69836000604051602001526040518263ffffffff167c0100000000000000000000000000000000000000000000000000000000028152600401808273ffffffffffffffffffffffffffffffffffffffff1673ffffffffffffffffffffffffffffffffffffffff168152602001915050602060405180830381600087803b151561190557600080fd5b6102c65a03f1151561191657600080fd5b5050506040518051905073ffffffffffffffffffffffffffffffffffffffff1614151561194257600080fd5b60028060ff16600160000160019054906101000a900460ff1660ff1614151561196a57600080fd5b60036000600160000160019054906101000a900460ff16905061199782600161271d90919063ffffffff16565b84600460006101000a81548173ffffffffffffffffffffffffffffffffffffffff021916908373ffffffffffffffffffffffffffffffffffffffff16021790555081600160000160016101000a81548160ff021916908360ff1602179055507fe8a97ea87e4388fa22d496b95a8ed5ced6717f49790318de2b928aaf37a021d881600160000160019054906101000a900460ff16604051808360ff1660ff1681526020018260ff1660ff1681526020019250505060405180910390a15050505050565b6000809054906101000a900473ffffffffffffffffffffffffffffffffffffffff1681565b600460009054906101000a900473ffffffffffffffffffffffffffffffffffffffff1681565b600981565b600073ffffffffffffffffffffffffffffffffffffffff16600360009054906101000a900473ffffffffffffffffffffffffffffffffffffffff1673ffffffffffffffffffffffffffffffffffffffff1614151515611b0857600080fd5b600360009054906101000a900473ffffffffffffffffffffffffffffffffffffffff1673ffffffffffffffffffffffffffffffffffffffff163373ffffffffffffffffffffffffffffffffffffffff16141515611b6457600080fd5b60096000600160000160019054906101000a900460ff169050611b918260016127ed90919063ffffffff16565b7fe8a97ea87e4388fa22d496b95a8ed5ced6717f49790318de2b928aaf37a021d881600160000160019054906101000a900460ff16604051808360ff1660ff1681526020018260ff1660ff1681526020019250505060405180910390a16000600581905550611c21600360009054906101000a900473ffffffffffffffffffffffffffffffffffffffff166126a9565b80600160000160016101000a81548160ff021916908360ff1602179055507fe8a97ea87e4388fa22d496b95a8ed5ced6717f49790318de2b928aaf37a021d882600160000160019054906101000a900460ff16604051808360ff1660ff1681526020018260ff1660ff1681526020019250505060405180910390a15050565b600073ffffffffffffffffffffffffffffffffffffffff16600360009054906101000a900473ffffffffffffffffffffffffffffffffffffffff1673ffffffffffffffffffffffffffffffffffffffff1614151515611cfe57600080fd5b600360009054906101000a900473ffffffffffffffffffffffffffffffffffffffff1673ffffffffffffffffffffffffffffffffffffffff163373ffffffffffffffffffffffffffffffffffffffff16141515611d5a57600080fd5b60096000600160000160019054906101000a900460ff169050611d878260016127ed90919063ffffffff16565b7fe8a97ea87e4388fa22d496b95a8ed5ced6717f49790318de2b928aaf37a021d881600160000160019054906101000a900460ff16604051808360ff1660ff1681526020018260ff1660ff1681526020019250505060405180910390a160006005541415611e1f57611e1a600360009054906101000a900473ffffffffffffffffffffffffffffffffffffffff166126a9565b611e33565b600560008154809291906001900391905055505b80600160000160016101000a81548160ff021916908360ff1602179055507fe8a97ea87e4388fa22d496b95a8ed5ced6717f49790318de2b928aaf37a021d882600160000160019054906101000a900460ff16604051808360ff1660ff1681526020018260ff1660ff1681526020019250505060405180910390a15050565b600281565b600460009054906101000a900473ffffffffffffffffffffffffffffffffffffffff1673ffffffffffffffffffffffffffffffffffffffff163373ffffffffffffffffffffffffffffffffffffffff16141515611f1357600080fd5b600360ff16600160000160019054906101000a900460ff1660ff161480611f525750600460ff16600160000160019054906101000a900460ff1660ff16145b80611f755750600560ff16600160000160019054906101000a900460ff1660ff16145b80611f985750600660ff16600160000160019054906101000a900460ff1660ff16145b80611fbb5750600760ff16600160000160019054906101000a900460ff1660ff16145b1515611fc657600080fd5b60026000600160000160019054906101000a900460ff169050611ff382600161271d90919063ffffffff16565b6000600460006101000a81548173ffffffffffffffffffffffffffffffffffffffff021916908373ffffffffffffffffffffffffffffffffffffffff16021790555081600160000160016101000a81548160ff021916908360ff1602179055507fe8a97ea87e4388fa22d496b95a8ed5ced6717f49790318de2b928aaf37a021d881600160000160019054906101000a900460ff16604051808360ff1660ff1681526020018260ff1660ff1681526020019250505060405180910390a15050565b60038060ff16600160000160019054906101000a900460ff1660ff161415156120dc57600080fd5b60026000600160000160019054906101000a900460ff16905061210982600161271d90919063ffffffff16565b600073ffffffffffffffffffffffffffffffffffffffff16600460009054906101000a900473ffffffffffffffffffffffffffffffffffffffff1673ffffffffffffffffffffffffffffffffffffffff161415151561216757600080fd5b600460009054906101000a900473ffffffffffffffffffffffffffffffffffffffff1673ffffffffffffffffffffffffffffffffffffffff166364d3414c60006040518263ffffffff167c01000000000000000000000000000000000000000000000000000000000281526004018082151515158152602001915050600060405180830381600087803b15156121fc57600080fd5b6102c65a03f1151561220d57600080fd5b50505081600160000160016101000a81548160ff021916908360ff1602179055507fe8a97ea87e4388fa22d496b95a8ed5ced6717f49790318de2b928aaf37a021d881600160000160019054906101000a900460ff16604051808360ff1660ff1681526020018260ff1660ff1681526020019250505060405180910390a1505050565b60055481565b600481565b60ff81565b60038060ff16600160000160019054906101000a900460ff1660ff161415156122c857600080fd5b60046000600160000160019054906101000a900460ff1690506122f582600161271d90919063ffffffff16565b600073ffffffffffffffffffffffffffffffffffffffff16600460009054906101000a900473ffffffffffffffffffffffffffffffffffffffff1673ffffffffffffffffffffffffffffffffffffffff161415151561235357600080fd5b600460009054906101000a900473ffffffffffffffffffffffffffffffffffffffff1673ffffffffffffffffffffffffffffffffffffffff166364d3414c60016040518263ffffffff167c01000000000000000000000000000000000000000000000000000000000281526004018082151515158152602001915050600060405180830381600087803b15156123e857600080fd5b6102c65a03f115156123f957600080fd5b50505081600160000160016101000a81548160ff021916908360ff1602179055507fe8a97ea87e4388fa22d496b95a8ed5ced6717f49790318de2b928aaf37a021d881600160000160019054906101000a900460ff16604051808360ff1660ff1681526020018260ff1660ff1681526020019250505060405180910390a1505050565b600073ffffffffffffffffffffffffffffffffffffffff16600360009054906101000a900473ffffffffffffffffffffffffffffffffffffffff1673ffffffffffffffffffffffffffffffffffffffff16141515156124da57600080fd5b600360009054906101000a900473ffffffffffffffffffffffffffffffffffffffff1673ffffffffffffffffffffffffffffffffffffffff163373ffffffffffffffffffffffffffffffffffffffff1614151561253657600080fd5b600560008154809291906001019190505550565b600881565b600381565b6000809054906101000a900473ffffffffffffffffffffffffffffffffffffffff1673ffffffffffffffffffffffffffffffffffffffff163373ffffffffffffffffffffffffffffffffffffffff161415156125af57600080fd5b600073ffffffffffffffffffffffffffffffffffffffff168173ffffffffffffffffffffffffffffffffffffffff16141515156125eb57600080fd5b8073ffffffffffffffffffffffffffffffffffffffff166000809054906101000a900473ffffffffffffffffffffffffffffffffffffffff1673ffffffffffffffffffffffffffffffffffffffff167f8be0079c531659141344cd1fd0a4f28419497f9722a3daafe3b4186f6b6457e060405160405180910390a3806000806101000a81548173ffffffffffffffffffffffffffffffffffffffff021916908373ffffffffffffffffffffffffffffffffffffffff16021790555050565b6000809054906101000a900473ffffffffffffffffffffffffffffffffffffffff1673ffffffffffffffffffffffffffffffffffffffff163373ffffffffffffffffffffffffffffffffffffffff1614151561270457600080fd5b8073ffffffffffffffffffffffffffffffffffffffff16ff5b600080600060ff8560000160019054906101000a900460ff1660ff161415151561274357fe5b600092508460010160008660000160019054906101000a900460ff1660ff1660ff1681526020019081526020016000209150600090505b81805490508110156127d3578360ff16828281548110151561279857fe5b90600052602060002090602091828204019190069054906101000a900460ff1660ff1614156127c657600192505b808060010191505061277a565b600115158315151415156127e657600080fd5b5050505050565b60008060008060ff8660000160019054906101000a900460ff1660ff161415151561281457fe5b600093508560010160008760000160019054906101000a900460ff1660ff1660ff1681526020019081526020016000209250600091505b82805490508210156128a8578460ff16838381548110151561286957fe5b90600052602060002090602091828204019190069054906101000a900460ff1660ff16141561289b57600193506128a8565b818060010192505061284b565b600115158415151415156128bb57600080fd5b600090508560010160008660ff1660ff1681526020019081526020016000209250600091505b828054905082101561294f578560000160019054906101000a900460ff1660ff16838381548110151561291057fe5b90600052602060002090602091828204019190069054906101000a900460ff1660ff161415612942576001905061294f565b81806001019250506128e1565b6001151581151514151561296257600080fd5b848660000160016101000a81548160ff021916908360ff160217905550505050505050565b6000612991612a29565b600080925060408051908101604052808660ff1660ff1681526020018560ff1660ff168152509150600090505b6002811015612a0e578560000160019054906101000a900460ff1660ff1682826002811015156129ea57fe5b602002015160ff161415612a015760019250612a0e565b80806001019150506129be565b60011515831515141515612a2157600080fd5b505050505050565b60408051908101604052806002905b600060ff16815260200190600190039081612a385790505090565b6000600180019050606060405190810160405280600260ff1660ff168152602001600160ff1660ff168152602001600860ff1660ff168152508160008060ff1660ff168152602001908152602001600020906003612ab2929190612e2c565b506040805190810160405280600860ff1660ff168152602001600260ff1660ff16815250816000600160ff1660ff168152602001908152602001600020906002612afd929190612ed3565b50608060405190810160405280600160ff1660ff168152602001600860ff1660ff168152602001600960ff1660ff168152602001600360ff1660ff16815250816000600260ff1660ff168152602001908152602001600020906004612b63929190612f7a565b50608060405190810160405280600160ff1660ff168152602001600860ff1660ff168152602001600960ff1660ff168152602001600460ff1660ff16815250816000600360ff1660ff168152602001908152602001600020906004612bc9929190612f7a565b5060a060405190810160405280600560ff1660ff168152602001600160ff1660ff168152602001600960ff1660ff168152602001600860ff1660ff168152602001600260ff1660ff16815250816000600460ff1660ff168152602001908152602001600020906005612c3c929190613021565b506040805190810160405280600860ff1660ff168152602001600260ff1660ff16815250816000600960ff1660ff168152602001908152602001600020906002612c87929190612ed3565b50606060405190810160405280600260ff1660ff168152602001600960ff1660ff168152602001600660ff1660ff16815250816000600560ff1660ff168152602001908152602001600020906003612ce0929190612e2c565b5060a060405190810160405280600760ff1660ff168152602001600160ff1660ff168152602001600960ff1660ff168152602001600860ff1660ff168152602001600260ff1660ff16815250816000600660ff1660ff168152602001908152602001600020906005612d53929190613021565b506040805190810160405280600960ff1660ff168152602001600260ff1660ff16815250816000600760ff1660ff168152602001908152602001600020906002612d9e929190612ed3565b50612da96001612dca565b60018060000160016101000a81548160ff021916908360ff16021790555050565b600015158160000160009054906101000a900460ff161515141515612dee57600080fd5b60018160000160016101000a81548160ff021916908360ff16021790555060018160000160006101000a81548160ff02191690831515021790555050565b82805482825590600052602060002090601f01602090048101928215612ec25791602002820160005b83821115612e9357835183826101000a81548160ff021916908360ff1602179055509260200192600101602081600001049283019260010302612e55565b8015612ec05782816101000a81549060ff0219169055600101602081600001049283019260010302612e93565b505b509050612ecf91906130c8565b5090565b82805482825590600052602060002090601f01602090048101928215612f695791602002820160005b83821115612f3a57835183826101000a81548160ff021916908360ff1602179055509260200192600101602081600001049283019260010302612efc565b8015612f675782816101000a81549060ff0219169055600101602081600001049283019260010302612f3a565b505b509050612f7691906130c8565b5090565b82805482825590600052602060002090601f016020900481019282156130105791602002820160005b83821115612fe157835183826101000a81548160ff021916908360ff1602179055509260200192600101602081600001049283019260010302612fa3565b801561300e5782816101000a81549060ff0219169055600101602081600001049283019260010302612fe1565b505b50905061301d91906130c8565b5090565b82805482825590600052602060002090601f016020900481019282156130b75791602002820160005b8382111561308857835183826101000a81548160ff021916908360ff160217905550926020019260010160208160000104928301926001030261304a565b80156130b55782816101000a81549060ff0219169055600101602081600001049283019260010302613088565b505b5090506130c491906130c8565b5090565b6130f591905b808211156130f157600081816101000a81549060ff0219169055506001016130ce565b5090565b905600a165627a7a72305820168a9c01d918c3f77cf00e172f709022b679b6c0cc3eaa85dd220b39988fe6eb0029a165627a7a72305820e700061ea90a8345d8e4277c669e5550037a66febc23f2c77cd9a4dd10d316ef0029",
  "source": "pragma solidity ^0.4.15;\n\nimport 'zeppelin-solidity/contracts/ownership/Ownable.sol';\nimport '../Pandora.sol';\nimport '../WorkerNode.sol';\n\ncontract WorkerNodeFactory is Ownable {\n    function WorkerNodeFactory() {}\n\n    /// @dev Creates worker node contract for the main Pandora contract and does necessary preparations of it\n    /// (transferring ownership). Can be called only by a Pandora contract (Pandora is the owner of the factory)\n    function create(\n        address _nodeOwner /// Worker node owner. Contract ownership will be transferred to this owner upon creation\n    )\n    onlyOwner\n    external\n    returns (\n        WorkerNode o_workerNode /// Worker node created by the factory\n    ) {\n        // Creating node\n        o_workerNode = new WorkerNode(Pandora(owner));\n\n        // Checking that it was created correctly\n        assert(o_workerNode != WorkerNode(0));\n\n        // Transferring ownership to the owner supplied by Pandora (it must be a caller of `Pandora.createWorkerNode`\n        // function\n        o_workerNode.transferOwnership(_nodeOwner);\n    }\n}\n",
  "sourcePath": "/Users/orlovsky/Repositories/pandora/neuroether/contracts/factories/WorkerNodeFactory.sol",
  "compiler": {
    "name": "solc",
    "version": "0.4.18+commit.9cf6e910.Emscripten.clang"
  },
  "schemaVersion": "1.0.1",
  "updatedAt": "2017-12-11T13:57:58.003Z"
}