{
  "contractName": "WorkerNodeFactory",
  "abi": [
    {
      "constant": true,
      "inputs": [],
      "name": "owner",
      "outputs": [
        {
          "name": "",
          "type": "address"
        }
      ],
      "payable": false,
      "stateMutability": "view",
      "type": "function"
    },
    {
      "constant": false,
      "inputs": [
        {
          "name": "_nodeOwner",
          "type": "address"
        }
      ],
      "name": "create",
      "outputs": [
        {
          "name": "o_workerNode",
          "type": "address"
        }
      ],
      "payable": false,
      "stateMutability": "nonpayable",
      "type": "function"
    },
    {
      "constant": false,
      "inputs": [
        {
          "name": "newOwner",
          "type": "address"
        }
      ],
      "name": "transferOwnership",
      "outputs": [],
      "payable": false,
      "stateMutability": "nonpayable",
      "type": "function"
    },
    {
      "inputs": [],
      "payable": false,
      "stateMutability": "nonpayable",
      "type": "constructor"
    },
    {
      "anonymous": false,
      "inputs": [
        {
          "indexed": true,
          "name": "previousOwner",
          "type": "address"
        },
        {
          "indexed": true,
          "name": "newOwner",
          "type": "address"
        }
      ],
      "name": "OwnershipTransferred",
      "type": "event"
    }
  ],
  "bytecode": "0x6060604052341561000f57600080fd5b336000806101000a81548173ffffffffffffffffffffffffffffffffffffffff021916908373ffffffffffffffffffffffffffffffffffffffff1602179055506142b68061005e6000396000f300606060405260043610610057576000357c0100000000000000000000000000000000000000000000000000000000900463ffffffff1680638da5cb5b1461005c5780639ed93318146100b1578063f2fde38b1461012a575b600080fd5b341561006757600080fd5b61006f610163565b604051808273ffffffffffffffffffffffffffffffffffffffff1673ffffffffffffffffffffffffffffffffffffffff16815260200191505060405180910390f35b34156100bc57600080fd5b6100e8600480803573ffffffffffffffffffffffffffffffffffffffff16906020019091905050610188565b604051808273ffffffffffffffffffffffffffffffffffffffff1673ffffffffffffffffffffffffffffffffffffffff16815260200191505060405180910390f35b341561013557600080fd5b610161600480803573ffffffffffffffffffffffffffffffffffffffff16906020019091905050610349565b005b6000809054906101000a900473ffffffffffffffffffffffffffffffffffffffff1681565b60008060009054906101000a900473ffffffffffffffffffffffffffffffffffffffff1673ffffffffffffffffffffffffffffffffffffffff163373ffffffffffffffffffffffffffffffffffffffff161415156101e557600080fd5b6000809054906101000a900473ffffffffffffffffffffffffffffffffffffffff1661020f61049e565b808273ffffffffffffffffffffffffffffffffffffffff1673ffffffffffffffffffffffffffffffffffffffff168152602001915050604051809103906000f080151561025b57600080fd5b9050600073ffffffffffffffffffffffffffffffffffffffff168173ffffffffffffffffffffffffffffffffffffffff161415151561029657fe5b8073ffffffffffffffffffffffffffffffffffffffff1663f2fde38b836040518263ffffffff167c0100000000000000000000000000000000000000000000000000000000028152600401808273ffffffffffffffffffffffffffffffffffffffff1673ffffffffffffffffffffffffffffffffffffffff168152602001915050600060405180830381600087803b151561033057600080fd5b6102c65a03f1151561034157600080fd5b505050919050565b6000809054906101000a900473ffffffffffffffffffffffffffffffffffffffff1673ffffffffffffffffffffffffffffffffffffffff163373ffffffffffffffffffffffffffffffffffffffff161415156103a457600080fd5b600073ffffffffffffffffffffffffffffffffffffffff168173ffffffffffffffffffffffffffffffffffffffff16141515156103e057600080fd5b8073ffffffffffffffffffffffffffffffffffffffff166000809054906101000a900473ffffffffffffffffffffffffffffffffffffffff1673ffffffffffffffffffffffffffffffffffffffff167f8be0079c531659141344cd1fd0a4f28419497f9722a3daafe3b4186f6b6457e060405160405180910390a3806000806101000a81548173ffffffffffffffffffffffffffffffffffffffff021916908373ffffffffffffffffffffffffffffffffffffffff16021790555050565b604051613ddb80620004b0833901905600606060405234156200001057600080fd5b60405160208062003ddb83398101604052808051906020019091905050336000806101000a81548173ffffffffffffffffffffffffffffffffffffffff021916908373ffffffffffffffffffffffffffffffffffffffff160217905550600073ffffffffffffffffffffffffffffffffffffffff168173ffffffffffffffffffffffffffffffffffffffff1614151515620000aa57600080fd5b80600760006101000a81548173ffffffffffffffffffffffffffffffffffffffff021916908373ffffffffffffffffffffffffffffffffffffffff16021790555060006009819055506000600860006101000a81548173ffffffffffffffffffffffffffffffffffffffff021916908373ffffffffffffffffffffffffffffffffffffffff160217905550620001536200015a6401000000000262002bdc176401000000009004565b50620009c0565b600060056001019050606060405190810160405280600260ff1660ff168152602001600160ff1660ff168152602001600860ff1660ff168152508160008060ff1660ff168152602001908152602001600020906003620001bc929190620006d5565b506040805190810160405280600860ff1660ff168152602001600260ff1660ff16815250816000600160ff1660ff1681526020019081526020016000209060026200020992919062000783565b5060a060405190810160405280600160ff1660ff168152602001600860ff1660ff168152602001600960ff1660ff168152602001600360ff1660ff16815260200160ff801660ff16815250816000600260ff1660ff1681526020019081526020016000209060056200027d92919062000831565b50608060405190810160405280600160ff1660ff168152602001600860ff1660ff168152602001600960ff1660ff168152602001600460ff1660ff16815250816000600360ff1660ff168152602001908152602001600020906004620002e5929190620008df565b5060a060405190810160405280600560ff1660ff168152602001600160ff1660ff168152602001600960ff1660ff168152602001600860ff1660ff168152602001600260ff1660ff16815250816000600460ff1660ff1681526020019081526020016000209060056200035a92919062000831565b506040805190810160405280600860ff1660ff168152602001600260ff1660ff16815250816000600960ff1660ff168152602001908152602001600020906002620003a792919062000783565b50606060405190810160405280600260ff1660ff168152602001600960ff1660ff168152602001600660ff1660ff16815250816000600560ff1660ff16815260200190815260200160002090600362000402929190620006d5565b5060a060405190810160405280600760ff1660ff168152602001600160ff1660ff168152602001600960ff1660ff168152602001600860ff1660ff168152602001600260ff1660ff16815250816000600660ff1660ff1681526020019081526020016000209060056200047792919062000831565b506040805190810160405280600960ff1660ff168152602001600260ff1660ff16815250816000600760ff1660ff168152602001908152602001600020906002620004c492919062000783565b50620004e3620005056401000000000262002f5f176401000000009004565b6001600560000160016101000a81548160ff021916908360ff16021790555050565b6040805190810160405280601181526020017f5f696e697453746174654d616368696e65000000000000000000000000000000815250600015156004826040518082805190602001908083835b60208310151562000579578051825260208201915060208101905060208303925062000552565b6001836020036101000a038019825116818451168082178552505050505050905001915050908152602001604051809103902060009054906101000a900460ff161515141515620005c957600080fd5b620005e960056200067264010000000002620030b1176401000000009004565b60016004826040518082805190602001908083835b602083101515620006255780518252602082019150602081019050602083039250620005fe565b6001836020036101000a038019825116818451168082178552505050505050905001915050908152602001604051809103902060006101000a81548160ff02191690831515021790555050565b600015158160000160009054906101000a900460ff1615151415156200069757600080fd5b60018160000160016101000a81548160ff021916908360ff16021790555060018160000160006101000a81548160ff02191690831515021790555050565b82805482825590600052602060002090601f01602090048101928215620007705791602002820160005b838211156200073f57835183826101000a81548160ff021916908360ff1602179055509260200192600101602081600001049283019260010302620006ff565b80156200076e5782816101000a81549060ff02191690556001016020816000010492830192600103026200073f565b505b5090506200077f91906200098d565b5090565b82805482825590600052602060002090601f016020900481019282156200081e5791602002820160005b83821115620007ed57835183826101000a81548160ff021916908360ff1602179055509260200192600101602081600001049283019260010302620007ad565b80156200081c5782816101000a81549060ff0219169055600101602081600001049283019260010302620007ed565b505b5090506200082d91906200098d565b5090565b82805482825590600052602060002090601f01602090048101928215620008cc5791602002820160005b838211156200089b57835183826101000a81548160ff021916908360ff16021790555092602001926001016020816000010492830192600103026200085b565b8015620008ca5782816101000a81549060ff02191690556001016020816000010492830192600103026200089b565b505b509050620008db91906200098d565b5090565b82805482825590600052602060002090601f016020900481019282156200097a5791602002820160005b838211156200094957835183826101000a81548160ff021916908360ff160217905550926020019260010160208160000104928301926001030262000909565b8015620009785782816101000a81549060ff021916905560010160208160000104928301926001030262000949565b505b5090506200098991906200098d565b5090565b620009bd91905b80821115620009b957600081816101000a81549060ff02191690555060010162000994565b5090565b90565b61340b80620009d06000396000f3006060604052600436106101b7576000357c0100000000000000000000000000000000000000000000000000000000900463ffffffff16806306401ff4146101bc5780630c3f6acf146101d15780631a0bc596146102005780631a6b2eb1146102555780631c72fad41461026a5780631d53dbed146102995780633b976974146102c857806347850cce146102f7578063481deb4e1461030c5780635200e79e1461033a578063597c0b7c1461034f5780635e903db0146103645780635fd8c7101461037957806374de5bde1461038e578063753899e9146103bd57806377c6cc38146103d2578063822bb4d1146103e757806383197ef014610416578063897399ae1461042b5780638da5cb5b146104645780638daeaa40146104b95780638dd172a21461050e5780638f8004cf1461053d578063a73de1ec14610552578063ae897c5514610567578063b07c747514610596578063c162bef5146105ab578063c52164c6146105c0578063c80ce25d146105e9578063cc0e82c114610618578063df12e6c314610647578063e5469d9f1461065c578063f1bc94d214610671578063f2361410146106a0578063f2fde38b146106cf575b600080fd5b34156101c757600080fd5b6101cf610708565b005b34156101dc57600080fd5b6101e46107e5565b604051808260ff1660ff16815260200191505060405180910390f35b341561020b57600080fd5b6102136107ff565b604051808273ffffffffffffffffffffffffffffffffffffffff1673ffffffffffffffffffffffffffffffffffffffff16815260200191505060405180910390f35b341561026057600080fd5b610268610825565b005b341561027557600080fd5b61027d610a13565b604051808260ff1660ff16815260200191505060405180910390f35b34156102a457600080fd5b6102ac610a18565b604051808260ff1660ff16815260200191505060405180910390f35b34156102d357600080fd5b6102db610a1d565b604051808260ff1660ff16815260200191505060405180910390f35b341561030257600080fd5b61030a610a22565b005b341561031757600080fd5b61033860048080359060200190820180359060200191909192905050610c10565b005b341561034557600080fd5b61034d610e0b565b005b341561035a57600080fd5b610362610fe6565b005b341561036f57600080fd5b6103776111c1565b005b341561038457600080fd5b61038c6113af565b005b341561039957600080fd5b6103a16114a0565b604051808260ff1660ff16815260200191505060405180910390f35b34156103c857600080fd5b6103d06114a5565b005b34156103dd57600080fd5b6103e5611582565b005b34156103f257600080fd5b6103fa61165f565b604051808260ff1660ff16815260200191505060405180910390f35b341561042157600080fd5b610429611664565b005b341561043657600080fd5b610462600480803573ffffffffffffffffffffffffffffffffffffffff16906020019091905050611784565b005b341561046f57600080fd5b610477611ad3565b604051808273ffffffffffffffffffffffffffffffffffffffff1673ffffffffffffffffffffffffffffffffffffffff16815260200191505060405180910390f35b34156104c457600080fd5b6104cc611af8565b604051808273ffffffffffffffffffffffffffffffffffffffff1673ffffffffffffffffffffffffffffffffffffffff16815260200191505060405180910390f35b341561051957600080fd5b610521611b1e565b604051808260ff1660ff16815260200191505060405180910390f35b341561054857600080fd5b610550611b23565b005b341561055d57600080fd5b610565611dce565b005b341561057257600080fd5b61057a612095565b604051808260ff1660ff16815260200191505060405180910390f35b34156105a157600080fd5b6105a961209a565b005b34156105b657600080fd5b6105be61229f565b005b34156105cb57600080fd5b6105d3612483565b6040518082815260200191505060405180910390f35b34156105f457600080fd5b6105fc612489565b604051808260ff1660ff16815260200191505060405180910390f35b341561062357600080fd5b61062b61248e565b604051808260ff1660ff16815260200191505060405180910390f35b341561065257600080fd5b61065a612493565b005b341561066757600080fd5b61066f612677565b005b341561067c57600080fd5b610684612745565b604051808260ff1660ff16815260200191505060405180910390f35b34156106ab57600080fd5b6106b361274a565b604051808260ff1660ff16815260200191505060405180910390f35b34156106da57600080fd5b610706600480803573ffffffffffffffffffffffffffffffffffffffff1690602001909190505061274f565b005b60068060ff16600560000160019054906101000a900460ff1660ff1614151561073057600080fd5b60076000600560000160019054906101000a900460ff16905061075d8260056128a490919063ffffffff16565b81600560000160016101000a81548160ff021916908360ff1602179055507fe8a97ea87e4388fa22d496b95a8ed5ced6717f49790318de2b928aaf37a021d881600560000160019054906101000a900460ff16604051808360ff1660ff1681526020018260ff1660ff1681526020019250505060405180910390a16107e0612974565b505050565b6000600560000160019054906101000a900460ff16905090565b600760009054906101000a900473ffffffffffffffffffffffffffffffffffffffff1681565b60058060ff16600560000160019054906101000a900460ff1660ff1614151561084d57600080fd5b60026000600560000160019054906101000a900460ff16905061087a8260056128a490919063ffffffff16565b600073ffffffffffffffffffffffffffffffffffffffff16600860009054906101000a900473ffffffffffffffffffffffffffffffffffffffff1673ffffffffffffffffffffffffffffffffffffffff16141515156108d857600080fd5b600860009054906101000a900473ffffffffffffffffffffffffffffffffffffffff1673ffffffffffffffffffffffffffffffffffffffff1663b225be4260016040518263ffffffff167c01000000000000000000000000000000000000000000000000000000000281526004018082600281111561095357fe5b60ff168152602001915050600060405180830381600087803b151561097757600080fd5b6102c65a03f1151561098857600080fd5b50505081600560000160016101000a81548160ff021916908360ff1602179055507fe8a97ea87e4388fa22d496b95a8ed5ced6717f49790318de2b928aaf37a021d881600560000160019054906101000a900460ff16604051808360ff1660ff1681526020018260ff1660ff1681526020019250505060405180910390a1610a0e612974565b505050565b600081565b600781565b600681565b60058060ff16600560000160019054906101000a900460ff1660ff16141515610a4a57600080fd5b60026000600560000160019054906101000a900460ff169050610a778260056128a490919063ffffffff16565b600073ffffffffffffffffffffffffffffffffffffffff16600860009054906101000a900473ffffffffffffffffffffffffffffffffffffffff1673ffffffffffffffffffffffffffffffffffffffff1614151515610ad557600080fd5b600860009054906101000a900473ffffffffffffffffffffffffffffffffffffffff1673ffffffffffffffffffffffffffffffffffffffff1663b225be4260026040518263ffffffff167c010000000000000000000000000000000000000000000000000000000002815260040180826002811115610b5057fe5b60ff168152602001915050600060405180830381600087803b1515610b7457600080fd5b6102c65a03f11515610b8557600080fd5b50505081600560000160016101000a81548160ff021916908360ff1602179055507fe8a97ea87e4388fa22d496b95a8ed5ced6717f49790318de2b928aaf37a021d881600560000160019054906101000a900460ff16604051808360ff1660ff1681526020018260ff1660ff1681526020019250505060405180910390a1610c0b612974565b505050565b60078060ff16600560000160019054906101000a900460ff1660ff16141515610c3857600080fd5b60026000600560000160019054906101000a900460ff169050610c658260056128a490919063ffffffff16565b600073ffffffffffffffffffffffffffffffffffffffff16600860009054906101000a900473ffffffffffffffffffffffffffffffffffffffff1673ffffffffffffffffffffffffffffffffffffffff1614151515610cc357600080fd5b600860009054906101000a900473ffffffffffffffffffffffffffffffffffffffff1673ffffffffffffffffffffffffffffffffffffffff16634e6b42a886866040518363ffffffff167c01000000000000000000000000000000000000000000000000000000000281526004018080602001828103825284848281815260200192508082843782019150509350505050600060405180830381600087803b1515610d6d57600080fd5b6102c65a03f11515610d7e57600080fd5b50505081600560000160016101000a81548160ff021916908360ff1602179055507fe8a97ea87e4388fa22d496b95a8ed5ced6717f49790318de2b928aaf37a021d881600560000160019054906101000a900460ff16604051808360ff1660ff1681526020018260ff1660ff1681526020019250505060405180910390a1610e04612974565b5050505050565b600073ffffffffffffffffffffffffffffffffffffffff16600760009054906101000a900473ffffffffffffffffffffffffffffffffffffffff1673ffffffffffffffffffffffffffffffffffffffff1614151515610e6957600080fd5b600760009054906101000a900473ffffffffffffffffffffffffffffffffffffffff1673ffffffffffffffffffffffffffffffffffffffff163373ffffffffffffffffffffffffffffffffffffffff16141515610ec557600080fd5b60096000600560000160019054906101000a900460ff169050610ef282600561297690919063ffffffff16565b7fe8a97ea87e4388fa22d496b95a8ed5ced6717f49790318de2b928aaf37a021d881600560000160019054906101000a900460ff16604051808360ff1660ff1681526020018260ff1660ff1681526020019250505060405180910390a1610f57612974565b600060098190555080600560000160016101000a81548160ff021916908360ff1602179055507fe8a97ea87e4388fa22d496b95a8ed5ced6717f49790318de2b928aaf37a021d882600560000160019054906101000a900460ff16604051808360ff1660ff1681526020018260ff1660ff1681526020019250505060405180910390a1610fe2612974565b5050565b600073ffffffffffffffffffffffffffffffffffffffff16600760009054906101000a900473ffffffffffffffffffffffffffffffffffffffff1673ffffffffffffffffffffffffffffffffffffffff161415151561104457600080fd5b600760009054906101000a900473ffffffffffffffffffffffffffffffffffffffff1673ffffffffffffffffffffffffffffffffffffffff163373ffffffffffffffffffffffffffffffffffffffff161415156110a057600080fd5b60096000600560000160019054906101000a900460ff1690506110cd82600561297690919063ffffffff16565b7fe8a97ea87e4388fa22d496b95a8ed5ced6717f49790318de2b928aaf37a021d881600560000160019054906101000a900460ff16604051808360ff1660ff1681526020018260ff1660ff1681526020019250505060405180910390a1611132612974565b600060098190555080600560000160016101000a81548160ff021916908360ff1602179055507fe8a97ea87e4388fa22d496b95a8ed5ced6717f49790318de2b928aaf37a021d882600560000160019054906101000a900460ff16604051808360ff1660ff1681526020018260ff1660ff1681526020019250505060405180910390a16111bd612974565b5050565b60058060ff16600560000160019054906101000a900460ff1660ff161415156111e957600080fd5b60066000600560000160019054906101000a900460ff1690506112168260056128a490919063ffffffff16565b600073ffffffffffffffffffffffffffffffffffffffff16600860009054906101000a900473ffffffffffffffffffffffffffffffffffffffff1673ffffffffffffffffffffffffffffffffffffffff161415151561127457600080fd5b600860009054906101000a900473ffffffffffffffffffffffffffffffffffffffff1673ffffffffffffffffffffffffffffffffffffffff1663b225be4260006040518263ffffffff167c0100000000000000000000000000000000000000000000000000000000028152600401808260028111156112ef57fe5b60ff168152602001915050600060405180830381600087803b151561131357600080fd5b6102c65a03f1151561132457600080fd5b50505081600560000160016101000a81548160ff021916908360ff1602179055507fe8a97ea87e4388fa22d496b95a8ed5ced6717f49790318de2b928aaf37a021d881600560000160019054906101000a900460ff16604051808360ff1660ff1681526020018260ff1660ff1681526020019250505060405180910390a16113aa612974565b505050565b6000809054906101000a900473ffffffffffffffffffffffffffffffffffffffff1673ffffffffffffffffffffffffffffffffffffffff163373ffffffffffffffffffffffffffffffffffffffff1614151561140a57600080fd5b6002600161142482826005612b109092919063ffffffff16565b6000809054906101000a900473ffffffffffffffffffffffffffffffffffffffff1673ffffffffffffffffffffffffffffffffffffffff166108fc3073ffffffffffffffffffffffffffffffffffffffff16319081150290604051600060405180830381858888f19350505050151561149c57600080fd5b5050565b600581565b60018060ff16600560000160019054906101000a900460ff1660ff161415156114cd57600080fd5b60026000600560000160019054906101000a900460ff1690506114fa8260056128a490919063ffffffff16565b81600560000160016101000a81548160ff021916908360ff1602179055507fe8a97ea87e4388fa22d496b95a8ed5ced6717f49790318de2b928aaf37a021d881600560000160019054906101000a900460ff16604051808360ff1660ff1681526020018260ff1660ff1681526020019250505060405180910390a161157d612974565b505050565b60048060ff16600560000160019054906101000a900460ff1660ff161415156115aa57600080fd5b60056000600560000160019054906101000a900460ff1690506115d78260056128a490919063ffffffff16565b81600560000160016101000a81548160ff021916908360ff1602179055507fe8a97ea87e4388fa22d496b95a8ed5ced6717f49790318de2b928aaf37a021d881600560000160019054906101000a900460ff16604051808360ff1660ff1681526020018260ff1660ff1681526020019250505060405180910390a161165a612974565b505050565b600181565b600073ffffffffffffffffffffffffffffffffffffffff16600760009054906101000a900473ffffffffffffffffffffffffffffffffffffffff1673ffffffffffffffffffffffffffffffffffffffff16141515156116c257600080fd5b600760009054906101000a900473ffffffffffffffffffffffffffffffffffffffff1673ffffffffffffffffffffffffffffffffffffffff163373ffffffffffffffffffffffffffffffffffffffff1614151561171e57600080fd5b7f4447806c1856b9de7671994ea8dbdc03abd565d1b8c00ffc5fa053c49bd40ecc60405160405180910390a16000809054906101000a900473ffffffffffffffffffffffffffffffffffffffff1673ffffffffffffffffffffffffffffffffffffffff16ff5b60008073ffffffffffffffffffffffffffffffffffffffff16600760009054906101000a900473ffffffffffffffffffffffffffffffffffffffff1673ffffffffffffffffffffffffffffffffffffffff16141515156117e357600080fd5b3390508073ffffffffffffffffffffffffffffffffffffffff16631a0bc5966000604051602001526040518163ffffffff167c0100000000000000000000000000000000000000000000000000000000028152600401602060405180830381600087803b151561185257600080fd5b6102c65a03f1151561186357600080fd5b5050506040518051905073ffffffffffffffffffffffffffffffffffffffff16600760009054906101000a900473ffffffffffffffffffffffffffffffffffffffff1673ffffffffffffffffffffffffffffffffffffffff161415156118c857600080fd5b600760009054906101000a900473ffffffffffffffffffffffffffffffffffffffff1673ffffffffffffffffffffffffffffffffffffffff16630ba58574826000604051602001526040518263ffffffff167c0100000000000000000000000000000000000000000000000000000000028152600401808273ffffffffffffffffffffffffffffffffffffffff1673ffffffffffffffffffffffffffffffffffffffff168152602001915050602060405180830381600087803b151561198d57600080fd5b6102c65a03f1151561199e57600080fd5b5050506040518051905015156119b357600080fd5b60028060ff16600560000160019054906101000a900460ff1660ff161415156119db57600080fd5b60036000600560000160019054906101000a900460ff169050611a088260056128a490919063ffffffff16565b84600860006101000a81548173ffffffffffffffffffffffffffffffffffffffff021916908373ffffffffffffffffffffffffffffffffffffffff16021790555081600560000160016101000a81548160ff021916908360ff1602179055507fe8a97ea87e4388fa22d496b95a8ed5ced6717f49790318de2b928aaf37a021d881600560000160019054906101000a900460ff16604051808360ff1660ff1681526020018260ff1660ff1681526020019250505060405180910390a1611acc612974565b5050505050565b6000809054906101000a900473ffffffffffffffffffffffffffffffffffffffff1681565b600860009054906101000a900473ffffffffffffffffffffffffffffffffffffffff1681565b600981565b600073ffffffffffffffffffffffffffffffffffffffff16600760009054906101000a900473ffffffffffffffffffffffffffffffffffffffff1673ffffffffffffffffffffffffffffffffffffffff1614151515611b8157600080fd5b600760009054906101000a900473ffffffffffffffffffffffffffffffffffffffff1673ffffffffffffffffffffffffffffffffffffffff163373ffffffffffffffffffffffffffffffffffffffff16141515611bdd57600080fd5b60096000600560000160019054906101000a900460ff169050611c0a82600561297690919063ffffffff16565b7fe8a97ea87e4388fa22d496b95a8ed5ced6717f49790318de2b928aaf37a021d881600560000160019054906101000a900460ff16604051808360ff1660ff1681526020018260ff1660ff1681526020019250505060405180910390a1611c6f612974565b6000600981905550600760009054906101000a900473ffffffffffffffffffffffffffffffffffffffff1673ffffffffffffffffffffffffffffffffffffffff1663ae1092ae306040518263ffffffff167c0100000000000000000000000000000000000000000000000000000000028152600401808273ffffffffffffffffffffffffffffffffffffffff1673ffffffffffffffffffffffffffffffffffffffff168152602001915050600060405180830381600087803b1515611d3357600080fd5b6102c65a03f11515611d4457600080fd5b50505080600560000160016101000a81548160ff021916908360ff1602179055507fe8a97ea87e4388fa22d496b95a8ed5ced6717f49790318de2b928aaf37a021d882600560000160019054906101000a900460ff16604051808360ff1660ff1681526020018260ff1660ff1681526020019250505060405180910390a1611dca612974565b5050565b600073ffffffffffffffffffffffffffffffffffffffff16600760009054906101000a900473ffffffffffffffffffffffffffffffffffffffff1673ffffffffffffffffffffffffffffffffffffffff1614151515611e2c57600080fd5b600760009054906101000a900473ffffffffffffffffffffffffffffffffffffffff1673ffffffffffffffffffffffffffffffffffffffff163373ffffffffffffffffffffffffffffffffffffffff16141515611e8857600080fd5b60096000600560000160019054906101000a900460ff169050611eb582600561297690919063ffffffff16565b7fe8a97ea87e4388fa22d496b95a8ed5ced6717f49790318de2b928aaf37a021d881600560000160019054906101000a900460ff16604051808360ff1660ff1681526020018260ff1660ff1681526020019250505060405180910390a1611f1a612974565b60006009541415611ffa57600760009054906101000a900473ffffffffffffffffffffffffffffffffffffffff1673ffffffffffffffffffffffffffffffffffffffff1663ae1092ae306040518263ffffffff167c0100000000000000000000000000000000000000000000000000000000028152600401808273ffffffffffffffffffffffffffffffffffffffff1673ffffffffffffffffffffffffffffffffffffffff168152602001915050600060405180830381600087803b1515611fe157600080fd5b6102c65a03f11515611ff257600080fd5b50505061200e565b600960008154809291906001900391905055505b80600560000160016101000a81548160ff021916908360ff1602179055507fe8a97ea87e4388fa22d496b95a8ed5ced6717f49790318de2b928aaf37a021d882600560000160019054906101000a900460ff16604051808360ff1660ff1681526020018260ff1660ff1681526020019250505060405180910390a1612091612974565b5050565b600281565b600860009054906101000a900473ffffffffffffffffffffffffffffffffffffffff1673ffffffffffffffffffffffffffffffffffffffff163373ffffffffffffffffffffffffffffffffffffffff161415156120f657600080fd5b600360ff16600560000160019054906101000a900460ff1660ff1614806121355750600460ff16600560000160019054906101000a900460ff1660ff16145b806121585750600560ff16600560000160019054906101000a900460ff1660ff16145b8061217b5750600660ff16600560000160019054906101000a900460ff1660ff16145b8061219e5750600760ff16600560000160019054906101000a900460ff1660ff16145b15156121a957600080fd5b60026000600560000160019054906101000a900460ff1690506121d68260056128a490919063ffffffff16565b6000600860006101000a81548173ffffffffffffffffffffffffffffffffffffffff021916908373ffffffffffffffffffffffffffffffffffffffff16021790555081600560000160016101000a81548160ff021916908360ff1602179055507fe8a97ea87e4388fa22d496b95a8ed5ced6717f49790318de2b928aaf37a021d881600560000160019054906101000a900460ff16604051808360ff1660ff1681526020018260ff1660ff1681526020019250505060405180910390a161229b612974565b5050565b60038060ff16600560000160019054906101000a900460ff1660ff161415156122c757600080fd5b60026000600560000160019054906101000a900460ff1690506122f48260056128a490919063ffffffff16565b600073ffffffffffffffffffffffffffffffffffffffff16600860009054906101000a900473ffffffffffffffffffffffffffffffffffffffff1673ffffffffffffffffffffffffffffffffffffffff161415151561235257600080fd5b600860009054906101000a900473ffffffffffffffffffffffffffffffffffffffff1673ffffffffffffffffffffffffffffffffffffffff166364d3414c60006040518263ffffffff167c01000000000000000000000000000000000000000000000000000000000281526004018082151515158152602001915050600060405180830381600087803b15156123e757600080fd5b6102c65a03f115156123f857600080fd5b50505081600560000160016101000a81548160ff021916908360ff1602179055507fe8a97ea87e4388fa22d496b95a8ed5ced6717f49790318de2b928aaf37a021d881600560000160019054906101000a900460ff16604051808360ff1660ff1681526020018260ff1660ff1681526020019250505060405180910390a161247e612974565b505050565b60095481565b600481565b60ff81565b60038060ff16600560000160019054906101000a900460ff1660ff161415156124bb57600080fd5b60046000600560000160019054906101000a900460ff1690506124e88260056128a490919063ffffffff16565b600073ffffffffffffffffffffffffffffffffffffffff16600860009054906101000a900473ffffffffffffffffffffffffffffffffffffffff1673ffffffffffffffffffffffffffffffffffffffff161415151561254657600080fd5b600860009054906101000a900473ffffffffffffffffffffffffffffffffffffffff1673ffffffffffffffffffffffffffffffffffffffff166364d3414c60016040518263ffffffff167c01000000000000000000000000000000000000000000000000000000000281526004018082151515158152602001915050600060405180830381600087803b15156125db57600080fd5b6102c65a03f115156125ec57600080fd5b50505081600560000160016101000a81548160ff021916908360ff1602179055507fe8a97ea87e4388fa22d496b95a8ed5ced6717f49790318de2b928aaf37a021d881600560000160019054906101000a900460ff16604051808360ff1660ff1681526020018260ff1660ff1681526020019250505060405180910390a1612672612974565b505050565b600073ffffffffffffffffffffffffffffffffffffffff16600760009054906101000a900473ffffffffffffffffffffffffffffffffffffffff1673ffffffffffffffffffffffffffffffffffffffff16141515156126d557600080fd5b600760009054906101000a900473ffffffffffffffffffffffffffffffffffffffff1673ffffffffffffffffffffffffffffffffffffffff163373ffffffffffffffffffffffffffffffffffffffff1614151561273157600080fd5b600960008154809291906001019190505550565b600881565b600381565b6000809054906101000a900473ffffffffffffffffffffffffffffffffffffffff1673ffffffffffffffffffffffffffffffffffffffff163373ffffffffffffffffffffffffffffffffffffffff161415156127aa57600080fd5b600073ffffffffffffffffffffffffffffffffffffffff168173ffffffffffffffffffffffffffffffffffffffff16141515156127e657600080fd5b8073ffffffffffffffffffffffffffffffffffffffff166000809054906101000a900473ffffffffffffffffffffffffffffffffffffffff1673ffffffffffffffffffffffffffffffffffffffff167f8be0079c531659141344cd1fd0a4f28419497f9722a3daafe3b4186f6b6457e060405160405180910390a3806000806101000a81548173ffffffffffffffffffffffffffffffffffffffff021916908373ffffffffffffffffffffffffffffffffffffffff16021790555050565b600080600060ff8560000160019054906101000a900460ff1660ff16141515156128ca57fe5b600092508460010160008660000160019054906101000a900460ff1660ff1660ff1681526020019081526020016000209150600090505b818054905081101561295a578360ff16828281548110151561291f57fe5b90600052602060002090602091828204019190069054906101000a900460ff1660ff16141561294d57600192505b8080600101915050612901565b6001151583151514151561296d57600080fd5b5050505050565b565b60008060008060ff8660000160019054906101000a900460ff1660ff161415151561299d57fe5b600093508560010160008760000160019054906101000a900460ff1660ff1660ff1681526020019081526020016000209250600091505b8280549050821015612a31578460ff1683838154811015156129f257fe5b90600052602060002090602091828204019190069054906101000a900460ff1660ff161415612a245760019350612a31565b81806001019250506129d4565b60011515841515141515612a4457600080fd5b600090508560010160008660ff1660ff1681526020019081526020016000209250600091505b8280549050821015612ad8578560000160019054906101000a900460ff1660ff168383815481101515612a9957fe5b90600052602060002090602091828204019190069054906101000a900460ff1660ff161415612acb5760019050612ad8565b8180600101925050612a6a565b60011515811515141515612aeb57600080fd5b848660000160016101000a81548160ff021916908360ff160217905550505050505050565b6000612b1a612bb2565b600080925060408051908101604052808660ff1660ff1681526020018560ff1660ff168152509150600090505b6002811015612b97578560000160019054906101000a900460ff1660ff168282600281101515612b7357fe5b602002015160ff161415612b8a5760019250612b97565b8080600101915050612b47565b60011515831515141515612baa57600080fd5b505050505050565b60408051908101604052806002905b600060ff16815260200190600190039081612bc15790505090565b600060056001019050606060405190810160405280600260ff1660ff168152602001600160ff1660ff168152602001600860ff1660ff168152508160008060ff1660ff168152602001908152602001600020906003612c3c929190613113565b506040805190810160405280600860ff1660ff168152602001600260ff1660ff16815250816000600160ff1660ff168152602001908152602001600020906002612c879291906131ba565b5060a060405190810160405280600160ff1660ff168152602001600860ff1660ff168152602001600960ff1660ff168152602001600360ff1660ff16815260200160ff801660ff16815250816000600260ff1660ff168152602001908152602001600020906005612cf9929190613261565b50608060405190810160405280600160ff1660ff168152602001600860ff1660ff168152602001600960ff1660ff168152602001600460ff1660ff16815250816000600360ff1660ff168152602001908152602001600020906004612d5f929190613308565b5060a060405190810160405280600560ff1660ff168152602001600160ff1660ff168152602001600960ff1660ff168152602001600860ff1660ff168152602001600260ff1660ff16815250816000600460ff1660ff168152602001908152602001600020906005612dd2929190613261565b506040805190810160405280600860ff1660ff168152602001600260ff1660ff16815250816000600960ff1660ff168152602001908152602001600020906002612e1d9291906131ba565b50606060405190810160405280600260ff1660ff168152602001600960ff1660ff168152602001600660ff1660ff16815250816000600560ff1660ff168152602001908152602001600020906003612e76929190613113565b5060a060405190810160405280600760ff1660ff168152602001600160ff1660ff168152602001600960ff1660ff168152602001600860ff1660ff168152602001600260ff1660ff16815250816000600660ff1660ff168152602001908152602001600020906005612ee9929190613261565b506040805190810160405280600960ff1660ff168152602001600260ff1660ff16815250816000600760ff1660ff168152602001908152602001600020906002612f349291906131ba565b50612f3d612f5f565b6001600560000160016101000a81548160ff021916908360ff16021790555050565b6040805190810160405280601181526020017f5f696e697453746174654d616368696e65000000000000000000000000000000815250600015156004826040518082805190602001908083835b602083101515612fd15780518252602082019150602081019050602083039250612fac565b6001836020036101000a038019825116818451168082178552505050505050905001915050908152602001604051809103902060009054906101000a900460ff16151514151561302057600080fd5b61302a60056130b1565b60016004826040518082805190602001908083835b602083101515613064578051825260208201915060208101905060208303925061303f565b6001836020036101000a038019825116818451168082178552505050505050905001915050908152602001604051809103902060006101000a81548160ff02191690831515021790555050565b600015158160000160009054906101000a900460ff1615151415156130d557600080fd5b60018160000160016101000a81548160ff021916908360ff16021790555060018160000160006101000a81548160ff02191690831515021790555050565b82805482825590600052602060002090601f016020900481019282156131a95791602002820160005b8382111561317a57835183826101000a81548160ff021916908360ff160217905550926020019260010160208160000104928301926001030261313c565b80156131a75782816101000a81549060ff021916905560010160208160000104928301926001030261317a565b505b5090506131b691906133af565b5090565b82805482825590600052602060002090601f016020900481019282156132505791602002820160005b8382111561322157835183826101000a81548160ff021916908360ff16021790555092602001926001016020816000010492830192600103026131e3565b801561324e5782816101000a81549060ff0219169055600101602081600001049283019260010302613221565b505b50905061325d91906133af565b5090565b82805482825590600052602060002090601f016020900481019282156132f75791602002820160005b838211156132c857835183826101000a81548160ff021916908360ff160217905550926020019260010160208160000104928301926001030261328a565b80156132f55782816101000a81549060ff02191690556001016020816000010492830192600103026132c8565b505b50905061330491906133af565b5090565b82805482825590600052602060002090601f0160209004810192821561339e5791602002820160005b8382111561336f57835183826101000a81548160ff021916908360ff1602179055509260200192600101602081600001049283019260010302613331565b801561339c5782816101000a81549060ff021916905560010160208160000104928301926001030261336f565b505b5090506133ab91906133af565b5090565b6133dc91905b808211156133d857600081816101000a81549060ff0219169055506001016133b5565b5090565b905600a165627a7a72305820761cf0402e105bfa6a645fceb0201c623413370351a4c9315cf96d0d328c7b090029a165627a7a723058203c368927641eadc146db5d12296cfc7c6b2f567ef12487cefe330e54072338cd0029",
  "source": "pragma solidity ^0.4.18;\n\nimport 'zeppelin-solidity/contracts/ownership/Ownable.sol';\nimport '../../nodes/WorkerNode.sol';\nimport '../IPandora.sol';\n\ncontract WorkerNodeFactory is Ownable {\n    function WorkerNodeFactory() public {}\n\n    /// @dev Creates worker node contract for the main Pandora contract and does necessary preparations of it\n    /// (transferring ownership). Can be called only by a Pandora contract (Pandora is the owner of the factory)\n    function create(\n        address _nodeOwner /// Worker node owner. Contract ownership will be transferred to this owner upon creation\n    )\n    onlyOwner\n    external\n    returns (\n        WorkerNode o_workerNode /// Worker node created by the factory\n    ) {\n        // Creating node\n        o_workerNode = new WorkerNode(IPandora(owner));\n\n        // Checking that it was created correctly\n        assert(o_workerNode != WorkerNode(0));\n\n        // Transferring ownership to the owner supplied by Pandora (it must be a caller of `Pandora.createWorkerNode`\n        // function\n        o_workerNode.transferOwnership(_nodeOwner);\n    }\n}\n",
  "sourcePath": "/Users/orlovsky/Repositories/pandora/pyrrha-consensus/contracts/pandora/factories/WorkerNodeFactory.sol",
  "compiler": {
    "name": "solc",
    "version": "0.4.18+commit.9cf6e910.Emscripten.clang"
  },
  "schemaVersion": "1.0.1",
  "updatedAt": "2017-12-17T07:58:46.680Z"
}