{
  "contractName": "WorkerNodeStates",
  "abi": [
    {
      "constant": true,
      "inputs": [],
      "name": "Uninitialized",
      "outputs": [
        {
          "name": "",
          "type": "uint8"
        }
      ],
      "payable": false,
      "stateMutability": "view",
      "type": "function"
    },
    {
      "constant": true,
      "inputs": [],
      "name": "Computing",
      "outputs": [
        {
          "name": "",
          "type": "uint8"
        }
      ],
      "payable": false,
      "stateMutability": "view",
      "type": "function"
    },
    {
      "constant": true,
      "inputs": [],
      "name": "ReadyForComputing",
      "outputs": [
        {
          "name": "",
          "type": "uint8"
        }
      ],
      "payable": false,
      "stateMutability": "view",
      "type": "function"
    },
    {
      "constant": true,
      "inputs": [],
      "name": "ValidatingData",
      "outputs": [
        {
          "name": "",
          "type": "uint8"
        }
      ],
      "payable": false,
      "stateMutability": "view",
      "type": "function"
    },
    {
      "constant": true,
      "inputs": [],
      "name": "Offline",
      "outputs": [
        {
          "name": "",
          "type": "uint8"
        }
      ],
      "payable": false,
      "stateMutability": "view",
      "type": "function"
    },
    {
      "constant": true,
      "inputs": [],
      "name": "UnderPenalty",
      "outputs": [
        {
          "name": "",
          "type": "uint8"
        }
      ],
      "payable": false,
      "stateMutability": "view",
      "type": "function"
    },
    {
      "constant": true,
      "inputs": [],
      "name": "Idle",
      "outputs": [
        {
          "name": "",
          "type": "uint8"
        }
      ],
      "payable": false,
      "stateMutability": "view",
      "type": "function"
    },
    {
      "constant": true,
      "inputs": [],
      "name": "ReadyForDataValidation",
      "outputs": [
        {
          "name": "",
          "type": "uint8"
        }
      ],
      "payable": false,
      "stateMutability": "view",
      "type": "function"
    },
    {
      "constant": true,
      "inputs": [],
      "name": "Destroyed",
      "outputs": [
        {
          "name": "",
          "type": "uint8"
        }
      ],
      "payable": false,
      "stateMutability": "view",
      "type": "function"
    },
    {
      "constant": true,
      "inputs": [],
      "name": "InsufficientStake",
      "outputs": [
        {
          "name": "",
          "type": "uint8"
        }
      ],
      "payable": false,
      "stateMutability": "view",
      "type": "function"
    },
    {
      "constant": true,
      "inputs": [],
      "name": "Assigned",
      "outputs": [
        {
          "name": "",
          "type": "uint8"
        }
      ],
      "payable": false,
      "stateMutability": "view",
      "type": "function"
    }
  ],
  "bytecode": "0x6060604052341561000f57600080fd5b61031c8061001e6000396000f3006060604052600436106100af576000357c0100000000000000000000000000000000000000000000000000000000900463ffffffff1680631c72fad4146100b45780631d53dbed146100e35780633b9769741461011257806374de5bde14610141578063822bb4d1146101705780638dd172a21461019f578063ae897c55146101ce578063c80ce25d146101fd578063cc0e82c11461022c578063f1bc94d21461025b578063f23614101461028a575b600080fd5b34156100bf57600080fd5b6100c76102b9565b604051808260ff1660ff16815260200191505060405180910390f35b34156100ee57600080fd5b6100f66102be565b604051808260ff1660ff16815260200191505060405180910390f35b341561011d57600080fd5b6101256102c3565b604051808260ff1660ff16815260200191505060405180910390f35b341561014c57600080fd5b6101546102c8565b604051808260ff1660ff16815260200191505060405180910390f35b341561017b57600080fd5b6101836102cd565b604051808260ff1660ff16815260200191505060405180910390f35b34156101aa57600080fd5b6101b26102d2565b604051808260ff1660ff16815260200191505060405180910390f35b34156101d957600080fd5b6101e16102d7565b604051808260ff1660ff16815260200191505060405180910390f35b341561020857600080fd5b6102106102dc565b604051808260ff1660ff16815260200191505060405180910390f35b341561023757600080fd5b61023f6102e1565b604051808260ff1660ff16815260200191505060405180910390f35b341561026657600080fd5b61026e6102e6565b604051808260ff1660ff16815260200191505060405180910390f35b341561029557600080fd5b61029d6102eb565b604051808260ff1660ff16815260200191505060405180910390f35b600081565b600781565b600681565b600581565b600181565b600981565b600281565b600481565b60ff81565b600881565b6003815600a165627a7a72305820ee7ae9addec68c188862f4e7b15cd1d0e223620c5c50b0e40e53eb996da86d140029",
  "source": "pragma solidity ^0.4.18;\n\n\ncontract WorkerNodeStates {\n    /// @dev Since `destroyself()` zeroes values of all variables, we need the first state (corresponding to zero)\n    /// to indicate that contract had being destroyed\n    uint8 public constant Destroyed = 0xFF;\n\n    /// @dev Reserved system state not participating in transition table. Since contract creation all variables are\n    /// initialized to zero and contract state will be zero until it will be initialized with some definite state\n    uint8 public constant Uninitialized = 0;\n\n    /// @dev When node goes offline it can mark itself as offline to prevent penalties.\n    /// If node is not responding to Pandora events and does not submit updates on the cognitive work in time\n    /// then it will be penaltied and put into `Offline` state\n    uint8 public constant Offline = 1;\n\n    /// @dev Initial and base state\n    uint8 public constant Idle = 2;\n\n    /// @dev State when cognitive job is created and worker node is assigned to it, but the node didn't responded with\n    /// readiness status yet\n    uint8 public constant Assigned = 3;\n\n    /// @dev Worker node have responded with readiness status and awaits cognitive job contract to transition into the\n    /// next stage\n    uint8 public constant ReadyForDataValidation = 4;\n\n    /// @dev Worker node downloads and validates source data for correctness and consistency\n    uint8 public constant ValidatingData = 5;\n\n    /// @dev Worker node have finished data validation, confirmed data correctness and completeness, and reported\n    /// readiness to start performing actual cognition – however cognitive job contract didn't transitioned into\n    /// cognitive state yet (not all workers have reported readiness)\n    uint8 public constant ReadyForComputing = 6;\n\n    /// @dev State when worker node performs cognitive job\n    uint8 public constant Computing = 7;\n\n    /// @dev Intermediary state when worker node stake is reduced below threshold required for performing\n    /// cognitive computations\n    uint8 public constant InsufficientStake = 8;\n\n    /// @dev Intermediary state preventing from performing any type of work during penalty process\n    uint8 public constant UnderPenalty = 9;\n}\n",
  "sourcePath": "/Users/orlovsky/Repositories/pandora/pandora-solidity/contracts/nodes/WorkerNodeStates.sol",
  "compiler": {
    "name": "solc",
    "version": "0.4.18+commit.9cf6e910.Emscripten.clang"
  },
  "schemaVersion": "1.0.1",
  "updatedAt": "2017-12-13T18:09:34.153Z"
}